{
  "_format": "hh-sol-artifact-1",
  "contractName": "DZapDCA",
  "sourceName": "contracts/core/DZapDCA.sol",
  "abi": [
    {
      "inputs": [
        {
          "internalType": "address",
          "name": "governor_",
          "type": "address"
        },
        {
          "internalType": "address",
          "name": "wNative_",
          "type": "address"
        },
        {
          "internalType": "address",
          "name": "oneInchRouter_",
          "type": "address"
        }
      ],
      "stateMutability": "nonpayable",
      "type": "constructor"
    },
    {
      "inputs": [],
      "name": "HighFee",
      "type": "error"
    },
    {
      "inputs": [],
      "name": "HighPlatformFeeRatio",
      "type": "error"
    },
    {
      "inputs": [],
      "name": "IntervalNotAllowed",
      "type": "error"
    },
    {
      "inputs": [],
      "name": "InvalidDstReceiver",
      "type": "error"
    },
    {
      "inputs": [],
      "name": "InvalidInterval",
      "type": "error"
    },
    {
      "inputs": [],
      "name": "InvalidMask",
      "type": "error"
    },
    {
      "inputs": [],
      "name": "InvalidPermit",
      "type": "error"
    },
    {
      "inputs": [],
      "name": "InvalidPermitType",
      "type": "error"
    },
    {
      "inputs": [],
      "name": "InvalidPosition",
      "type": "error"
    },
    {
      "inputs": [],
      "name": "InvalidRate",
      "type": "error"
    },
    {
      "inputs": [],
      "name": "InvalidReturnAmount",
      "type": "error"
    },
    {
      "inputs": [],
      "name": "InvalidSwapAmount",
      "type": "error"
    },
    {
      "inputs": [],
      "name": "InvalidToken",
      "type": "error"
    },
    {
      "inputs": [],
      "name": "NoAvailableSwap",
      "type": "error"
    },
    {
      "inputs": [],
      "name": "NotNativeToken",
      "type": "error"
    },
    {
      "inputs": [],
      "name": "NotWNativeToken",
      "type": "error"
    },
    {
      "inputs": [],
      "name": "PartialFillNotAllowed",
      "type": "error"
    },
    {
      "inputs": [],
      "name": "PositionDoesNotMatchToken",
      "type": "error"
    },
    {
      "inputs": [],
      "name": "UnallowedToken",
      "type": "error"
    },
    {
      "inputs": [],
      "name": "UnauthorizedCaller",
      "type": "error"
    },
    {
      "inputs": [],
      "name": "ZeroAddress",
      "type": "error"
    },
    {
      "inputs": [],
      "name": "ZeroAmount",
      "type": "error"
    },
    {
      "inputs": [],
      "name": "ZeroSwappedAmount",
      "type": "error"
    },
    {
      "inputs": [],
      "name": "ZeroSwaps",
      "type": "error"
    },
    {
      "anonymous": false,
      "inputs": [
        {
          "indexed": true,
          "internalType": "address",
          "name": "owner",
          "type": "address"
        },
        {
          "indexed": false,
          "internalType": "uint256",
          "name": "positionId",
          "type": "uint256"
        },
        {
          "indexed": false,
          "internalType": "address",
          "name": "fromToken",
          "type": "address"
        },
        {
          "indexed": false,
          "internalType": "address",
          "name": "toToken",
          "type": "address"
        },
        {
          "indexed": false,
          "internalType": "uint256",
          "name": "swapInterval",
          "type": "uint256"
        },
        {
          "indexed": false,
          "internalType": "uint256",
          "name": "rate",
          "type": "uint256"
        },
        {
          "indexed": false,
          "internalType": "uint256",
          "name": "startingSwap",
          "type": "uint256"
        },
        {
          "indexed": false,
          "internalType": "uint256",
          "name": "finalSwap",
          "type": "uint256"
        }
      ],
      "name": "Deposited",
      "type": "event"
    },
    {
      "anonymous": false,
      "inputs": [
        {
          "indexed": false,
          "internalType": "address",
          "name": "feeVault",
          "type": "address"
        }
      ],
      "name": "FeeVaultUpdated",
      "type": "event"
    },
    {
      "anonymous": false,
      "inputs": [
        {
          "indexed": true,
          "internalType": "address",
          "name": "formerGov",
          "type": "address"
        },
        {
          "indexed": true,
          "internalType": "address",
          "name": "newGov",
          "type": "address"
        }
      ],
      "name": "GovernanceChanged",
      "type": "event"
    },
    {
      "anonymous": false,
      "inputs": [
        {
          "indexed": true,
          "internalType": "address",
          "name": "user",
          "type": "address"
        },
        {
          "indexed": false,
          "internalType": "uint256",
          "name": "positionId",
          "type": "uint256"
        },
        {
          "indexed": false,
          "internalType": "uint256",
          "name": "rate",
          "type": "uint256"
        },
        {
          "indexed": false,
          "internalType": "uint256",
          "name": "startingSwap",
          "type": "uint256"
        },
        {
          "indexed": false,
          "internalType": "uint256",
          "name": "finalSwap",
          "type": "uint256"
        }
      ],
      "name": "Modified",
      "type": "event"
    },
    {
      "anonymous": false,
      "inputs": [
        {
          "indexed": false,
          "internalType": "address",
          "name": "account",
          "type": "address"
        }
      ],
      "name": "Paused",
      "type": "event"
    },
    {
      "anonymous": false,
      "inputs": [
        {
          "indexed": false,
          "internalType": "uint256",
          "name": "platformFeeRatio",
          "type": "uint256"
        }
      ],
      "name": "PlatformFeeRatioUpdated",
      "type": "event"
    },
    {
      "anonymous": false,
      "inputs": [
        {
          "indexed": false,
          "internalType": "uint256",
          "name": "feeSet",
          "type": "uint256"
        }
      ],
      "name": "SwapFeeUpdated",
      "type": "event"
    },
    {
      "anonymous": false,
      "inputs": [
        {
          "indexed": false,
          "internalType": "uint32[]",
          "name": "_swapIntervals",
          "type": "uint32[]"
        },
        {
          "indexed": true,
          "internalType": "bool",
          "name": "allowed",
          "type": "bool"
        }
      ],
      "name": "SwapIntervalsUpdated",
      "type": "event"
    },
    {
      "anonymous": false,
      "inputs": [
        {
          "indexed": true,
          "internalType": "address",
          "name": "sender",
          "type": "address"
        },
        {
          "indexed": true,
          "internalType": "address",
          "name": "rewardRecipient",
          "type": "address"
        },
        {
          "components": [
            {
              "internalType": "address",
              "name": "fromToken",
              "type": "address"
            },
            {
              "internalType": "address",
              "name": "toToken",
              "type": "address"
            },
            {
              "internalType": "uint256",
              "name": "swappedAmount",
              "type": "uint256"
            },
            {
              "internalType": "uint256",
              "name": "receivedAmount",
              "type": "uint256"
            },
            {
              "internalType": "uint256",
              "name": "reward",
              "type": "uint256"
            },
            {
              "internalType": "uint256",
              "name": "platformFee",
              "type": "uint256"
            },
            {
              "internalType": "bytes1",
              "name": "intervalsInSwap",
              "type": "bytes1"
            }
          ],
          "indexed": false,
          "internalType": "struct SwapInfo[]",
          "name": "swapInformation",
          "type": "tuple[]"
        },
        {
          "indexed": false,
          "internalType": "uint256",
          "name": "swapFee",
          "type": "uint256"
        }
      ],
      "name": "Swapped",
      "type": "event"
    },
    {
      "anonymous": false,
      "inputs": [
        {
          "indexed": true,
          "internalType": "address",
          "name": "user",
          "type": "address"
        },
        {
          "indexed": true,
          "internalType": "address",
          "name": "recipientSwapped",
          "type": "address"
        },
        {
          "indexed": true,
          "internalType": "address",
          "name": "recipientUnswapped",
          "type": "address"
        },
        {
          "indexed": false,
          "internalType": "uint256",
          "name": "positionId",
          "type": "uint256"
        },
        {
          "indexed": false,
          "internalType": "uint256",
          "name": "returnedSwapped",
          "type": "uint256"
        },
        {
          "indexed": false,
          "internalType": "uint256",
          "name": "returnedUnswapped",
          "type": "uint256"
        }
      ],
      "name": "Terminated",
      "type": "event"
    },
    {
      "anonymous": false,
      "inputs": [
        {
          "indexed": false,
          "internalType": "address[]",
          "name": "tokens",
          "type": "address[]"
        },
        {
          "indexed": false,
          "internalType": "bool",
          "name": "allowed",
          "type": "bool"
        }
      ],
      "name": "TokensAllowedUpdated",
      "type": "event"
    },
    {
      "anonymous": false,
      "inputs": [
        {
          "indexed": false,
          "internalType": "address",
          "name": "account",
          "type": "address"
        }
      ],
      "name": "Unpaused",
      "type": "event"
    },
    {
      "anonymous": false,
      "inputs": [
        {
          "indexed": true,
          "internalType": "address",
          "name": "withdrawer",
          "type": "address"
        },
        {
          "indexed": true,
          "internalType": "address",
          "name": "recipient",
          "type": "address"
        },
        {
          "indexed": false,
          "internalType": "uint256",
          "name": "positionId",
          "type": "uint256"
        },
        {
          "indexed": false,
          "internalType": "address",
          "name": "token",
          "type": "address"
        },
        {
          "indexed": false,
          "internalType": "uint256",
          "name": "amount",
          "type": "uint256"
        }
      ],
      "name": "Withdrew",
      "type": "event"
    },
    {
      "anonymous": false,
      "inputs": [
        {
          "indexed": true,
          "internalType": "address",
          "name": "withdrawer",
          "type": "address"
        },
        {
          "indexed": true,
          "internalType": "address",
          "name": "recipient",
          "type": "address"
        },
        {
          "indexed": false,
          "internalType": "address",
          "name": "srcToken",
          "type": "address"
        },
        {
          "indexed": false,
          "internalType": "address",
          "name": "destToken",
          "type": "address"
        },
        {
          "indexed": false,
          "internalType": "uint256",
          "name": "leftOver",
          "type": "uint256"
        },
        {
          "indexed": false,
          "internalType": "uint256",
          "name": "returnAmount",
          "type": "uint256"
        }
      ],
      "name": "WithdrewAndSwapped",
      "type": "event"
    },
    {
      "anonymous": false,
      "inputs": [
        {
          "indexed": true,
          "internalType": "address",
          "name": "withdrawer",
          "type": "address"
        },
        {
          "indexed": true,
          "internalType": "address",
          "name": "recipient",
          "type": "address"
        },
        {
          "components": [
            {
              "internalType": "address",
              "name": "token",
              "type": "address"
            },
            {
              "internalType": "uint256[]",
              "name": "positionIds",
              "type": "uint256[]"
            },
            {
              "internalType": "bool",
              "name": "isNative",
              "type": "bool"
            }
          ],
          "indexed": false,
          "internalType": "struct PositionSet[]",
          "name": "positions",
          "type": "tuple[]"
        },
        {
          "indexed": false,
          "internalType": "uint256[]",
          "name": "amount",
          "type": "uint256[]"
        }
      ],
      "name": "WithdrewManyFromMultiplePositions",
      "type": "event"
    },
    {
      "inputs": [],
      "name": "BPS_DENOMINATOR",
      "outputs": [
        {
          "internalType": "uint256",
          "name": "",
          "type": "uint256"
        }
      ],
      "stateMutability": "view",
      "type": "function"
    },
    {
      "inputs": [],
      "name": "MAX_FEE",
      "outputs": [
        {
          "internalType": "uint256",
          "name": "",
          "type": "uint256"
        }
      ],
      "stateMutability": "view",
      "type": "function"
    },
    {
      "inputs": [],
      "name": "MAX_PLATFORM_FEE_RATIO",
      "outputs": [
        {
          "internalType": "uint256",
          "name": "",
          "type": "uint256"
        }
      ],
      "stateMutability": "view",
      "type": "function"
    },
    {
      "inputs": [],
      "name": "NATIVE_TOKEN",
      "outputs": [
        {
          "internalType": "address",
          "name": "",
          "type": "address"
        }
      ],
      "stateMutability": "view",
      "type": "function"
    },
    {
      "inputs": [],
      "name": "ONE_INCH_ROUTER",
      "outputs": [
        {
          "internalType": "address",
          "name": "",
          "type": "address"
        }
      ],
      "stateMutability": "view",
      "type": "function"
    },
    {
      "inputs": [
        {
          "internalType": "address",
          "name": "",
          "type": "address"
        },
        {
          "internalType": "address",
          "name": "",
          "type": "address"
        },
        {
          "internalType": "bytes1",
          "name": "",
          "type": "bytes1"
        },
        {
          "internalType": "uint256",
          "name": "",
          "type": "uint256"
        }
      ],
      "name": "accumRatio",
      "outputs": [
        {
          "internalType": "uint256",
          "name": "",
          "type": "uint256"
        }
      ],
      "stateMutability": "view",
      "type": "function"
    },
    {
      "inputs": [
        {
          "internalType": "address",
          "name": "",
          "type": "address"
        },
        {
          "internalType": "address",
          "name": "",
          "type": "address"
        }
      ],
      "name": "activeSwapIntervals",
      "outputs": [
        {
          "internalType": "bytes1",
          "name": "",
          "type": "bytes1"
        }
      ],
      "stateMutability": "view",
      "type": "function"
    },
    {
      "inputs": [
        {
          "internalType": "address[]",
          "name": "tokens_",
          "type": "address[]"
        }
      ],
      "name": "addAllowedTokens",
      "outputs": [],
      "stateMutability": "nonpayable",
      "type": "function"
    },
    {
      "inputs": [
        {
          "internalType": "uint32[]",
          "name": "swapIntervals_",
          "type": "uint32[]"
        }
      ],
      "name": "addSwapIntervalsToAllowedList",
      "outputs": [],
      "stateMutability": "nonpayable",
      "type": "function"
    },
    {
      "inputs": [],
      "name": "allowedSwapIntervals",
      "outputs": [
        {
          "internalType": "bytes1",
          "name": "",
          "type": "bytes1"
        }
      ],
      "stateMutability": "view",
      "type": "function"
    },
    {
      "inputs": [
        {
          "internalType": "address",
          "name": "",
          "type": "address"
        }
      ],
      "name": "allowedTokens",
      "outputs": [
        {
          "internalType": "bool",
          "name": "",
          "type": "bool"
        }
      ],
      "stateMutability": "view",
      "type": "function"
    },
    {
      "inputs": [
        {
          "internalType": "address",
          "name": "newGov",
          "type": "address"
        }
      ],
      "name": "changeGovernance",
      "outputs": [],
      "stateMutability": "nonpayable",
      "type": "function"
    },
    {
      "inputs": [
        {
          "components": [
            {
              "internalType": "address",
              "name": "from",
              "type": "address"
            },
            {
              "internalType": "address",
              "name": "to",
              "type": "address"
            },
            {
              "internalType": "bytes",
              "name": "permit",
              "type": "bytes"
            },
            {
              "internalType": "uint256",
              "name": "amount",
              "type": "uint256"
            },
            {
              "internalType": "uint256",
              "name": "noOfSwaps",
              "type": "uint256"
            },
            {
              "internalType": "uint32",
              "name": "swapInterval",
              "type": "uint32"
            }
          ],
          "internalType": "struct InputPositionDetails[]",
          "name": "inputDetails_",
          "type": "tuple[]"
        }
      ],
      "name": "createMultiplePositions",
      "outputs": [
        {
          "internalType": "uint256[]",
          "name": "",
          "type": "uint256[]"
        }
      ],
      "stateMutability": "payable",
      "type": "function"
    },
    {
      "inputs": [
        {
          "internalType": "address",
          "name": "from_",
          "type": "address"
        },
        {
          "internalType": "address",
          "name": "to_",
          "type": "address"
        },
        {
          "internalType": "bytes",
          "name": "permit_",
          "type": "bytes"
        },
        {
          "internalType": "uint256",
          "name": "amount_",
          "type": "uint256"
        },
        {
          "internalType": "uint256",
          "name": "noOfSwaps_",
          "type": "uint256"
        },
        {
          "internalType": "uint32",
          "name": "swapInterval_",
          "type": "uint32"
        }
      ],
      "name": "createPosition",
      "outputs": [
        {
          "internalType": "uint256",
          "name": "",
          "type": "uint256"
        }
      ],
      "stateMutability": "nonpayable",
      "type": "function"
    },
    {
      "inputs": [
        {
          "internalType": "address",
          "name": "from_",
          "type": "address"
        },
        {
          "internalType": "address",
          "name": "to_",
          "type": "address"
        },
        {
          "internalType": "uint256",
          "name": "amount_",
          "type": "uint256"
        },
        {
          "internalType": "uint256",
          "name": "noOfSwaps_",
          "type": "uint256"
        },
        {
          "internalType": "uint32",
          "name": "swapInterval_",
          "type": "uint32"
        }
      ],
      "name": "createPositionUsingNativeToken",
      "outputs": [
        {
          "internalType": "uint256",
          "name": "",
          "type": "uint256"
        }
      ],
      "stateMutability": "payable",
      "type": "function"
    },
    {
      "inputs": [],
      "name": "feeVault",
      "outputs": [
        {
          "internalType": "address",
          "name": "",
          "type": "address"
        }
      ],
      "stateMutability": "view",
      "type": "function"
    },
    {
      "inputs": [
        {
          "components": [
            {
              "internalType": "address",
              "name": "from",
              "type": "address"
            },
            {
              "internalType": "address",
              "name": "to",
              "type": "address"
            }
          ],
          "internalType": "struct Pair[]",
          "name": "pairs_",
          "type": "tuple[]"
        }
      ],
      "name": "getNextSwapInfo",
      "outputs": [
        {
          "components": [
            {
              "internalType": "address",
              "name": "fromToken",
              "type": "address"
            },
            {
              "internalType": "address",
              "name": "toToken",
              "type": "address"
            },
            {
              "internalType": "uint256",
              "name": "swappedAmount",
              "type": "uint256"
            },
            {
              "internalType": "uint256",
              "name": "receivedAmount",
              "type": "uint256"
            },
            {
              "internalType": "uint256",
              "name": "reward",
              "type": "uint256"
            },
            {
              "internalType": "uint256",
              "name": "platformFee",
              "type": "uint256"
            },
            {
              "internalType": "bytes1",
              "name": "intervalsInSwap",
              "type": "bytes1"
            }
          ],
          "internalType": "struct SwapInfo[]",
          "name": "",
          "type": "tuple[]"
        }
      ],
      "stateMutability": "view",
      "type": "function"
    },
    {
      "inputs": [
        {
          "internalType": "uint256",
          "name": "positionId_",
          "type": "uint256"
        }
      ],
      "name": "getPositionDetails",
      "outputs": [
        {
          "components": [
            {
              "internalType": "address",
              "name": "owner",
              "type": "address"
            },
            {
              "internalType": "address",
              "name": "from",
              "type": "address"
            },
            {
              "internalType": "address",
              "name": "to",
              "type": "address"
            },
            {
              "internalType": "uint32",
              "name": "swapInterval",
              "type": "uint32"
            },
            {
              "internalType": "uint256",
              "name": "rate",
              "type": "uint256"
            },
            {
              "internalType": "uint256",
              "name": "swapsExecuted",
              "type": "uint256"
            },
            {
              "internalType": "uint256",
              "name": "swapsLeft",
              "type": "uint256"
            },
            {
              "internalType": "uint256",
              "name": "swapped",
              "type": "uint256"
            },
            {
              "internalType": "uint256",
              "name": "unswapped",
              "type": "uint256"
            }
          ],
          "internalType": "struct PositionInfo",
          "name": "positionInfo",
          "type": "tuple"
        }
      ],
      "stateMutability": "view",
      "type": "function"
    },
    {
      "inputs": [],
      "name": "governance",
      "outputs": [
        {
          "internalType": "address",
          "name": "",
          "type": "address"
        }
      ],
      "stateMutability": "view",
      "type": "function"
    },
    {
      "inputs": [
        {
          "internalType": "uint256",
          "name": "positionId_",
          "type": "uint256"
        },
        {
          "internalType": "uint256",
          "name": "amount_",
          "type": "uint256"
        },
        {
          "internalType": "uint256",
          "name": "newAmountOfSwaps_",
          "type": "uint256"
        },
        {
          "internalType": "bytes",
          "name": "permit_",
          "type": "bytes"
        }
      ],
      "name": "increasePosition",
      "outputs": [],
      "stateMutability": "nonpayable",
      "type": "function"
    },
    {
      "inputs": [
        {
          "internalType": "uint256",
          "name": "positionId_",
          "type": "uint256"
        },
        {
          "internalType": "uint256",
          "name": "amount_",
          "type": "uint256"
        },
        {
          "internalType": "uint256",
          "name": "newAmountOfSwaps_",
          "type": "uint256"
        }
      ],
      "name": "increasePositionUsingNative",
      "outputs": [],
      "stateMutability": "payable",
      "type": "function"
    },
    {
      "inputs": [],
      "name": "pause",
      "outputs": [],
      "stateMutability": "nonpayable",
      "type": "function"
    },
    {
      "inputs": [],
      "name": "paused",
      "outputs": [
        {
          "internalType": "bool",
          "name": "",
          "type": "bool"
        }
      ],
      "stateMutability": "view",
      "type": "function"
    },
    {
      "inputs": [],
      "name": "platformFeeRatio",
      "outputs": [
        {
          "internalType": "uint256",
          "name": "",
          "type": "uint256"
        }
      ],
      "stateMutability": "view",
      "type": "function"
    },
    {
      "inputs": [
        {
          "internalType": "uint256",
          "name": "positionId_",
          "type": "uint256"
        },
        {
          "internalType": "uint256",
          "name": "amount_",
          "type": "uint256"
        },
        {
          "internalType": "uint256",
          "name": "newAmountOfSwaps_",
          "type": "uint256"
        },
        {
          "internalType": "address",
          "name": "recipient_",
          "type": "address"
        }
      ],
      "name": "reducePosition",
      "outputs": [],
      "stateMutability": "nonpayable",
      "type": "function"
    },
    {
      "inputs": [
        {
          "internalType": "uint256",
          "name": "positionId_",
          "type": "uint256"
        },
        {
          "internalType": "uint256",
          "name": "amount_",
          "type": "uint256"
        },
        {
          "internalType": "uint256",
          "name": "newAmountOfSwaps_",
          "type": "uint256"
        },
        {
          "internalType": "address payable",
          "name": "recipient_",
          "type": "address"
        }
      ],
      "name": "reducePositionUsingNativeToken",
      "outputs": [],
      "stateMutability": "nonpayable",
      "type": "function"
    },
    {
      "inputs": [
        {
          "internalType": "address[]",
          "name": "tokens_",
          "type": "address[]"
        }
      ],
      "name": "removeAllowedTokens",
      "outputs": [],
      "stateMutability": "nonpayable",
      "type": "function"
    },
    {
      "inputs": [
        {
          "internalType": "uint32[]",
          "name": "swapIntervals_",
          "type": "uint32[]"
        }
      ],
      "name": "removeSwapIntervalsFromAllowedList",
      "outputs": [],
      "stateMutability": "nonpayable",
      "type": "function"
    },
    {
      "inputs": [
        {
          "components": [
            {
              "internalType": "address",
              "name": "from",
              "type": "address"
            },
            {
              "internalType": "address",
              "name": "to",
              "type": "address"
            }
          ],
          "internalType": "struct Pair[]",
          "name": "pairs_",
          "type": "tuple[]"
        }
      ],
      "name": "secondsUntilNextSwap",
      "outputs": [
        {
          "internalType": "uint256[]",
          "name": "",
          "type": "uint256[]"
        }
      ],
      "stateMutability": "view",
      "type": "function"
    },
    {
      "inputs": [
        {
          "internalType": "address",
          "name": "newVault_",
          "type": "address"
        }
      ],
      "name": "setFeeVault",
      "outputs": [],
      "stateMutability": "nonpayable",
      "type": "function"
    },
    {
      "inputs": [
        {
          "internalType": "uint256",
          "name": "platformFeeRatio_",
          "type": "uint256"
        }
      ],
      "name": "setPlatformFeeRatio",
      "outputs": [],
      "stateMutability": "nonpayable",
      "type": "function"
    },
    {
      "inputs": [
        {
          "internalType": "uint256",
          "name": "swapFee_",
          "type": "uint256"
        }
      ],
      "name": "setSwapFee",
      "outputs": [],
      "stateMutability": "nonpayable",
      "type": "function"
    },
    {
      "inputs": [
        {
          "components": [
            {
              "internalType": "contract IAggregationExecutor",
              "name": "executor",
              "type": "address"
            },
            {
              "components": [
                {
                  "internalType": "contract IERC20",
                  "name": "srcToken",
                  "type": "address"
                },
                {
                  "internalType": "contract IERC20",
                  "name": "dstToken",
                  "type": "address"
                },
                {
                  "internalType": "address payable",
                  "name": "srcReceiver",
                  "type": "address"
                },
                {
                  "internalType": "address payable",
                  "name": "dstReceiver",
                  "type": "address"
                },
                {
                  "internalType": "uint256",
                  "name": "amount",
                  "type": "uint256"
                },
                {
                  "internalType": "uint256",
                  "name": "minReturnAmount",
                  "type": "uint256"
                },
                {
                  "internalType": "uint256",
                  "name": "flags",
                  "type": "uint256"
                },
                {
                  "internalType": "bytes",
                  "name": "permit",
                  "type": "bytes"
                }
              ],
              "internalType": "struct SwapDescription",
              "name": "desc",
              "type": "tuple"
            },
            {
              "internalType": "bytes",
              "name": "routeData",
              "type": "bytes"
            }
          ],
          "internalType": "struct SwapDetails[]",
          "name": "data_",
          "type": "tuple[]"
        },
        {
          "internalType": "address",
          "name": "rewardRecipient_",
          "type": "address"
        }
      ],
      "name": "swap",
      "outputs": [
        {
          "components": [
            {
              "internalType": "address",
              "name": "fromToken",
              "type": "address"
            },
            {
              "internalType": "address",
              "name": "toToken",
              "type": "address"
            },
            {
              "internalType": "uint256",
              "name": "swappedAmount",
              "type": "uint256"
            },
            {
              "internalType": "uint256",
              "name": "receivedAmount",
              "type": "uint256"
            },
            {
              "internalType": "uint256",
              "name": "reward",
              "type": "uint256"
            },
            {
              "internalType": "uint256",
              "name": "platformFee",
              "type": "uint256"
            },
            {
              "internalType": "bytes1",
              "name": "intervalsInSwap",
              "type": "bytes1"
            }
          ],
          "internalType": "struct SwapInfo[]",
          "name": "",
          "type": "tuple[]"
        }
      ],
      "stateMutability": "nonpayable",
      "type": "function"
    },
    {
      "inputs": [
        {
          "internalType": "address",
          "name": "",
          "type": "address"
        },
        {
          "internalType": "address",
          "name": "",
          "type": "address"
        },
        {
          "internalType": "bytes1",
          "name": "",
          "type": "bytes1"
        },
        {
          "internalType": "uint256",
          "name": "",
          "type": "uint256"
        }
      ],
      "name": "swapAmountDelta",
      "outputs": [
        {
          "internalType": "uint256",
          "name": "",
          "type": "uint256"
        }
      ],
      "stateMutability": "view",
      "type": "function"
    },
    {
      "inputs": [
        {
          "internalType": "address",
          "name": "",
          "type": "address"
        },
        {
          "internalType": "address",
          "name": "",
          "type": "address"
        },
        {
          "internalType": "bytes1",
          "name": "",
          "type": "bytes1"
        }
      ],
      "name": "swapData",
      "outputs": [
        {
          "internalType": "uint256",
          "name": "performedSwaps",
          "type": "uint256"
        },
        {
          "internalType": "uint256",
          "name": "nextAmountToSwap",
          "type": "uint256"
        },
        {
          "internalType": "uint256",
          "name": "lastSwappedAt",
          "type": "uint256"
        }
      ],
      "stateMutability": "view",
      "type": "function"
    },
    {
      "inputs": [],
      "name": "swapFee",
      "outputs": [
        {
          "internalType": "uint256",
          "name": "",
          "type": "uint256"
        }
      ],
      "stateMutability": "view",
      "type": "function"
    },
    {
      "inputs": [
        {
          "internalType": "uint256",
          "name": "positionId_",
          "type": "uint256"
        },
        {
          "internalType": "address",
          "name": "recipientSwapped_",
          "type": "address"
        },
        {
          "internalType": "address",
          "name": "recipientUnswapped_",
          "type": "address"
        }
      ],
      "name": "terminate",
      "outputs": [],
      "stateMutability": "nonpayable",
      "type": "function"
    },
    {
      "inputs": [
        {
          "internalType": "uint256",
          "name": "positionId_",
          "type": "uint256"
        },
        {
          "internalType": "address payable",
          "name": "recipientSwapped_",
          "type": "address"
        },
        {
          "internalType": "address payable",
          "name": "recipientUnswapped_",
          "type": "address"
        },
        {
          "internalType": "bool",
          "name": "isFromTokenNative",
          "type": "bool"
        }
      ],
      "name": "terminateUsingNative",
      "outputs": [],
      "stateMutability": "nonpayable",
      "type": "function"
    },
    {
      "inputs": [
        {
          "internalType": "address",
          "name": "",
          "type": "address"
        }
      ],
      "name": "tokenMagnitude",
      "outputs": [
        {
          "internalType": "uint256",
          "name": "",
          "type": "uint256"
        }
      ],
      "stateMutability": "view",
      "type": "function"
    },
    {
      "inputs": [],
      "name": "totalCreatedPositions",
      "outputs": [
        {
          "internalType": "uint256",
          "name": "",
          "type": "uint256"
        }
      ],
      "stateMutability": "view",
      "type": "function"
    },
    {
      "inputs": [],
      "name": "unpause",
      "outputs": [],
      "stateMutability": "nonpayable",
      "type": "function"
    },
    {
      "inputs": [
        {
          "internalType": "uint256",
          "name": "",
          "type": "uint256"
        }
      ],
      "name": "userPositions",
      "outputs": [
        {
          "internalType": "uint256",
          "name": "swapWhereLastUpdated",
          "type": "uint256"
        },
        {
          "internalType": "uint256",
          "name": "finalSwap",
          "type": "uint256"
        },
        {
          "internalType": "bytes1",
          "name": "swapIntervalMask",
          "type": "bytes1"
        },
        {
          "internalType": "uint256",
          "name": "rate",
          "type": "uint256"
        },
        {
          "internalType": "address",
          "name": "from",
          "type": "address"
        },
        {
          "internalType": "address",
          "name": "to",
          "type": "address"
        },
        {
          "internalType": "address",
          "name": "owner",
          "type": "address"
        }
      ],
      "stateMutability": "view",
      "type": "function"
    },
    {
      "inputs": [],
      "name": "wNative",
      "outputs": [
        {
          "internalType": "contract IWNative",
          "name": "",
          "type": "address"
        }
      ],
      "stateMutability": "view",
      "type": "function"
    },
    {
      "inputs": [
        {
          "internalType": "uint256",
          "name": "positionId_",
          "type": "uint256"
        },
        {
          "internalType": "address",
          "name": "recipient_",
          "type": "address"
        }
      ],
      "name": "withdrawSwapped",
      "outputs": [],
      "stateMutability": "nonpayable",
      "type": "function"
    },
    {
      "inputs": [
        {
          "components": [
            {
              "internalType": "address",
              "name": "token",
              "type": "address"
            },
            {
              "internalType": "uint256[]",
              "name": "positionIds",
              "type": "uint256[]"
            },
            {
              "internalType": "bool",
              "name": "isNative",
              "type": "bool"
            }
          ],
          "internalType": "struct PositionSet[]",
          "name": "positions_",
          "type": "tuple[]"
        },
        {
          "internalType": "address payable",
          "name": "recipient_",
          "type": "address"
        }
      ],
      "name": "withdrawSwappedFromMultiplePositions",
      "outputs": [],
      "stateMutability": "nonpayable",
      "type": "function"
    },
    {
      "inputs": [
        {
          "internalType": "uint256",
          "name": "positionId_",
          "type": "uint256"
        },
        {
          "internalType": "address payable",
          "name": "recipient_",
          "type": "address"
        }
      ],
      "name": "withdrawSwappedUsingNativeToken",
      "outputs": [],
      "stateMutability": "nonpayable",
      "type": "function"
    },
    {
      "stateMutability": "payable",
      "type": "receive"
    }
  ],
  "bytecode": "0x60c06040523480156200001157600080fd5b506040516200558b3803806200558b8339810160408190526200003491620000f9565b6001600055808383816001600160a01b038116620000655760405163d92e233d60e01b815260040160405180910390fd5b600580546001600160a01b0319166001600160a01b0383169081179091556040516000907f3aaaebeb4821d6a7e5c77ece53cff0afcc56c82add2c978dbbb7f73e84cbcfd2908290a3506005805460ff60a01b191690556001600160a01b039081166080529190911660a052506200014392505050565b80516001600160a01b0381168114620000f457600080fd5b919050565b6000806000606084860312156200010f57600080fd5b6200011a84620000dc565b92506200012a60208501620000dc565b91506200013a60408501620000dc565b90509250925092565b60805160a0516153d5620001b66000396000818161092601528181611748015261181101526000818161040501528181610b8601528181610d3b01528181610d7a015281816110b7015281816114dd015281816123c60152818161252f01528181612a6c0152612dbf01526153d56000f3fe6080604052600436106102815760003560e01c806369317e791161014f578063a591f97f116100c1578063dd3fd9251161007a578063dd3fd92514610914578063e1a45218146102ef578063e48777e314610948578063e581a3be1461095b578063e744092e1461097b578063f70e663d146109ab57600080fd5b8063a591f97f1461085e578063b8aa6db91461087e578063bc063e1a1461089e578063c5c2dc8b146108b4578063c731d338146108d4578063cb8ab012146108f457600080fd5b8063821b5a2b11610113578063821b5a2b1461078f5780638456cb59146107af5780638cf39d5f146107c457806399572d6f146107e45780639ecceb5e14610804578063a2c346ec1461083157600080fd5b806369317e79146106aa5780636b425336146106bd57806372ada4c5146106ea5780637d8e86031461070a578063808ba8e01461072a57600080fd5b80633f4ba83a116101f357806354cf2aeb116101ac57806354cf2aeb146105b357806357ae1cec146105c9578063582cf84b146105df57806359eecff11461061a5780635aa6e675146106615780635c975abb1461067f57600080fd5b80633f4ba83a146104bd5780633feb1493146104d2578063411334a7146104f2578063478222c214610512578063480e5da1146105325780634a1492431461056c57600080fd5b80632b1507e5116102455780632b1507e5146103d35780632d68efc9146103f357806331f7d9641461043f57806334e199071461046757806336639580146104875780633738042d1461049d57600080fd5b806316cd7af81461028d57806317621890146102cd5780631b8b8c34146102ef5780631bc2f629146103065780631e7f13701461031957600080fd5b3661028857005b600080fd5b34801561029957600080fd5b506102ba6102a8366004614335565b60076020526000908152604090205481565b6040519081526020015b60405180910390f35b3480156102d957600080fd5b506102ed6102e8366004614352565b6109cb565b005b3480156102fb57600080fd5b506102ba620186a081565b6102ed610314366004614382565b610af0565b34801561032557600080fd5b506103836103343660046143ae565b600b6020526000908152604090208054600182015460028301546003840154600485015460058601546006909601549495939460f89390931b9391926001600160a01b03918216928216911687565b6040805197885260208801969096526001600160f81b03199094169486019490945260608501919091526001600160a01b03908116608085015291821660a08401521660c082015260e0016102c4565b3480156103df57600080fd5b506102ed6103ee3660046143f0565b610c4d565b3480156103ff57600080fd5b506104277f000000000000000000000000000000000000000000000000000000000000000081565b6040516001600160a01b0390911681526020016102c4565b34801561044b57600080fd5b5061042773eeeeeeeeeeeeeeeeeeeeeeeeeeeeeeeeeeeeeeee81565b34801561047357600080fd5b506102ed6104823660046143ae565b610ec1565b34801561049357600080fd5b506102ba600d5481565b3480156104a957600080fd5b506102ed6104b8366004614487565b610f4b565b3480156104c957600080fd5b506102ed611241565b3480156104de57600080fd5b506102ed6104ed3660046144dd565b611276565b3480156104fe57600080fd5b506102ed61050d36600461451e565b611355565b34801561051e57600080fd5b50600854610427906001600160a01b031681565b34801561053e57600080fd5b5060055461055390600160a81b900460f81b81565b6040516001600160f81b031990911681526020016102c4565b34801561057857600080fd5b506102ba61058736600461456c565b600460209081526000948552604080862082529385528385208152918452828420909152825290205481565b3480156105bf57600080fd5b506102ba60095481565b3480156105d557600080fd5b506102ba600a5481565b3480156105eb57600080fd5b506105536105fa3660046145bb565b600160209081526000928352604080842090915290825290205460f81b81565b34801561062657600080fd5b506102ba61063536600461456c565b600360209081526000948552604080862082529385528385208152918452828420909152825290205481565b34801561066d57600080fd5b506005546001600160a01b0316610427565b34801561068b57600080fd5b50600554600160a01b900460ff165b60405190151581526020016102c4565b6102ba6106b83660046145fd565b611464565b3480156106c957600080fd5b506106dd6106d8366004614487565b61158d565b6040516102c491906146e7565b3480156106f657600080fd5b506102ed6107053660046146fa565b611ac3565b34801561071657600080fd5b506102ed6107253660046144dd565b611c63565b34801561073657600080fd5b50610774610745366004614731565b600260208181526000948552604080862082529385528385209052908352912080546001820154919092015483565b604080519384526020840192909252908201526060016102c4565b34801561079b57600080fd5b506102ba6107aa366004614878565b611d1d565b3480156107bb57600080fd5b506102ed611df7565b3480156107d057600080fd5b506102ed6107df3660046144dd565b611e2a565b3480156107f057600080fd5b506102ed6107ff366004614335565b611e65565b34801561081057600080fd5b5061082461081f3660046143ae565b611f13565b6040516102c491906148fc565b34801561083d57600080fd5b5061085161084c36600461497d565b6120d1565b6040516102c49190614a21565b34801561086a57600080fd5b506102ed610879366004614335565b6121b7565b34801561088a57600080fd5b506102ed610899366004614a34565b612230565b3480156108aa57600080fd5b506102ba61271081565b3480156108c057600080fd5b506102ed6108cf3660046144dd565b612305565b3480156108e057600080fd5b506102ed6108ef366004614352565b61233c565b34801561090057600080fd5b506102ed61090f36600461451e565b61249d565b34801561092057600080fd5b506104277f000000000000000000000000000000000000000000000000000000000000000081565b6108516109563660046144dd565b61257e565b34801561096757600080fd5b506106dd61097636600461497d565b6126c2565b34801561098757600080fd5b5061069a610996366004614335565b60066020526000908152604090205460ff1681565b3480156109b757600080fd5b506102ed6109c63660046143ae565b61281d565b6109d4816128a1565b6000828152600b60209081526040808320815160e08101835281548152600182015493810193909352600281015460f81b6001600160f81b031916918301919091526003810154606083015260048101546001600160a01b0390811660808401526005820154811660a08401526006909101541660c082015290610a5882856128cb565b905080600003610a7b5760405163906edb1f60e01b815260040160405180910390fd5b60a0820151610a94906001600160a01b03168483612950565b60a0820151604080518681526001600160a01b0392831660208201529081018390529084169033907fcade65431cead780eb2b14b84a6594e1b235278a02e31abf3fc04c7c3e8ab4ee906060015b60405180910390a350505050565b610af86129b8565b6000838152600b6020908152604091829020825160e08101845281548152600182015492810192909252600281015460f81b6001600160f81b031916928201929092526003820154606082015260048201546001600160a01b03908116608083018190526005840154821660a0840181905260069094015490911660c08301529091610b849190612a05565b7f00000000000000000000000000000000000000000000000000000000000000006001600160a01b031681608001516001600160a01b031614610bc657600080fd5b610bcf83612a64565b6000806000610be2848888886001612ae1565b925092509250610bef3390565b6040805189815260208101869052908101849052606081018390526001600160a01b0391909116907f0166457f01d39327f2e17a03785446f911cb623efb690062215baa46ec377ff89060800160405180910390a250505050505050565b600260005403610c785760405162461bcd60e51b8152600401610c6f90614a8d565b60405180910390fd5b60026000556001600160a01b0382161580610c9a57506001600160a01b038316155b15610cb85760405163d92e233d60e01b815260040160405180910390fd5b6000848152600b6020908152604091829020825160e08101845281548152600182015492810192909252600281015460f81b6001600160f81b031916928201929092526003820154606082015260048201546001600160a01b0390811660808301526005830154811660a083015260069092015490911660c082015281610d78577f00000000000000000000000000000000000000000000000000000000000000006001600160a01b03168160a001516001600160a01b03161415610db3565b7f00000000000000000000000000000000000000000000000000000000000000006001600160a01b031681608001516001600160a01b031614155b15610dd1576040516306220c1b60e41b815260040160405180910390fd5b600080610dde8388612cc4565b90925090508115610e17578315610dfe57610df98286612da3565b610e17565b6080830151610e17906001600160a01b03168684612950565b8015610e4a5783610e3157610e2c8187612da3565b610e4a565b60a0830151610e4a906001600160a01b03168783612950565b846001600160a01b0316866001600160a01b0316610e653390565b604080518b8152602081018690529081018690526001600160a01b0391909116907f2577f709b454c4d5c1118a01186dd48d4a6bacf43fe4c26aad2f66a51bf5290d9060600160405180910390a4505060016000555050505050565b6005546001600160a01b03163314610eec57604051635c427cd960e01b815260040160405180910390fd5b612710811115610f0f576040516314041af760e31b815260040160405180910390fd5b60098190556040518181527f382455f3b749abde7721258dcfa10a22f30d4a28c69151a002dcbd8d1462e4f2906020015b60405180910390a150565b610f54816128a1565b6000826001600160401b03811115610f6e57610f6e614778565b604051908082528060200260200182016040528015610f97578160200160208202803683370190505b50905060005b838110156111f9576000858583818110610fb957610fb9614ac4565b9050602002810190610fcb9190614ada565b610fd490614afa565b905060005b81602001515181101561117a57600082602001518281518110610ffe57610ffe614ac4565b6020908102919091018101516000818152600b8352604090819020815160e08101835281548152600182015494810194909452600281015460f81b6001600160f81b031916918401919091526003810154606084015260048101546001600160a01b0390811660808501526005820154811660a08501819052600690920154811660c0850152865192945091909116146110ab5760405163305663b560e11b815260040160405180910390fd5b83604001511561110b577f00000000000000000000000000000000000000000000000000000000000000006001600160a01b03168160a001516001600160a01b03161461110b576040516306220c1b60e41b815260040160405180910390fd5b600061111782846128cb565b90508060000361113a5760405163906edb1f60e01b815260040160405180910390fd5b8087878151811061114d5761114d614ac4565b602002602001018181516111619190614be2565b9052506111739250839150614bf59050565b9050610fd9565b508060400151156111ad576111a883838151811061119a5761119a614ac4565b602002602001015185612da3565b6111e8565b6111e8848484815181106111c3576111c3614ac4565b602002602001015183600001516001600160a01b03166129509092919063ffffffff16565b506111f281614bf5565b9050610f9d565b506001600160a01b038216336001600160a01b03167fb2a9f4aef5ff27ce22eb245c7674b6107b4d6ea9b994ac2b5b780962cd419f60868685604051610ae293929190614c40565b6005546001600160a01b0316331461126c57604051635c427cd960e01b815260040160405180910390fd5b611274612e59565b565b6005546001600160a01b031633146112a157604051635c427cd960e01b815260040160405180910390fd5b60005b81811015611313576112db8383838181106112c1576112c1614ac4565b90506020020160208101906112d69190614d3f565b612eae565b6005805460ff60a81b198116600160a81b9182900460f890811b9490941790931c0291909117905561130c81614bf5565b90506112a4565b50600115157f65a4e7f60fb532141e4ec9c2b5ce7df825f11171cd5db5ebd989e2d76c9ebbc48383604051611349929190614d5a565b60405180910390a25050565b61135d6129b8565b611366816128a1565b6000848152600b60209081526040808320815160e08101835281548152600182015493810193909352600281015460f81b6001600160f81b031916918301919091526003810154606083015260048101546001600160a01b0390811660808401526005820154811660a08401526006909101541660c08201529080806113ef8489898985612ae1565b60808701519295509093509150611410906001600160a01b03168689612950565b604080518981526020810185905280820184905260608101839052905133917f0166457f01d39327f2e17a03785446f911cb623efb690062215baa46ec377ff8919081900360800190a25050505050505050565b60006002600054036114885760405162461bcd60e51b8152600401610c6f90614a8d565b60026000556114956129b8565b6001600160a01b03861673eeeeeeeeeeeeeeeeeeeeeeeeeeeeeeeeeeeeeeee146114d25760405163be5abbed60e01b815260040160405180910390fd5b6114db84612a64565b7f0000000000000000000000000000000000000000000000000000000000000000955060008061150e8888888888612f9e565b915091506115193390565b6001600160a01b03167f70ab125e1a2bb1b3f5e3e245ac6f4a8e3aafe9441e0354ddd116fff11a9d16de828a8a8887606001518860000151600161155d9190614be2565b89602001516040516115759796959493929190614da3565b60405180910390a26001600055979650505050505050565b60606002600054036115b15760405162461bcd60e51b8152600401610c6f90614a8d565b60026000556115be6129b8565b6000836001600160401b038111156115d8576115d8614778565b60405190808252806020026020018201604052801561161157816020015b6115fe6142c7565b8152602001906001900390816115f65790505b50905060005b84811015611a6657600086868381811061163357611633614ac4565b90506020028101906116459190614ada565b61164e90614de5565b6020810151606001519091506001600160a01b0316156116815760405163458eb24b60e01b815260040160405180910390fd5b602081015160c00151600116156116ab576040516323bc005f60e21b815260040160405180910390fd5b60208082015180519101516000806116c3848461330e565b915091506000806116d684600954613461565b9150915081600014806116f157506001600160f81b03198316155b1561170f5760405163ce5a1e5760e01b815260040160405180910390fd5b81876020015160800151146117375760405163e346d81d60e01b815260040160405180910390fd5b856001600160a01b031663095ea7b37f0000000000000000000000000000000000000000000000000000000000000000896020015160800151600161177c9190614be2565b6040516001600160e01b031960e085901b1681526001600160a01b03909216600483015260248201526044016020604051808303816000875af11580156117c7573d6000803e3d6000fd5b505050506040513d601f19601f820116820180604052508101906117eb9190614ef6565b50865160208801516040808a01519051623e012960e91b81526000936001600160a01b037f00000000000000000000000000000000000000000000000000000000000000001693637c0252009361184493600401614f63565b60408051808303816000875af1158015611862573d6000803e3d6000fd5b505050506040513d601f19601f82011682018060405250810190611886919061501c565b509050876020015160a001518110156118b257604051637f28d71160e01b815260040160405180910390fd5b6118bf8787878488613495565b6000806118ce84600a54613461565b915091506040518060e001604052808a6001600160a01b03168152602001896001600160a01b03168152602001868152602001848152602001838152602001828152602001876001600160f81b0319168152508c8c8151811061193357611933614ac4565b6020908102919091018101919091528a01515160085460405163a9059cbb60e01b81526001600160a01b0391821660048201526024810184905291169063a9059cbb906044016020604051808303816000875af1158015611998573d6000803e3d6000fd5b505050506040513d601f19601f820116820180604052508101906119bc9190614ef6565b508960200151600001516001600160a01b031663a9059cbb8f846040518363ffffffff1660e01b8152600401611a079291906001600160a01b03929092168252602082015260400190565b6020604051808303816000875af1158015611a26573d6000803e3d6000fd5b505050506040513d601f19601f82011682018060405250810190611a4a9190614ef6565b505050505050505050505080611a5f90614bf5565b9050611617565b506001600160a01b038316336001600160a01b03167f4b86826433ed056d87855d4a563118ae2f2f6954e600485015dae16fc42ac30e83600954604051611aae929190615040565b60405180910390a36001600055949350505050565b600260005403611ae55760405162461bcd60e51b8152600401610c6f90614a8d565b60026000556001600160a01b0381161580611b0757506001600160a01b038216155b15611b255760405163d92e233d60e01b815260040160405180910390fd5b6000838152600b60209081526040808320815160e08101835281548152600182015493810193909352600281015460f81b6001600160f81b031916918301919091526003810154606083015260048101546001600160a01b0390811660808401526005820154811660a08401526006909101541660c08201529080611baa8387612cc4565b90925090508115611bce576080830151611bce906001600160a01b03168584612950565b8015611bed5760a0830151611bed906001600160a01b03168683612950565b836001600160a01b0316856001600160a01b0316611c083390565b604080518a8152602081018690529081018690526001600160a01b0391909116907f2577f709b454c4d5c1118a01186dd48d4a6bacf43fe4c26aad2f66a51bf5290d9060600160405180910390a45050600160005550505050565b6005546001600160a01b03163314611c8e57604051635c427cd960e01b815260040160405180910390fd5b60005b81811015611ce757611cae8383838181106112c1576112c1614ac4565b6005805460ff60a81b1981169219600160a81b9182900460f890811b91909116901c02919091179055611ce081614bf5565b9050611c91565b50600015157f65a4e7f60fb532141e4ec9c2b5ce7df825f11171cd5db5ebd989e2d76c9ebbc48383604051611349929190614d5a565b6000600260005403611d415760405162461bcd60e51b8152600401610c6f90614a8d565b6002600055611d4e6129b8565b600080611d5e8989888888612f9e565b91509150611d6c898861373c565b611d816001600160a01b038a16333089613848565b336001600160a01b03167f70ab125e1a2bb1b3f5e3e245ac6f4a8e3aafe9441e0354ddd116fff11a9d16de828b8b88876060015188600001516001611dc69190614be2565b8960200151604051611dde9796959493929190614da3565b60405180910390a2600160005598975050505050505050565b6005546001600160a01b03163314611e2257604051635c427cd960e01b815260040160405180910390fd5b611274613880565b6005546001600160a01b03163314611e5557604051635c427cd960e01b815260040160405180910390fd5b611e61828260006138c3565b5050565b6005546001600160a01b03163314611e9057604051635c427cd960e01b815260040160405180910390fd5b6001600160a01b038116611eb75760405163d92e233d60e01b815260040160405180910390fd5b6005546040516001600160a01b038084169216907f3aaaebeb4821d6a7e5c77ece53cff0afcc56c82add2c978dbbb7f73e84cbcfd290600090a3600580546001600160a01b0319166001600160a01b0392909216919091179055565b611f8360405180610120016040528060006001600160a01b0316815260200160006001600160a01b0316815260200160006001600160a01b03168152602001600063ffffffff16815260200160008152602001600081526020016000815260200160008152602001600081525090565b6000828152600b60209081526040808320815160e08101835281548152600182015481850190815260028084015460f81b6001600160f81b031990811684870190815260038601546060860190815260048701546001600160a01b03908116608080890182815260058b0154841660a08b019081526006909b0154841660c08b01908152928e52968c528a8d208a5184168e528c528a8d2094519095168c52928a52998890205491518a168b5292518916978a0197909752935190961693870193909352935190850152516120649061205d908390613a06565b8351613a1e565b60a084015260208201516120789082613a1e565b60c08401526120878282613a38565b61010084015260408201516001600160f81b031916156120ca576120ae8260400151613a57565b63ffffffff1660608401526120c4848383613b67565b60e08401525b5050919050565b60606000826001600160401b038111156120ed576120ed614778565b604051908082528060200260200182016040528015612116578160200160208202803683370190505b50905060005b838110156121ad5761217e85858381811061213957612139614ac4565b61214f9260206040909202019081019150614335565b86868481811061216157612161614ac4565b90506040020160200160208101906121799190614335565b613c9a565b82828151811061219057612190614ac4565b6020908102919091010152806121a581614bf5565b91505061211c565b5090505b92915050565b6005546001600160a01b031633146121e257604051635c427cd960e01b815260040160405180910390fd5b600880546001600160a01b0319166001600160a01b0383169081179091556040519081527fa30c0bdcbba01e7448180ae5a7a206f585543fc1be92e825bce878586dd0770f90602001610f40565b6122386129b8565b6000848152600b6020908152604091829020825160e08101845281548152600182015492810192909252600281015460f81b6001600160f81b031916928201929092526003820154606082015260048201546001600160a01b03908116608083018190526005840154821660a0840181905260069094015490911660c083015290916122c49190612a05565b60008060006122d7848989896001612ae1565b9250925092506122eb84608001518661373c565b6114103360808601516001600160a01b031690308a613848565b6005546001600160a01b0316331461233057604051635c427cd960e01b815260040160405180910390fd5b611e61828260016138c3565b612345816128a1565b6000828152600b6020908152604091829020825160e08101845281548152600182015492810192909252600281015460f81b6001600160f81b031916928201929092526003820154606082015260048201546001600160a01b0390811660808301526005830154811660a08301819052600690930154811660c083015290917f000000000000000000000000000000000000000000000000000000000000000090911614612406576040516306220c1b60e41b815260040160405180910390fd5b600061241282856128cb565b9050806000036124355760405163906edb1f60e01b815260040160405180910390fd5b61243f8184612da3565b6040805185815273eeeeeeeeeeeeeeeeeeeeeeeeeeeeeeeeeeeeeeee60208201529081018290526001600160a01b0384169033907fcade65431cead780eb2b14b84a6594e1b235278a02e31abf3fc04c7c3e8ab4ee90606001610ae2565b6124a56129b8565b6124ae816128a1565b6000848152600b6020908152604091829020825160e08101845281548152600182015492810192909252600281015460f81b6001600160f81b031916928201929092526003820154606082015260048201546001600160a01b03908116608083018190526005840154821660a0840152600690930154811660c083015290917f00000000000000000000000000000000000000000000000000000000000000009091161461255b57600080fd5b600080600061256e848989896000612ae1565b9250925092506114108786612da3565b60606000826001600160401b0381111561259a5761259a614778565b6040519080825280602002602001820160405280156125c3578160200160208202803683370190505b50905060005b838110156121ad5760008585838181106125e5576125e5614ac4565b90506020028101906125f79190615062565b61260090615078565b80519091506001600160a01b031673eeeeeeeeeeeeeeeeeeeeeeeeeeeeeeeeeeeeeeee146126715761264e816000015182602001518360400151846060015185608001518660a00151611d1d565b83838151811061266057612660614ac4565b6020026020010181815250506126b1565b61269281600001518260200151836060015184608001518560a00151611464565b8383815181106126a4576126a4614ac4565b6020026020010181815250505b506126bb81614bf5565b90506125c9565b60606000826001600160401b038111156126de576126de614778565b60405190808252806020026020018201604052801561271757816020015b6127046142c7565b8152602001906001900390816126fc5790505b50905060005b838110156121ad57600085858381811061273957612739614ac4565b90506040020180360381019061274f9190615128565b90506000806127668360000151846020015161330e565b9150915060008061277984600954613461565b9150915060008061278c83600a54613461565b915091506040518060e0016040528088600001516001600160a01b0316815260200188602001516001600160a01b0316815260200185815260200160008152602001838152602001828152602001866001600160f81b0319168152508989815181106127fa576127fa614ac4565b6020026020010181905250505050505050508061281690614bf5565b905061271d565b6005546001600160a01b0316331461284857604051635c427cd960e01b815260040160405180910390fd5b620186a081111561286c576040516314bc5e9d60e21b815260040160405180910390fd5b600a8190556040518181527f468d69afb19b60d70ad54bfd594f20238cf3aecafe94fe0a61d46ce3f9c5a79590602001610f40565b6001600160a01b0381166128c85760405163d92e233d60e01b815260040160405180910390fd5b50565b60006128d683613e30565b60808301516001600160a01b03908116600090815260026020908152604080832060a08801519094168352928152828220838701516001600160f81b031916835290529081205490612929848684613b67565b6000948552600b6020908152604080872094909455600c9052918420939093559392505050565b6040516001600160a01b0383166024820152604481018290526129b390849063a9059cbb60e01b906064015b60408051601f198184030181529190526020810180516001600160e01b03166001600160e01b031990931692909217909152613e95565b505050565b600554600160a01b900460ff16156112745760405162461bcd60e51b815260206004820152601060248201526f14185d5cd8589b194e881c185d5cd95960821b6044820152606401610c6f565b6001600160a01b03821660009081526006602052604090205460ff161580612a4657506001600160a01b03811660009081526006602052604090205460ff16155b15611e61576040516306d022d560e51b815260040160405180910390fd5b80156128c8577f00000000000000000000000000000000000000000000000000000000000000006001600160a01b031663d0e30db0826040518263ffffffff1660e01b81526004016000604051808303818588803b158015612ac557600080fd5b505af1158015612ad9573d6000803e3d6000fd5b505050505050565b600080600085600003612b0757604051631f2a200560e01b815260040160405180910390fd5b84600003612b2857604051633c92196b60e11b815260040160405180910390fd5b612b3188613e30565b60808801516001600160a01b03908116600090815260026020908152604080832060a08d01519094168352928152828220838c01516001600160f81b031916835290529081205490612b838a83613a38565b9050600086612b9b57612b968983615186565b612ba5565b612ba58983614be2565b90506000612bb3828a613f67565b905081158015612bc35750600089115b15612bcd57600098505b6000612bd98a86614be2565b60008d8152600b6020526040902060038101849055600181018290558690559050612c058c8e87613b67565b60008d8152600c6020526040902055612c1e8d86613f73565b60008c8152600b6020908152604091829020825160e08101845281548152600182015492810192909252600281015460f81b6001600160f81b031916928201929092526003820154606082015260048201546001600160a01b0390811660808301526005830154811660a083015260069092015490911660c0820152612ca390614062565b81612caf866001614be2565b909e909d50909b509950505050505050505050565b600080612cd084613e30565b60808401516001600160a01b03908116600090815260026020908152604080832060a08901519094168352928152828220838801516001600160f81b031916835290522054612d20848683613b67565b9150612d2c8582613a38565b9250612d388582613f73565b506000928352600b602090815260408085208581556001810186905560028101805460ff19169055600381018690556004810180546001600160a01b031990811690915560058201805482169055600690910180549091169055600c90915283209290925592909150565b8115611e6157604051632e1a7d4d60e01b8152600481018390527f00000000000000000000000000000000000000000000000000000000000000006001600160a01b031690632e1a7d4d90602401600060405180830381600087803b158015612e0b57600080fd5b505af1158015612e1f573d6000803e3d6000fd5b50506040516001600160a01b038416925084156108fc02915084906000818181858888f193505050501580156129b3573d6000803e3d6000fd5b612e61614144565b6005805460ff60a01b191690557f5db9ee0a495bf2e6ff9c91a7834c1ba4fdd244a5e8aa4e537bd38aeae4b073aa335b6040516001600160a01b03909116815260200160405180910390a1565b60008163ffffffff16610e1003612eca5750600160f81b919050565b8163ffffffff1661384003612ee45750600160f91b919050565b8163ffffffff1661a8c003612efe5750600160fa1b919050565b8163ffffffff166201518003612f195750600160fb1b919050565b8163ffffffff166203f48003612f345750600160fc1b919050565b8163ffffffff1662093a8003612f4f5750600160fd1b919050565b8163ffffffff166212750003612f6a5750600160fe1b919050565b8163ffffffff1662278d0003612f855750600160ff1b919050565b6040516305fabb6160e41b815260040160405180910390fd5b6040805160e081018252600080825260208201819052918101829052606081018290526080810182905260a0810182905260c08101829052906001600160a01b0387161580612ff457506001600160a01b038616155b156130125760405163d92e233d60e01b815260040160405180910390fd5b856001600160a01b0316876001600160a01b0316036130445760405163c1ab6dc160e01b815260040160405180910390fd5b8460000361306557604051631f2a200560e01b815260040160405180910390fd5b8360000361308657604051633c92196b60e11b815260040160405180910390fd5b6130908787612a05565b600061309b84612eae565b600554909150600160a81b900460f81b81166001600160f81b0319166000036130d757604051638b52594f60e01b815260040160405180910390fd5b60006130e38787613f67565b90506000811161310657604051636a43f8d160e01b815260040160405180910390fd5b6000600d6000815461311790614bf5565b91829055506001600160a01b03808c166000908152600260209081526040808320938e1683529281528282206001600160f81b031988168352815282822054835160e0810190945280845293945090919081016131748b85614be2565b81526001600160f81b031987166020820152604081018690526001600160a01b03808f1660608301528d16608082015260a001336001600160a01b0316815250905084600160008e6001600160a01b03166001600160a01b0316815260200190815260200160002060008d6001600160a01b03166001600160a01b0316815260200190815260200160002060009054906101000a900460f81b166001600160f81b031916600060f81b0361325c576001600160a01b03808d166000908152600160209081526040808320938f16835292905220805460f881811b8817901c60ff199091161790555b61326581614062565b6000838152600b6020908152604091829020835181559083015160018201559082015160028201805460ff191660f89290921c9190911790556060820151600382015560808201516004820180546001600160a01b03199081166001600160a01b039384161790915560a0840151600584018054831691841691909117905560c084015160069093018054909116929091169190911790559b919a509098505050505050505050565b6001600160a01b038083166000908152600160209081526040808320938516835292905290812054819060f81b600160f81b5b6001600160f81b03198082169083161080159061336757506001600160f81b0319811615155b1561344b576001600160f81b0319828216161561343d576001600160a01b038087166000908152600260208181526040808420948a1684529381528383206001600160f81b031986168452815283832084516060810186528154815260018201549281019290925290910154928101929092526133e383613a57565b9050428163ffffffff168263ffffffff1684604001516134039190615199565b61340e906001614be2565b61341891906151bb565b111561342557505061344b565b6020820151948317946134389087614be2565b955050505b60011b607f60f91b16613341565b8360000361345857600092505b50509250929050565b60008080620186a061347385876151bb565b61347d9190615199565b90506134898186615186565b925090505b9250929050565b6001600160a01b0385166000908152600760205260408120546134bb9085908590614194565b9050600160f81b5b6001600160f81b0319808216908416108015906134e957506001600160f81b0319811615155b15613733576001600160f81b03198382161615613725576001600160a01b038088166000908152600260208181526040808420948b1684529381528383206001600160f81b031986168452815291839020835160608101855281548152600182015493810184905291015492810192909252156136e8576001600160a01b038089166000908152600460209081526040808320938b1683529281528282206001600160f81b031986168352815282822084518352905220546135ac908490614be2565b6001600160a01b03808a166000908152600460209081526040808320938c1683529281528282206001600160f81b031987168352905290812083519091906135f5906001614be2565b8152602001908152602001600020819055506040518060600160405280826000015160016136239190614be2565b81526001600160a01b03808b166000908152600360209081526040808320938d1683529281528282206001600160f81b03198816835281529181208551929093019291613671906002614be2565b815260200190815260200160002054836020015161368f9190615186565b8152426020918201526001600160a01b03808b16600090815260028084526040808320938d1683529284528282206001600160f81b03198816835284529082902084518155928401516001840155920151910155613723565b6001600160a01b038089166000908152600160209081526040808320938b16835292905220805460f881811b851916901c60ff199091161790555b505b60011b607f60f91b166134c3565b50505050505050565b805115611e615760006060825160e0036137dc576040516001600160a01b038516906137759063d505accf60e01b9086906020016151da565b60408051601f198184030181529082905261378f9161520b565b6000604051808303816000865af19150503d80600081146137cc576040519150601f19603f3d011682016040523d82523d6000602084013e6137d1565b606091505b509092509050613824565b82516101000361380b576040516001600160a01b03851690613775906323f2ebc360e21b9086906020016151da565b604051632091924d60e21b815260040160405180910390fd5b816138425760405163ddafbaef60e01b815260040160405180910390fd5b50505050565b6040516001600160a01b03808516602483015283166044820152606481018290526138429085906323b872dd60e01b9060840161297c565b6138886129b8565b6005805460ff60a01b1916600160a01b1790557f62e78cea01bee320cd4e420270b5ea74000d11b0c9f74754ebdbfc544b05a258612e913390565b60005b828110156139c65760008484838181106138e2576138e2614ac4565b90506020020160208101906138f79190614335565b6001600160a01b0381166000908152600660209081526040808320805460ff19168815151790556007909152812054919250036139b557806001600160a01b031663313ce5676040518163ffffffff1660e01b8152600401602060405180830381865afa15801561396c573d6000803e3d6000fd5b505050506040513d601f19601f82011682018060405250810190613990919061521d565b61399b90600a615324565b6001600160a01b0382166000908152600760205260409020555b506139bf81614bf5565b90506138c6565b507e1dd6a7b0d00d27a56bc1c8d5323149a4796ae344fc670955d0df1f467cb8bb8383836040516139f993929190615333565b60405180910390a1505050565b6000818310613a155781613a17565b825b9392505050565b6000818311613a2e576000613a17565b613a178284615186565b60008260600151613a4d846020015184613a1e565b613a1791906151bb565b60006001600160f81b03198216600160f81b03613a775750610e10919050565b6001600160f81b03198216600160f91b03613a955750613840919050565b6001600160f81b03198216600160fa1b03613ab3575061a8c0919050565b6001600160f81b03198216600160fb1b03613ad2575062015180919050565b6001600160f81b03198216600160fc1b03613af157506203f480919050565b6001600160f81b03198216600160fd1b03613b10575062093a80919050565b6001600160f81b03198216600160fe1b03613b2f575062127500919050565b6001600160f81b03198216600160ff1b03613b4e575062278d00919050565b60405163bf3cad0b60e01b815260040160405180910390fd5b600080613b78838560200151613a06565b90508084600001511115613b90576000915050613a17565b8351819003613baf5750506000838152600c6020526040902054613a17565b6080840180516001600160a01b03908116600090815260046020818152604080842060a08b01805187168652908352818520828c0180516001600160f81b031990811688529185528387208d518852855283872054985188168752948452828620915190961685528252808420925190941683529081528282208583529052908120549091613c3d91615186565b6000878152600c602090815260408083205460808a01516001600160a01b0316845260079092529091205460608801519293509091613c7c90846151bb565b613c869190615199565b613c909190614be2565b9695505050505050565b6001600160a01b03808316600090815260016020908152604080832093851683529290529081205460f81b600160f81b825b6001600160f81b031980831690841610801590613cf257506001600160f81b0319821615155b15613e2357816001600160f81b0319168284166001600160f81b03191603613e0d576001600160a01b038087166000908152600260208181526040808420948a1684529381528383206001600160f81b03198716845281528383208451606081018652815481526001820154928101929092529091015492810192909252613d7984613a57565b905060008163ffffffff168263ffffffff168460400151613d9a9190615199565b613da5906001614be2565b613daf91906151bb565b602084015190915015613de857428111613dd1578396505050505050506121b1565b613ddb4282615186565b96505050505050506121b1565b42811115613e09578315613dfc5783613e06565b613e064282615186565b93505b5050505b6001826001600160f81b031916901b9150613ccc565b5060001995945050505050565b60408101516001600160f81b031916600003613e5f5760405163673f032f60e11b815260040160405180910390fd5b60c08101516001600160a01b0316336001600160a01b0316146128c857604051635c427cd960e01b815260040160405180910390fd5b6000613eea826040518060400160405280602081526020017f5361666545524332303a206c6f772d6c6576656c2063616c6c206661696c6564815250856001600160a01b03166141b39092919063ffffffff16565b8051909150156129b35780806020019051810190613f089190614ef6565b6129b35760405162461bcd60e51b815260206004820152602a60248201527f5361666545524332303a204552433230206f7065726174696f6e20646964206e6044820152691bdd081cdd58d8d9595960b21b6064820152608401610c6f565b6000613a178284615199565b8082602001511115611e6157606082015160808301516001600160a01b03908116600090815260026020908152604080832060a08801519094168352928152828220838701516001600160f81b031916835290529081206001018054909190613fdd908490615186565b9091555050606082015160808301516001600160a01b03908116600090815260036020908152604080832060a08801519094168352928152828220838701516001600160f81b031916835281529181209185015161403c906001614be2565b815260200190815260200160002060008282546140599190615186565b90915550505050565b606081015160808201516001600160a01b03908116600090815260026020908152604080832060a08701519094168352928152828220838601516001600160f81b0319168352905290812060010180549091906140c0908490614be2565b9091555050606081015160808201516001600160a01b03908116600090815260036020908152604080832060a08701519094168352928152828220838601516001600160f81b031916835281529181209184015161411f906001614be2565b8152602001908152602001600020600082825461413c9190614be2565b909155505050565b600554600160a01b900460ff166112745760405162461bcd60e51b815260206004820152601460248201527314185d5cd8589b194e881b9bdd081c185d5cd95960621b6044820152606401610c6f565b6000836141a183856151bb565b6141ab9190615199565b949350505050565b60606141ab8484600085856001600160a01b0385163b6142155760405162461bcd60e51b815260206004820152601d60248201527f416464726573733a2063616c6c20746f206e6f6e2d636f6e74726163740000006044820152606401610c6f565b600080866001600160a01b03168587604051614231919061520b565b60006040518083038185875af1925050503d806000811461426e576040519150601f19603f3d011682016040523d82523d6000602084013e614273565b606091505b509150915061428382828661428e565b979650505050505050565b6060831561429d575081613a17565b8251156142ad5782518084602001fd5b8160405162461bcd60e51b8152600401610c6f919061538c565b6040518060e0016040528060006001600160a01b0316815260200160006001600160a01b031681526020016000815260200160008152602001600081526020016000815260200160006001600160f81b03191681525090565b6001600160a01b03811681146128c857600080fd5b60006020828403121561434757600080fd5b8135613a1781614320565b6000806040838503121561436557600080fd5b82359150602083013561437781614320565b809150509250929050565b60008060006060848603121561439757600080fd5b505081359360208301359350604090920135919050565b6000602082840312156143c057600080fd5b5035919050565b80356143d281614320565b919050565b80151581146128c857600080fd5b80356143d2816143d7565b6000806000806080858703121561440657600080fd5b84359350602085013561441881614320565b9250604085013561442881614320565b91506060850135614438816143d7565b939692955090935050565b60008083601f84011261445557600080fd5b5081356001600160401b0381111561446c57600080fd5b6020830191508360208260051b850101111561348e57600080fd5b60008060006040848603121561449c57600080fd5b83356001600160401b038111156144b257600080fd5b6144be86828701614443565b90945092505060208401356144d281614320565b809150509250925092565b600080602083850312156144f057600080fd5b82356001600160401b0381111561450657600080fd5b61451285828601614443565b90969095509350505050565b6000806000806080858703121561453457600080fd5b843593506020850135925060408501359150606085013561443881614320565b80356001600160f81b0319811681146143d257600080fd5b6000806000806080858703121561458257600080fd5b843561458d81614320565b9350602085013561459d81614320565b92506145ab60408601614554565b9396929550929360600135925050565b600080604083850312156145ce57600080fd5b82356145d981614320565b9150602083013561437781614320565b803563ffffffff811681146143d257600080fd5b600080600080600060a0868803121561461557600080fd5b853561462081614320565b9450602086013561463081614320565b9350604086013592506060860135915061464c608087016145e9565b90509295509295909350565b600081518084526020808501945080840160005b838110156146dc57815180516001600160a01b03908116895284820151168489015260408082015190890152606080820151908901526080808201519089015260a0808201519089015260c0908101516001600160f81b0319169088015260e0909601959082019060010161466c565b509495945050505050565b602081526000613a176020830184614658565b60008060006060848603121561470f57600080fd5b83359250602084013561472181614320565b915060408401356144d281614320565b60008060006060848603121561474657600080fd5b833561475181614320565b9250602084013561476181614320565b915061476f60408501614554565b90509250925092565b634e487b7160e01b600052604160045260246000fd5b604051606081016001600160401b03811182821017156147b0576147b0614778565b60405290565b60405161010081016001600160401b03811182821017156147b0576147b0614778565b604051601f8201601f191681016001600160401b038111828210171561480157614801614778565b604052919050565b600082601f83011261481a57600080fd5b81356001600160401b0381111561483357614833614778565b614846601f8201601f19166020016147d9565b81815284602083860101111561485b57600080fd5b816020850160208301376000918101602001919091529392505050565b60008060008060008060c0878903121561489157600080fd5b863561489c81614320565b955060208701356148ac81614320565b945060408701356001600160401b038111156148c757600080fd5b6148d389828a01614809565b94505060608701359250608087013591506148f060a088016145e9565b90509295509295509295565b81516001600160a01b03908116825260208084015182169083015260408084015191821690830152610120820190506060830151614942606084018263ffffffff169052565b506080830151608083015260a083015160a083015260c083015160c083015260e083015160e083015261010080840151818401525092915050565b6000806020838503121561499057600080fd5b82356001600160401b03808211156149a757600080fd5b818501915085601f8301126149bb57600080fd5b8135818111156149ca57600080fd5b8660208260061b85010111156149df57600080fd5b60209290920196919550909350505050565b600081518084526020808501945080840160005b838110156146dc57815187529582019590820190600101614a05565b602081526000613a1760208301846149f1565b60008060008060808587031215614a4a57600080fd5b84359350602085013592506040850135915060608501356001600160401b03811115614a7557600080fd5b614a8187828801614809565b91505092959194509250565b6020808252601f908201527f5265656e7472616e637947756172643a207265656e7472616e742063616c6c00604082015260600190565b634e487b7160e01b600052603260045260246000fd5b60008235605e19833603018112614af057600080fd5b9190910192915050565b600060608236031215614b0c57600080fd5b614b1461478e565b8235614b1f81614320565b81526020838101356001600160401b0380821115614b3c57600080fd5b9085019036601f830112614b4f57600080fd5b813581811115614b6157614b61614778565b8060051b9150614b728483016147d9565b8181529183018401918481019036841115614b8c57600080fd5b938501935b83851015614baa57843582529385019390850190614b91565b8086880152505050505050614bc1604084016143e5565b604082015292915050565b634e487b7160e01b600052601160045260246000fd5b808201808211156121b1576121b1614bcc565b600060018201614c0757614c07614bcc565b5060010190565b81835260006001600160fb1b03831115614c2757600080fd5b8260051b80836020870137939093016020019392505050565b60408082528181018490526000906060808401600587811b8601830189865b8a811015614d1d57888303605f190185528135368d9003605e19018112614c8557600080fd5b8c018035614c9281614320565b6001600160a01b0316845260208181013536839003601e19018112614cb657600080fd5b820181810190356001600160401b03811115614cd157600080fd5b80881b3603821315614ce257600080fd5b8983880152614cf48a88018284614c0e565b915050614d028a84016143e5565b1515958a019590955295860195929092019150600101614c5f565b50508681036020880152614d3181896149f1565b9a9950505050505050505050565b600060208284031215614d5157600080fd5b613a17826145e9565b60208082528181018390526000908460408401835b86811015614d985763ffffffff614d85846145e9565b1682529183019190830190600101614d6f565b509695505050505050565b9687526001600160a01b03958616602088015293909416604086015263ffffffff919091166060850152608084015260a083019190915260c082015260e00190565b600060608236031215614df757600080fd5b614dff61478e565b8235614e0a81614320565b815260208301356001600160401b0380821115614e2657600080fd5b81850191506101008236031215614e3c57600080fd5b614e446147b6565b614e4d836143c7565b8152614e5b602084016143c7565b6020820152614e6c604084016143c7565b6040820152614e7d606084016143c7565b60608201526080830135608082015260a083013560a082015260c083013560c082015260e083013582811115614eb257600080fd5b614ebe36828601614809565b60e08301525060208401526040850135915080821115614edd57600080fd5b50614eea36828601614809565b60408301525092915050565b600060208284031215614f0857600080fd5b8151613a17816143d7565b60005b83811015614f2e578181015183820152602001614f16565b50506000910152565b60008151808452614f4f816020860160208601614f13565b601f01601f19169290920160200192915050565b6001600160a01b03848116825260606020808401829052855190921690830152830151600090614f9e60808401826001600160a01b03169052565b5060408401516001600160a01b03811660a08401525060608401516001600160a01b03811660c084015250608084015160e083015260a0840151610100818185015260c086015161012085015260e086015191508061014085015250615008610160840182614f37565b90508281036040840152613c908185614f37565b6000806040838503121561502f57600080fd5b505080516020909101519092909150565b6040815260006150536040830185614658565b90508260208301529392505050565b6000823560be19833603018112614af057600080fd5b600060c0823603121561508a57600080fd5b60405160c081016001600160401b0382821081831117156150ad576150ad614778565b81604052843591506150be82614320565b9082526020840135906150d082614320565b81602084015260408501359150808211156150ea57600080fd5b506150f736828601614809565b604083015250606083013560608201526080830135608082015261511d60a084016145e9565b60a082015292915050565b60006040828403121561513a57600080fd5b604051604081018181106001600160401b038211171561515c5761515c614778565b604052823561516a81614320565b8152602083013561517a81614320565b60208201529392505050565b818103818111156121b1576121b1614bcc565b6000826151b657634e487b7160e01b600052601260045260246000fd5b500490565b60008160001904831182151516156151d5576151d5614bcc565b500290565b6001600160e01b03198316815281516000906151fd816004850160208701614f13565b919091016004019392505050565b60008251614af0818460208701614f13565b60006020828403121561522f57600080fd5b815160ff81168114613a1757600080fd5b600181815b8085111561527b57816000190482111561526157615261614bcc565b8085161561526e57918102915b93841c9390800290615245565b509250929050565b600082615292575060016121b1565b8161529f575060006121b1565b81600181146152b557600281146152bf576152db565b60019150506121b1565b60ff8411156152d0576152d0614bcc565b50506001821b6121b1565b5060208310610133831016604e8410600b84101617156152fe575081810a6121b1565b6153088383615240565b806000190482111561531c5761531c614bcc565b029392505050565b6000613a1760ff841683615283565b6040808252810183905260008460608301825b8681101561537657823561535981614320565b6001600160a01b0316825260209283019290910190600101615346565b5080925050508215156020830152949350505050565b602081526000613a176020830184614f3756fea264697066735822122099e44b4a5ca4587d8b0ae0b6309d82b4c2f1a566e70535a6be6084910feb130c64736f6c63430008100033",
  "linkReferences": {},
  "deployedLinkReferences": {}
}