{
    "_format": "hh-sol-artifact-1",
    "contractName": "DZapDCA",
    "sourceName": "contracts/core/DZapDCA.sol",
    "abi": [
        {
            "inputs": [
                {
                    "internalType": "address",
                    "name": "governor_",
                    "type": "address"
                },
                {
                    "internalType": "address",
                    "name": "wNative_",
                    "type": "address"
                },
                {
                    "internalType": "address",
                    "name": "oneInchRouter_",
                    "type": "address"
                },
                {
                    "internalType": "address",
                    "name": "oracle_",
                    "type": "address"
                },
                {
                    "internalType": "address",
                    "name": "feeVault_",
                    "type": "address"
                },
                {
                    "internalType": "uint256",
                    "name": "slippage_",
                    "type": "uint256"
                }
            ],
            "stateMutability": "nonpayable",
            "type": "constructor"
        },
        {
            "inputs": [],
            "name": "InvalidInterval",
            "type": "error"
        },
        {
            "inputs": [],
            "name": "InvalidMask",
            "type": "error"
        },
        {
            "anonymous": false,
            "inputs": [
                {
                    "indexed": false,
                    "internalType": "address[]",
                    "name": "accounts",
                    "type": "address[]"
                }
            ],
            "name": "AdminAdded",
            "type": "event"
        },
        {
            "anonymous": false,
            "inputs": [
                {
                    "indexed": false,
                    "internalType": "address[]",
                    "name": "accounts",
                    "type": "address[]"
                }
            ],
            "name": "AdminRemoved",
            "type": "event"
        },
        {
            "anonymous": false,
            "inputs": [
                {
                    "indexed": true,
                    "internalType": "address",
                    "name": "owner",
                    "type": "address"
                },
                {
                    "indexed": false,
                    "internalType": "uint256",
                    "name": "positionId",
                    "type": "uint256"
                },
                {
                    "indexed": false,
                    "internalType": "address",
                    "name": "fromToken",
                    "type": "address"
                },
                {
                    "indexed": false,
                    "internalType": "address",
                    "name": "toToken",
                    "type": "address"
                },
                {
                    "indexed": false,
                    "internalType": "uint256",
                    "name": "swapInterval",
                    "type": "uint256"
                },
                {
                    "indexed": false,
                    "internalType": "uint256",
                    "name": "rate",
                    "type": "uint256"
                },
                {
                    "indexed": false,
                    "internalType": "uint256",
                    "name": "startingSwap",
                    "type": "uint256"
                },
                {
                    "indexed": false,
                    "internalType": "uint256",
                    "name": "finalSwap",
                    "type": "uint256"
                }
            ],
            "name": "Created",
            "type": "event"
        },
        {
            "anonymous": false,
            "inputs": [
                {
                    "indexed": false,
                    "internalType": "address",
                    "name": "feeVault",
                    "type": "address"
                }
            ],
            "name": "FeeVaultUpdated",
            "type": "event"
        },
        {
            "anonymous": false,
            "inputs": [
                {
                    "indexed": true,
                    "internalType": "address",
                    "name": "formerGov",
                    "type": "address"
                },
                {
                    "indexed": true,
                    "internalType": "address",
                    "name": "newGov",
                    "type": "address"
                }
            ],
            "name": "GovernanceChanged",
            "type": "event"
        },
        {
            "anonymous": false,
            "inputs": [
                {
                    "indexed": true,
                    "internalType": "address",
                    "name": "user",
                    "type": "address"
                },
                {
                    "indexed": false,
                    "internalType": "uint256",
                    "name": "positionId",
                    "type": "uint256"
                },
                {
                    "indexed": false,
                    "internalType": "uint256",
                    "name": "rate",
                    "type": "uint256"
                },
                {
                    "indexed": false,
                    "internalType": "uint256",
                    "name": "startingSwap",
                    "type": "uint256"
                },
                {
                    "indexed": false,
                    "internalType": "uint256",
                    "name": "finalSwap",
                    "type": "uint256"
                },
                {
                    "indexed": false,
                    "internalType": "bool",
                    "name": "flag",
                    "type": "bool"
                },
                {
                    "indexed": false,
                    "internalType": "bool",
                    "name": "nativeFlag",
                    "type": "bool"
                }
            ],
            "name": "Modified",
            "type": "event"
        },
        {
            "anonymous": false,
            "inputs": [
                {
                    "indexed": false,
                    "internalType": "address",
                    "name": "oracle",
                    "type": "address"
                }
            ],
            "name": "OracleUpdated",
            "type": "event"
        },
        {
            "anonymous": false,
            "inputs": [
                {
                    "indexed": false,
                    "internalType": "address",
                    "name": "account",
                    "type": "address"
                }
            ],
            "name": "Paused",
            "type": "event"
        },
        {
            "anonymous": false,
            "inputs": [
                {
                    "indexed": false,
                    "internalType": "uint256",
                    "name": "platformFeeRatio",
                    "type": "uint256"
                }
            ],
            "name": "PlatformFeeRatioUpdated",
            "type": "event"
        },
        {
            "anonymous": false,
            "inputs": [
                {
                    "indexed": false,
                    "internalType": "uint256",
                    "name": "slippage",
                    "type": "uint256"
                }
            ],
            "name": "SlippageUpdated",
            "type": "event"
        },
        {
            "anonymous": false,
            "inputs": [
                {
                    "indexed": false,
                    "internalType": "uint256",
                    "name": "feeSet",
                    "type": "uint256"
                }
            ],
            "name": "SwapFeeUpdated",
            "type": "event"
        },
        {
            "anonymous": false,
            "inputs": [
                {
                    "indexed": false,
                    "internalType": "uint32[]",
                    "name": "_swapIntervals",
                    "type": "uint32[]"
                },
                {
                    "indexed": true,
                    "internalType": "bool",
                    "name": "allowed",
                    "type": "bool"
                }
            ],
            "name": "SwapIntervalsUpdated",
            "type": "event"
        },
        {
            "anonymous": false,
            "inputs": [
                {
                    "indexed": true,
                    "internalType": "address",
                    "name": "sender",
                    "type": "address"
                },
                {
                    "indexed": true,
                    "internalType": "address",
                    "name": "rewardRecipient",
                    "type": "address"
                },
                {
                    "components": [
                        {
                            "internalType": "address",
                            "name": "fromToken",
                            "type": "address"
                        },
                        {
                            "internalType": "address",
                            "name": "toToken",
                            "type": "address"
                        },
                        {
                            "internalType": "uint256",
                            "name": "swappedAmount",
                            "type": "uint256"
                        },
                        {
                            "internalType": "uint256",
                            "name": "receivedAmount",
                            "type": "uint256"
                        },
                        {
                            "internalType": "uint256",
                            "name": "reward",
                            "type": "uint256"
                        },
                        {
                            "internalType": "uint256",
                            "name": "platformFee",
                            "type": "uint256"
                        },
                        {
                            "internalType": "bytes1",
                            "name": "intervalsInSwap",
                            "type": "bytes1"
                        }
                    ],
                    "indexed": false,
                    "internalType": "struct SwapInfo[]",
                    "name": "swapInformation",
                    "type": "tuple[]"
                },
                {
                    "indexed": false,
                    "internalType": "uint256",
                    "name": "swapFee",
                    "type": "uint256"
                }
            ],
            "name": "Swapped",
            "type": "event"
        },
        {
            "anonymous": false,
            "inputs": [
                {
                    "indexed": true,
                    "internalType": "address",
                    "name": "user",
                    "type": "address"
                },
                {
                    "indexed": true,
                    "internalType": "address",
                    "name": "recipientSwapped",
                    "type": "address"
                },
                {
                    "indexed": true,
                    "internalType": "address",
                    "name": "recipientUnswapped",
                    "type": "address"
                },
                {
                    "indexed": false,
                    "internalType": "uint256",
                    "name": "positionId",
                    "type": "uint256"
                },
                {
                    "indexed": false,
                    "internalType": "uint256",
                    "name": "returnedSwapped",
                    "type": "uint256"
                },
                {
                    "indexed": false,
                    "internalType": "uint256",
                    "name": "returnedUnswapped",
                    "type": "uint256"
                },
                {
                    "indexed": false,
                    "internalType": "bool",
                    "name": "nativeFlag",
                    "type": "bool"
                }
            ],
            "name": "Terminated",
            "type": "event"
        },
        {
            "anonymous": false,
            "inputs": [
                {
                    "indexed": false,
                    "internalType": "address[]",
                    "name": "tokens",
                    "type": "address[]"
                },
                {
                    "indexed": false,
                    "internalType": "bool",
                    "name": "allowed",
                    "type": "bool"
                }
            ],
            "name": "TokensAllowedUpdated",
            "type": "event"
        },
        {
            "anonymous": false,
            "inputs": [
                {
                    "indexed": true,
                    "internalType": "address",
                    "name": "to",
                    "type": "address"
                },
                {
                    "indexed": true,
                    "internalType": "address",
                    "name": "token",
                    "type": "address"
                },
                {
                    "indexed": false,
                    "internalType": "uint256",
                    "name": "amount",
                    "type": "uint256"
                }
            ],
            "name": "TokensRescued",
            "type": "event"
        },
        {
            "anonymous": false,
            "inputs": [
                {
                    "indexed": false,
                    "internalType": "address",
                    "name": "account",
                    "type": "address"
                }
            ],
            "name": "Unpaused",
            "type": "event"
        },
        {
            "anonymous": false,
            "inputs": [
                {
                    "indexed": true,
                    "internalType": "address",
                    "name": "withdrawer",
                    "type": "address"
                },
                {
                    "indexed": true,
                    "internalType": "address",
                    "name": "recipient",
                    "type": "address"
                },
                {
                    "indexed": false,
                    "internalType": "uint256",
                    "name": "positionId",
                    "type": "uint256"
                },
                {
                    "indexed": false,
                    "internalType": "uint256",
                    "name": "amount",
                    "type": "uint256"
                },
                {
                    "indexed": false,
                    "internalType": "bool",
                    "name": "nativeFlag",
                    "type": "bool"
                }
            ],
            "name": "Withdrew",
            "type": "event"
        },
        {
            "inputs": [],
            "name": "BPS_DENOMINATOR",
            "outputs": [
                {
                    "internalType": "uint256",
                    "name": "",
                    "type": "uint256"
                }
            ],
            "stateMutability": "view",
            "type": "function"
        },
        {
            "inputs": [],
            "name": "MAX_FEE",
            "outputs": [
                {
                    "internalType": "uint256",
                    "name": "",
                    "type": "uint256"
                }
            ],
            "stateMutability": "view",
            "type": "function"
        },
        {
            "inputs": [],
            "name": "MAX_PLATFORM_FEE_RATIO",
            "outputs": [
                {
                    "internalType": "uint256",
                    "name": "",
                    "type": "uint256"
                }
            ],
            "stateMutability": "view",
            "type": "function"
        },
        {
            "inputs": [],
            "name": "MAX_SLIPPAGE",
            "outputs": [
                {
                    "internalType": "uint256",
                    "name": "",
                    "type": "uint256"
                }
            ],
            "stateMutability": "view",
            "type": "function"
        },
        {
            "inputs": [],
            "name": "NATIVE_TOKEN",
            "outputs": [
                {
                    "internalType": "address",
                    "name": "",
                    "type": "address"
                }
            ],
            "stateMutability": "view",
            "type": "function"
        },
        {
            "inputs": [],
            "name": "ONE_INCH_ROUTER",
            "outputs": [
                {
                    "internalType": "address",
                    "name": "",
                    "type": "address"
                }
            ],
            "stateMutability": "view",
            "type": "function"
        },
        {
            "inputs": [
                {
                    "internalType": "address",
                    "name": "",
                    "type": "address"
                },
                {
                    "internalType": "address",
                    "name": "",
                    "type": "address"
                },
                {
                    "internalType": "bytes1",
                    "name": "",
                    "type": "bytes1"
                },
                {
                    "internalType": "uint256",
                    "name": "",
                    "type": "uint256"
                }
            ],
            "name": "accumRatio",
            "outputs": [
                {
                    "internalType": "uint256",
                    "name": "",
                    "type": "uint256"
                }
            ],
            "stateMutability": "view",
            "type": "function"
        },
        {
            "inputs": [
                {
                    "internalType": "address",
                    "name": "",
                    "type": "address"
                },
                {
                    "internalType": "address",
                    "name": "",
                    "type": "address"
                }
            ],
            "name": "activeSwapIntervals",
            "outputs": [
                {
                    "internalType": "bytes1",
                    "name": "",
                    "type": "bytes1"
                }
            ],
            "stateMutability": "view",
            "type": "function"
        },
        {
            "inputs": [
                {
                    "internalType": "address[]",
                    "name": "accounts_",
                    "type": "address[]"
                }
            ],
            "name": "addAdmins",
            "outputs": [],
            "stateMutability": "nonpayable",
            "type": "function"
        },
        {
            "inputs": [
                {
                    "internalType": "address[]",
                    "name": "tokens_",
                    "type": "address[]"
                }
            ],
            "name": "addAllowedTokens",
            "outputs": [],
            "stateMutability": "nonpayable",
            "type": "function"
        },
        {
            "inputs": [
                {
                    "internalType": "uint32[]",
                    "name": "swapIntervals_",
                    "type": "uint32[]"
                }
            ],
            "name": "addSwapIntervalsToAllowedList",
            "outputs": [],
            "stateMutability": "nonpayable",
            "type": "function"
        },
        {
            "inputs": [
                {
                    "internalType": "address",
                    "name": "",
                    "type": "address"
                }
            ],
            "name": "admins",
            "outputs": [
                {
                    "internalType": "bool",
                    "name": "",
                    "type": "bool"
                }
            ],
            "stateMutability": "view",
            "type": "function"
        },
        {
            "inputs": [],
            "name": "allowedSwapIntervals",
            "outputs": [
                {
                    "internalType": "bytes1",
                    "name": "",
                    "type": "bytes1"
                }
            ],
            "stateMutability": "view",
            "type": "function"
        },
        {
            "inputs": [
                {
                    "internalType": "address",
                    "name": "",
                    "type": "address"
                }
            ],
            "name": "allowedTokens",
            "outputs": [
                {
                    "internalType": "bool",
                    "name": "",
                    "type": "bool"
                }
            ],
            "stateMutability": "view",
            "type": "function"
        },
        {
            "inputs": [
                {
                    "internalType": "address",
                    "name": "newGov",
                    "type": "address"
                }
            ],
            "name": "changeGovernance",
            "outputs": [],
            "stateMutability": "nonpayable",
            "type": "function"
        },
        {
            "inputs": [
                {
                    "internalType": "address",
                    "name": "from_",
                    "type": "address"
                },
                {
                    "internalType": "address",
                    "name": "to_",
                    "type": "address"
                },
                {
                    "internalType": "bytes",
                    "name": "permit_",
                    "type": "bytes"
                },
                {
                    "internalType": "uint256",
                    "name": "amount_",
                    "type": "uint256"
                },
                {
                    "internalType": "uint256",
                    "name": "noOfSwaps_",
                    "type": "uint256"
                },
                {
                    "internalType": "uint32",
                    "name": "swapInterval_",
                    "type": "uint32"
                }
            ],
            "name": "createPosition",
            "outputs": [
                {
                    "internalType": "uint256",
                    "name": "",
                    "type": "uint256"
                }
            ],
            "stateMutability": "payable",
            "type": "function"
        },
        {
            "inputs": [],
            "name": "feeVault",
            "outputs": [
                {
                    "internalType": "address",
                    "name": "",
                    "type": "address"
                }
            ],
            "stateMutability": "view",
            "type": "function"
        },
        {
            "inputs": [
                {
                    "components": [
                        {
                            "internalType": "address",
                            "name": "from",
                            "type": "address"
                        },
                        {
                            "internalType": "address",
                            "name": "to",
                            "type": "address"
                        }
                    ],
                    "internalType": "struct Pair[]",
                    "name": "pairs_",
                    "type": "tuple[]"
                }
            ],
            "name": "getNextSwapInfo",
            "outputs": [
                {
                    "components": [
                        {
                            "internalType": "address",
                            "name": "fromToken",
                            "type": "address"
                        },
                        {
                            "internalType": "address",
                            "name": "toToken",
                            "type": "address"
                        },
                        {
                            "internalType": "uint256",
                            "name": "swappedAmount",
                            "type": "uint256"
                        },
                        {
                            "internalType": "uint256",
                            "name": "receivedAmount",
                            "type": "uint256"
                        },
                        {
                            "internalType": "uint256",
                            "name": "reward",
                            "type": "uint256"
                        },
                        {
                            "internalType": "uint256",
                            "name": "platformFee",
                            "type": "uint256"
                        },
                        {
                            "internalType": "bytes1",
                            "name": "intervalsInSwap",
                            "type": "bytes1"
                        }
                    ],
                    "internalType": "struct SwapInfo[]",
                    "name": "",
                    "type": "tuple[]"
                }
            ],
            "stateMutability": "view",
            "type": "function"
        },
        {
            "inputs": [
                {
                    "internalType": "uint256",
                    "name": "positionId_",
                    "type": "uint256"
                }
            ],
            "name": "getPositionDetails",
            "outputs": [
                {
                    "components": [
                        {
                            "internalType": "address",
                            "name": "owner",
                            "type": "address"
                        },
                        {
                            "internalType": "address",
                            "name": "from",
                            "type": "address"
                        },
                        {
                            "internalType": "address",
                            "name": "to",
                            "type": "address"
                        },
                        {
                            "internalType": "uint32",
                            "name": "swapInterval",
                            "type": "uint32"
                        },
                        {
                            "internalType": "uint256",
                            "name": "rate",
                            "type": "uint256"
                        },
                        {
                            "internalType": "uint256",
                            "name": "swapsExecuted",
                            "type": "uint256"
                        },
                        {
                            "internalType": "uint256",
                            "name": "swapsLeft",
                            "type": "uint256"
                        },
                        {
                            "internalType": "uint256",
                            "name": "swapped",
                            "type": "uint256"
                        },
                        {
                            "internalType": "uint256",
                            "name": "unswapped",
                            "type": "uint256"
                        }
                    ],
                    "internalType": "struct PositionInfo",
                    "name": "positionInfo",
                    "type": "tuple"
                }
            ],
            "stateMutability": "view",
            "type": "function"
        },
        {
            "inputs": [
                {
                    "internalType": "address",
                    "name": "tokenIn_",
                    "type": "address"
                },
                {
                    "internalType": "uint256",
                    "name": "amountIn_",
                    "type": "uint256"
                },
                {
                    "internalType": "address",
                    "name": "tokenOut_",
                    "type": "address"
                }
            ],
            "name": "getQuote",
            "outputs": [
                {
                    "internalType": "uint256",
                    "name": "amountOut",
                    "type": "uint256"
                }
            ],
            "stateMutability": "view",
            "type": "function"
        },
        {
            "inputs": [],
            "name": "governance",
            "outputs": [
                {
                    "internalType": "address",
                    "name": "",
                    "type": "address"
                }
            ],
            "stateMutability": "view",
            "type": "function"
        },
        {
            "inputs": [
                {
                    "internalType": "uint256",
                    "name": "positionId_",
                    "type": "uint256"
                },
                {
                    "internalType": "uint256",
                    "name": "amount_",
                    "type": "uint256"
                },
                {
                    "internalType": "uint256",
                    "name": "newAmountOfSwaps_",
                    "type": "uint256"
                },
                {
                    "internalType": "bytes",
                    "name": "permit_",
                    "type": "bytes"
                },
                {
                    "internalType": "bool",
                    "name": "flag_",
                    "type": "bool"
                },
                {
                    "internalType": "bool",
                    "name": "nativeFlag_",
                    "type": "bool"
                }
            ],
            "name": "modifyPosition",
            "outputs": [],
            "stateMutability": "payable",
            "type": "function"
        },
        {
            "inputs": [],
            "name": "oracle",
            "outputs": [
                {
                    "internalType": "contract IChainlinkOracle",
                    "name": "",
                    "type": "address"
                }
            ],
            "stateMutability": "view",
            "type": "function"
        },
        {
            "inputs": [],
            "name": "pause",
            "outputs": [],
            "stateMutability": "nonpayable",
            "type": "function"
        },
        {
            "inputs": [],
            "name": "paused",
            "outputs": [
                {
                    "internalType": "bool",
                    "name": "",
                    "type": "bool"
                }
            ],
            "stateMutability": "view",
            "type": "function"
        },
        {
            "inputs": [],
            "name": "platformFeeRatio",
            "outputs": [
                {
                    "internalType": "uint256",
                    "name": "",
                    "type": "uint256"
                }
            ],
            "stateMutability": "view",
            "type": "function"
        },
        {
            "inputs": [
                {
                    "internalType": "address[]",
                    "name": "accounts_",
                    "type": "address[]"
                }
            ],
            "name": "removeAdmins",
            "outputs": [],
            "stateMutability": "nonpayable",
            "type": "function"
        },
        {
            "inputs": [
                {
                    "internalType": "address[]",
                    "name": "tokens_",
                    "type": "address[]"
                }
            ],
            "name": "removeAllowedTokens",
            "outputs": [],
            "stateMutability": "nonpayable",
            "type": "function"
        },
        {
            "inputs": [
                {
                    "internalType": "uint32[]",
                    "name": "swapIntervals_",
                    "type": "uint32[]"
                }
            ],
            "name": "removeSwapIntervalsFromAllowedList",
            "outputs": [],
            "stateMutability": "nonpayable",
            "type": "function"
        },
        {
            "inputs": [
                {
                    "internalType": "address",
                    "name": "token_",
                    "type": "address"
                },
                {
                    "internalType": "address",
                    "name": "to_",
                    "type": "address"
                },
                {
                    "internalType": "uint256",
                    "name": "amount_",
                    "type": "uint256"
                }
            ],
            "name": "rescueFunds",
            "outputs": [],
            "stateMutability": "nonpayable",
            "type": "function"
        },
        {
            "inputs": [
                {
                    "components": [
                        {
                            "internalType": "address",
                            "name": "from",
                            "type": "address"
                        },
                        {
                            "internalType": "address",
                            "name": "to",
                            "type": "address"
                        }
                    ],
                    "internalType": "struct Pair[]",
                    "name": "pairs_",
                    "type": "tuple[]"
                }
            ],
            "name": "secondsUntilNextSwap",
            "outputs": [
                {
                    "internalType": "uint256[]",
                    "name": "",
                    "type": "uint256[]"
                }
            ],
            "stateMutability": "view",
            "type": "function"
        },
        {
            "inputs": [
                {
                    "internalType": "address",
                    "name": "newVault_",
                    "type": "address"
                }
            ],
            "name": "setFeeVault",
            "outputs": [],
            "stateMutability": "nonpayable",
            "type": "function"
        },
        {
            "inputs": [
                {
                    "internalType": "address",
                    "name": "oracle_",
                    "type": "address"
                }
            ],
            "name": "setOracle",
            "outputs": [],
            "stateMutability": "nonpayable",
            "type": "function"
        },
        {
            "inputs": [
                {
                    "internalType": "uint256",
                    "name": "platformFeeRatio_",
                    "type": "uint256"
                }
            ],
            "name": "setPlatformFeeRatio",
            "outputs": [],
            "stateMutability": "nonpayable",
            "type": "function"
        },
        {
            "inputs": [
                {
                    "internalType": "uint256",
                    "name": "newSlippage_",
                    "type": "uint256"
                }
            ],
            "name": "setSlippage",
            "outputs": [],
            "stateMutability": "nonpayable",
            "type": "function"
        },
        {
            "inputs": [
                {
                    "internalType": "uint256",
                    "name": "swapFee_",
                    "type": "uint256"
                }
            ],
            "name": "setSwapFee",
            "outputs": [],
            "stateMutability": "nonpayable",
            "type": "function"
        },
        {
            "inputs": [],
            "name": "slippage",
            "outputs": [
                {
                    "internalType": "uint256",
                    "name": "",
                    "type": "uint256"
                }
            ],
            "stateMutability": "view",
            "type": "function"
        },
        {
            "inputs": [
                {
                    "components": [
                        {
                            "internalType": "contract IAggregationExecutor",
                            "name": "executor",
                            "type": "address"
                        },
                        {
                            "components": [
                                {
                                    "internalType": "contract IERC20",
                                    "name": "srcToken",
                                    "type": "address"
                                },
                                {
                                    "internalType": "contract IERC20",
                                    "name": "dstToken",
                                    "type": "address"
                                },
                                {
                                    "internalType": "address payable",
                                    "name": "srcReceiver",
                                    "type": "address"
                                },
                                {
                                    "internalType": "address payable",
                                    "name": "dstReceiver",
                                    "type": "address"
                                },
                                {
                                    "internalType": "uint256",
                                    "name": "amount",
                                    "type": "uint256"
                                },
                                {
                                    "internalType": "uint256",
                                    "name": "minReturnAmount",
                                    "type": "uint256"
                                },
                                {
                                    "internalType": "uint256",
                                    "name": "flags",
                                    "type": "uint256"
                                },
                                {
                                    "internalType": "bytes",
                                    "name": "permit",
                                    "type": "bytes"
                                }
                            ],
                            "internalType": "struct SwapDescription",
                            "name": "desc",
                            "type": "tuple"
                        },
                        {
                            "internalType": "bytes",
                            "name": "routeData",
                            "type": "bytes"
                        }
                    ],
                    "internalType": "struct SwapDetails[]",
                    "name": "data_",
                    "type": "tuple[]"
                },
                {
                    "internalType": "address",
                    "name": "rewardRecipient_",
                    "type": "address"
                }
            ],
            "name": "swap",
            "outputs": [
                {
                    "components": [
                        {
                            "internalType": "address",
                            "name": "fromToken",
                            "type": "address"
                        },
                        {
                            "internalType": "address",
                            "name": "toToken",
                            "type": "address"
                        },
                        {
                            "internalType": "uint256",
                            "name": "swappedAmount",
                            "type": "uint256"
                        },
                        {
                            "internalType": "uint256",
                            "name": "receivedAmount",
                            "type": "uint256"
                        },
                        {
                            "internalType": "uint256",
                            "name": "reward",
                            "type": "uint256"
                        },
                        {
                            "internalType": "uint256",
                            "name": "platformFee",
                            "type": "uint256"
                        },
                        {
                            "internalType": "bytes1",
                            "name": "intervalsInSwap",
                            "type": "bytes1"
                        }
                    ],
                    "internalType": "struct SwapInfo[]",
                    "name": "",
                    "type": "tuple[]"
                }
            ],
            "stateMutability": "nonpayable",
            "type": "function"
        },
        {
            "inputs": [
                {
                    "internalType": "address",
                    "name": "",
                    "type": "address"
                },
                {
                    "internalType": "address",
                    "name": "",
                    "type": "address"
                },
                {
                    "internalType": "bytes1",
                    "name": "",
                    "type": "bytes1"
                },
                {
                    "internalType": "uint256",
                    "name": "",
                    "type": "uint256"
                }
            ],
            "name": "swapAmountDelta",
            "outputs": [
                {
                    "internalType": "uint256",
                    "name": "",
                    "type": "uint256"
                }
            ],
            "stateMutability": "view",
            "type": "function"
        },
        {
            "inputs": [
                {
                    "internalType": "address",
                    "name": "",
                    "type": "address"
                },
                {
                    "internalType": "address",
                    "name": "",
                    "type": "address"
                },
                {
                    "internalType": "bytes1",
                    "name": "",
                    "type": "bytes1"
                }
            ],
            "name": "swapData",
            "outputs": [
                {
                    "internalType": "uint256",
                    "name": "performedSwaps",
                    "type": "uint256"
                },
                {
                    "internalType": "uint256",
                    "name": "nextAmountToSwap",
                    "type": "uint256"
                },
                {
                    "internalType": "uint256",
                    "name": "lastSwappedAt",
                    "type": "uint256"
                }
            ],
            "stateMutability": "view",
            "type": "function"
        },
        {
            "inputs": [],
            "name": "swapFee",
            "outputs": [
                {
                    "internalType": "uint256",
                    "name": "",
                    "type": "uint256"
                }
            ],
            "stateMutability": "view",
            "type": "function"
        },
        {
            "inputs": [
                {
                    "internalType": "uint256",
                    "name": "positionId_",
                    "type": "uint256"
                },
                {
                    "internalType": "address",
                    "name": "recipientSwapped_",
                    "type": "address"
                },
                {
                    "internalType": "address",
                    "name": "recipientUnswapped_",
                    "type": "address"
                },
                {
                    "internalType": "bool",
                    "name": "nativeFlag_",
                    "type": "bool"
                }
            ],
            "name": "terminate",
            "outputs": [],
            "stateMutability": "nonpayable",
            "type": "function"
        },
        {
            "inputs": [
                {
                    "internalType": "address",
                    "name": "",
                    "type": "address"
                }
            ],
            "name": "tokenMagnitude",
            "outputs": [
                {
                    "internalType": "uint256",
                    "name": "",
                    "type": "uint256"
                }
            ],
            "stateMutability": "view",
            "type": "function"
        },
        {
            "inputs": [],
            "name": "totalCreatedPositions",
            "outputs": [
                {
                    "internalType": "uint256",
                    "name": "",
                    "type": "uint256"
                }
            ],
            "stateMutability": "view",
            "type": "function"
        },
        {
            "inputs": [],
            "name": "unpause",
            "outputs": [],
            "stateMutability": "nonpayable",
            "type": "function"
        },
        {
            "inputs": [
                {
                    "internalType": "uint256",
                    "name": "",
                    "type": "uint256"
                }
            ],
            "name": "userPositions",
            "outputs": [
                {
                    "internalType": "uint256",
                    "name": "swapWhereLastUpdated",
                    "type": "uint256"
                },
                {
                    "internalType": "uint256",
                    "name": "finalSwap",
                    "type": "uint256"
                },
                {
                    "internalType": "bytes1",
                    "name": "swapIntervalMask",
                    "type": "bytes1"
                },
                {
                    "internalType": "uint256",
                    "name": "rate",
                    "type": "uint256"
                },
                {
                    "internalType": "address",
                    "name": "from",
                    "type": "address"
                },
                {
                    "internalType": "address",
                    "name": "to",
                    "type": "address"
                },
                {
                    "internalType": "address",
                    "name": "owner",
                    "type": "address"
                }
            ],
            "stateMutability": "view",
            "type": "function"
        },
        {
            "inputs": [],
            "name": "wNative",
            "outputs": [
                {
                    "internalType": "contract IWNative",
                    "name": "",
                    "type": "address"
                }
            ],
            "stateMutability": "view",
            "type": "function"
        },
        {
            "inputs": [
                {
                    "internalType": "uint256",
                    "name": "positionId_",
                    "type": "uint256"
                },
                {
                    "internalType": "address",
                    "name": "recipient_",
                    "type": "address"
                },
                {
                    "internalType": "bool",
                    "name": "nativeFlag_",
                    "type": "bool"
                }
            ],
            "name": "withdrawSwapped",
            "outputs": [],
            "stateMutability": "nonpayable",
            "type": "function"
        },
        {
            "stateMutability": "payable",
            "type": "receive"
        }
    ],
    "bytecode": "0x60c06040523480156200001157600080fd5b5060405162005565380380620055658339810160408190526200003491620001ef565b6001600055838686858585846001600160a01b0381166200008a5760405162461bcd60e51b815260206004820152600b60248201526a5a65726f4164647265737360a81b60448201526064015b60405180910390fd5b600580546001600160a01b0319166001600160a01b0383169081179091556040516000907f3aaaebeb4821d6a7e5c77ece53cff0afcc56c82add2c978dbbb7f73e84cbcfd2908290a3506005805460ff60a01b191690556101f4811115620001275760405162461bcd60e51b815260206004820152600f60248201526e496e76616c6964536c69707061676560881b604482015260640162000081565b6001600160a01b038216158015906200014857506001600160a01b03841615155b620001845760405162461bcd60e51b815260206004820152600b60248201526a5a65726f4164647265737360a81b604482015260640162000081565b600980546001600160a01b03199081166001600160a01b0394851617909155938216608052600c805490941692821692909217909255600d559190911660a052506200026795505050505050565b80516001600160a01b0381168114620001ea57600080fd5b919050565b60008060008060008060c087890312156200020957600080fd5b6200021487620001d2565b95506200022460208801620001d2565b94506200023460408801620001d2565b93506200024460608801620001d2565b92506200025460808801620001d2565b915060a087015190509295509295509295565b60805160a05161528b620002da600039600081816109c5015281816111e4015261125301526000818161045a01528181610b51015281816116100152818161199d015281816120fd0152818161213c015281816121d4015281816122490152818161281a0152612c7e015261528b6000f3fe6080604052600436106103175760003560e01c8063750442501161019a578063a591f97f116100e1578063e581a3be1161008a578063f64dd29f11610064578063f64dd29f14610a57578063f70e663d14610a77578063f975951814610a9757600080fd5b8063e581a3be146109e7578063e744092e14610a07578063f0fa55a914610a3757600080fd5b8063cd0fe27c116100bb578063cd0fe27c14610993578063dd3fd925146109b3578063e1a452181461037857600080fd5b8063a591f97f1461093d578063bc063e1a1461095d578063c5c2dc8b1461097357600080fd5b80638456cb59116101435780639c54df641161011d5780639c54df64146108c35780639ecceb5e146108e3578063a2c346ec1461091057600080fd5b80638456cb591461086e5780638cf39d5f1461088357806399572d6f146108a357600080fd5b80637dc0d1d0116101745780637dc0d1d0146107d6578063808ba8e0146107f6578063821b5a2b1461085b57600080fd5b806375044250146107765780637adbf973146107965780637d8e8603146107b657600080fd5b8063429b62e51161025e578063582cf84b116102075780635c975abb116101e15780635c975abb1461070a5780636b425336146107295780636ccae0541461075657600080fd5b8063582cf84b1461066a57806359eecff1146106a55780635aa6e675146106ec57600080fd5b80634a149243116102385780634a149243146105f757806354cf2aeb1461063e57806357ae1cec1461065457600080fd5b8063429b62e51461055d578063478222c21461059d578063480e5da1146105bd57600080fd5b806334e19907116102c05780633e032a3b1161029a5780633e032a3b146105125780633f4ba83a146105285780633feb14931461053d57600080fd5b806334e19907146104bc57806336639580146104dc578063377e11e0146104f257600080fd5b80631e7f1370116102f15780631e7f13701461038e5780632d68efc91461044857806331f7d9641461049457600080fd5b8063136c274f1461032357806316cd7af8146103385780631b8b8c341461037857600080fd5b3661031e57005b600080fd5b6103366103313660046145ec565b610aad565b005b34801561034457600080fd5b50610365610353366004614681565b60076020526000908152604090205481565b6040519081526020015b60405180910390f35b34801561038457600080fd5b5061036561271081565b34801561039a57600080fd5b506103f86103a936600461469e565b600e6020526000908152604090208054600182015460028301546003840154600485015460058601546006909601549495939460f89390931b9391926001600160a01b03918216928216911687565b6040805197885260208801969096526001600160f81b03199094169486019490945260608501919091526001600160a01b03908116608085015291821660a08401521660c082015260e00161036f565b34801561045457600080fd5b5061047c7f000000000000000000000000000000000000000000000000000000000000000081565b6040516001600160a01b03909116815260200161036f565b3480156104a057600080fd5b5061047c73eeeeeeeeeeeeeeeeeeeeeeeeeeeeeeeeeeeeeeee81565b3480156104c857600080fd5b506103366104d736600461469e565b610d02565b3480156104e857600080fd5b5061036560105481565b3480156104fe57600080fd5b5061033661050d3660046146fc565b610dbe565b34801561051e57600080fd5b50610365600d5481565b34801561053457600080fd5b50610336610e31565b34801561054957600080fd5b506103366105583660046146fc565b610e65565b34801561056957600080fd5b5061058d610578366004614681565b60086020526000908152604090205460ff1681565b604051901515815260200161036f565b3480156105a957600080fd5b5060095461047c906001600160a01b031681565b3480156105c957600080fd5b506005546105de90600160a81b900460f81b81565b6040516001600160f81b0319909116815260200161036f565b34801561060357600080fd5b5061036561061236600461475b565b600460209081526000948552604080862082529385528385208152918452828420909152825290205481565b34801561064a57600080fd5b50610365600a5481565b34801561066057600080fd5b50610365600b5481565b34801561067657600080fd5b506105de6106853660046147aa565b600160209081526000928352604080842090915290825290205460f81b81565b3480156106b157600080fd5b506103656106c036600461475b565b600360209081526000948552604080862082529385528385208152918452828420909152825290205481565b3480156106f857600080fd5b506005546001600160a01b031661047c565b34801561071657600080fd5b50600554600160a01b900460ff1661058d565b34801561073557600080fd5b506107496107443660046147e3565b610f5d565b60405161036f91906148c9565b34801561076257600080fd5b506103366107713660046148dc565b61147c565b34801561078257600080fd5b5061033661079136600461491d565b611566565b3480156107a257600080fd5b506103366107b1366004614681565b61175a565b3480156107c257600080fd5b506103366107d13660046146fc565b6117f8565b3480156107e257600080fd5b50600c5461047c906001600160a01b031681565b34801561080257600080fd5b50610840610811366004614954565b600260208181526000948552604080862082529385528385209052908352912080546001820154919092015483565b6040805193845260208401929092529082015260600161036f565b6103656108693660046149af565b6118cb565b34801561087a57600080fd5b50610336611aba565b34801561088f57600080fd5b5061033661089e3660046146fc565b611aec565b3480156108af57600080fd5b506103366108be366004614681565b611b40565b3480156108cf57600080fd5b506103366108de3660046146fc565b611bec565b3480156108ef57600080fd5b506109036108fe36600461469e565b611c53565b60405161036f9190614a34565b34801561091c57600080fd5b5061093061092b366004614ab5565b611e11565b60405161036f9190614b2a565b34801561094957600080fd5b50610336610958366004614681565b611ef8565b34801561096957600080fd5b506103656103e881565b34801561097f57600080fd5b5061033661098e3660046146fc565b611f96565b34801561099f57600080fd5b506103366109ae366004614b6e565b611fe6565b3480156109bf57600080fd5b5061047c7f000000000000000000000000000000000000000000000000000000000000000081565b3480156109f357600080fd5b50610749610a02366004614ab5565b61232d565b348015610a1357600080fd5b5061058d610a22366004614681565b60066020526000908152604090205460ff1681565b348015610a4357600080fd5b50610336610a5236600461469e565b612513565b348015610a6357600080fd5b50610365610a72366004614bc1565b6125d0565b348015610a8357600080fd5b50610336610a9236600461469e565b61267d565b348015610aa357600080fd5b506103656101f481565b610ab5612748565b6000868152600e6020908152604091829020825160e08101845281548152600182015492810192909252600281015460f81b6001600160f81b031916928201929092526003820154606082015260048201546001600160a01b0390811660808301526005830154811660a083015260069092015490911660c08201528215610b4957610b4981608001518260a00151612795565b8115610c19577f00000000000000000000000000000000000000000000000000000000000000006001600160a01b031681608001516001600160a01b031614610bcb5760405162461bcd60e51b815260206004820152600f60248201526e2737ba2ba730ba34bb32aa37b5b2b760891b60448201526064015b60405180910390fd5b8215610c1957853414610c105760405162461bcd60e51b815260206004820152600d60248201526c125b9d985b1a59105b5bdd5b9d609a1b6044820152606401610bc2565b610c1986612812565b6000806000610c2b848b8b8b8a612890565b925092509250858015610c3c575084155b15610c6e57610c4f846080015188612aa9565b610c693360808601516001600160a01b031690308c612bf7565b610c9c565b85610c9c578415610c8357610c698933612c62565b610c9c3360808601516001600160a01b0316908b612cec565b604080518b81526020810185905280820184905260608101839052871515608082015286151560a0820152905133917f98313a96e56f46975082c2d16f0f5411f485c801f3dc23bd2c6518197320b773919081900360c00190a250505050505050505050565b3360009081526008602052604090205460ff1680610d2a57506005546001600160a01b031633145b610d465760405162461bcd60e51b8152600401610bc290614bf8565b6103e8811115610d825760405162461bcd60e51b81526020600482015260076024820152664869676846656560c81b6044820152606401610bc2565b600a8190556040518181527f382455f3b749abde7721258dcfa10a22f30d4a28c69151a002dcbd8d1462e4f2906020015b60405180910390a150565b6005546001600160a01b03163314610de85760405162461bcd60e51b8152600401610bc290614bf8565b610df482826000612d21565b7fbc302ee0d426b6f39f889e747050982023133dfc8fc46d1848d8e182c06af7be8282604051610e25929190614c62565b60405180910390a15050565b6005546001600160a01b03163314610e5b5760405162461bcd60e51b8152600401610bc290614bf8565b610e63612de1565b565b3360009081526008602052604090205460ff1680610e8d57506005546001600160a01b031633145b610ea95760405162461bcd60e51b8152600401610bc290614bf8565b60005b81811015610f1b57610ee3838383818110610ec957610ec9614c76565b9050602002016020810190610ede9190614c8c565b612e36565b6005805460ff60a81b198116600160a81b9182900460f890811b9490941790931c02919091179055610f1481614cbd565b9050610eac565b50600115157f65a4e7f60fb532141e4ec9c2b5ce7df825f11171cd5db5ebd989e2d76c9ebbc48383604051610f51929190614cd6565b60405180910390a25050565b6060600260005403610fb15760405162461bcd60e51b815260206004820152601f60248201527f5265656e7472616e637947756172643a207265656e7472616e742063616c6c006044820152606401610bc2565b6002600055610fbe612748565b60008367ffffffffffffffff811115610fd957610fd96144ee565b60405190808252806020026020018201604052801561101257816020015b610fff614495565b815260200190600190039081610ff75790505b50905060005b8481101561141f57600086868381811061103457611034614c76565b90506020028101906110469190614d1f565b61104f90614d4a565b6020810151606001519091506001600160a01b0316156110a65760405162461bcd60e51b815260206004820152601260248201527124b73b30b634b22239ba2932b1b2b4bb32b960711b6044820152606401610bc2565b602081015160c00151600116156110ff5760405162461bcd60e51b815260206004820152601560248201527f5061727469616c46696c6c4e6f74416c6c6f77656400000000000000000000006044820152606401610bc2565b60208082015180519101516000806111178484612f26565b9150915060008061112a84600a54613079565b9150915060008211801561114757506001600160f81b0319831615155b6111855760405162461bcd60e51b815260206004820152600f60248201526e04e6f417661696c61626c655377617608c1b6044820152606401610bc2565b81876020015160800151146111d05760405162461bcd60e51b8152602060048201526011602482015270125b9d985b1a5914ddd85c105b5bdd5b9d607a1b6044820152606401610bc2565b60006111dd8784886125d0565b905061122e7f000000000000000000000000000000000000000000000000000000000000000089602001516080015160016112189190614e5c565b60208b0151516001600160a01b031691906130ac565b875160208901516040808b01519051623e012960e91b81526000936001600160a01b037f00000000000000000000000000000000000000000000000000000000000000001693637c0252009361128693600401614ebf565b60408051808303816000875af11580156112a4573d6000803e3d6000fd5b505050506040513d601f19601f820116820180604052508101906112c89190614f77565b5090508181101580156112e35750886020015160a001518110155b6113255760405162461bcd60e51b8152602060048201526013602482015272125b9d985b1a5914995d1d5c9b905b5bdd5b9d606a1b6044820152606401610bc2565b611332888888848961315e565b60008061134185600b54613079565b915091506040518060e001604052808b6001600160a01b031681526020018a6001600160a01b03168152602001878152602001848152602001838152602001828152602001886001600160f81b0319168152508d8d815181106113a6576113a6614c76565b602090810291909101015280156113d75760095460208c0151516113d7916001600160a01b03918216911683612cec565b8115611403576114038f838d60200151600001516001600160a01b0316612cec9092919063ffffffff16565b50505050505050505050508061141890614cbd565b9050611018565b506001600160a01b038316336001600160a01b03167f4b86826433ed056d87855d4a563118ae2f2f6954e600485015dae16fc42ac30e83600a54604051611467929190614f9b565b60405180910390a36001600055949350505050565b6005546001600160a01b031633146114a65760405162461bcd60e51b8152600401610bc290614bf8565b6001600160a01b0382166114cc5760405162461bcd60e51b8152600401610bc290614fbd565b73eeeeeeeeeeeeeeeeeeeeeeeeeeeeeeeeeeeeeeed196001600160a01b03841601611500576114fb8282613405565b611514565b6115146001600160a01b0384168383612cec565b826001600160a01b0316826001600160a01b03167f77023e19c7343ad491fd706c36335ca0e738340a91f29b1fd81e2673d44896c48360405161155991815260200190565b60405180910390a3505050565b6001600160a01b03821661158c5760405162461bcd60e51b8152600401610bc290614fbd565b6000838152600e6020908152604091829020825160e08101845281548152600182015492810192909252600281015460f81b6001600160f81b031916928201929092526003820154606082015260048201546001600160a01b0390811660808301526005830154811660a083015260069092015490911660c08201528115611685577f00000000000000000000000000000000000000000000000000000000000000006001600160a01b03168160a001516001600160a01b0316146116855760405162461bcd60e51b815260206004820152600f60248201526e2737ba2ba730ba34bb32aa37b5b2b760891b6044820152606401610bc2565b600061169182866134c2565b9050600081116116d75760405162461bcd60e51b815260206004820152601160248201527016995c9bd4ddd85c1c1959105b5bdd5b9d607a1b6044820152606401610bc2565b82156116ec576116e78185612c62565b611705565b60a0820151611705906001600160a01b03168583612cec565b60408051868152602081018390528415158183015290516001600160a01b0386169133917f37f4a4b2d3aa5e3594548a31a984b2b3198f165c8b0fc3f6b1f97b18307193bf9181900360600190a35050505050565b6005546001600160a01b031633146117845760405162461bcd60e51b8152600401610bc290614bf8565b6001600160a01b0381166117aa5760405162461bcd60e51b8152600401610bc290614fbd565b600c80546001600160a01b0319166001600160a01b0383169081179091556040519081527f3df77beb5db05fcdd70a30fc8adf3f83f9501b68579455adbd100b818094039490602001610db3565b3360009081526008602052604090205460ff168061182057506005546001600160a01b031633145b61183c5760405162461bcd60e51b8152600401610bc290614bf8565b60005b818110156118955761185c838383818110610ec957610ec9614c76565b6005805460ff60a81b1981169219600160a81b9182900460f890811b91909116901c0291909117905561188e81614cbd565b905061183f565b50600015157f65a4e7f60fb532141e4ec9c2b5ce7df825f11171cd5db5ebd989e2d76c9ebbc48383604051610f51929190614cd6565b600060026000540361191f5760405162461bcd60e51b815260206004820152601f60248201527f5265656e7472616e637947756172643a207265656e7472616e742063616c6c006044820152606401610bc2565b600260005561192c612748565b8673eeeeeeeeeeeeeeeeeeeeeeeeeeeeeeeeeeeeeeed196001600160a01b038216016119bd578434146119915760405162461bcd60e51b815260206004820152600d60248201526c125b9d985b1a59105b5bdd5b9d609a1b6044820152606401610bc2565b61199a85612812565b507f00000000000000000000000000000000000000000000000000000000000000005b6000806119cd838a898989613547565b90925090506001600160a01b038a1673eeeeeeeeeeeeeeeeeeeeeeeeeeeeeeeeeeeeeeee14611a1557611a008a89612aa9565b611a156001600160a01b038b1633308a612bf7565b336001600160a01b03167f2e9ea143db16f86c2a0b936a3bc795860380e71b1fd455810a04f171b58420f4828c8c89876060015188600001516001611a5a9190614e5c565b60208a810151604080519889526001600160a01b0397881692890192909252949095168686015263ffffffff929092166060860152608085015260a084015260c0830152519081900360e00190a260016000559998505050505050505050565b6005546001600160a01b03163314611ae45760405162461bcd60e51b8152600401610bc290614bf8565b610e6361394e565b3360009081526008602052604090205460ff1680611b1457506005546001600160a01b031633145b611b305760405162461bcd60e51b8152600401610bc290614bf8565b611b3c82826000613991565b5050565b6005546001600160a01b03163314611b6a5760405162461bcd60e51b8152600401610bc290614bf8565b6001600160a01b038116611b905760405162461bcd60e51b8152600401610bc290614fbd565b6005546040516001600160a01b038084169216907f3aaaebeb4821d6a7e5c77ece53cff0afcc56c82add2c978dbbb7f73e84cbcfd290600090a3600580546001600160a01b0319166001600160a01b0392909216919091179055565b6005546001600160a01b03163314611c165760405162461bcd60e51b8152600401610bc290614bf8565b611c2282826001612d21565b7f6e2ec61f3f6e11676f4885a93cf08ec3f6c54e783610709609ec4aca83efea408282604051610e25929190614c62565b611cc360405180610120016040528060006001600160a01b0316815260200160006001600160a01b0316815260200160006001600160a01b03168152602001600063ffffffff16815260200160008152602001600081526020016000815260200160008152602001600081525090565b6000828152600e60209081526040808320815160e08101835281548152600182015481850190815260028084015460f81b6001600160f81b031990811684870190815260038601546060860190815260048701546001600160a01b03908116608080890182815260058b0154841660a08b019081526006909b0154841660c08b01908152928e52968c528a8d208a5184168e528c528a8d2094519095168c52928a52998890205491518a168b5292518916978a019790975293519096169387019390935293519085015251611da490611d9d908390613ad4565b8351613aec565b60a08401526020820151611db89082613aec565b60c0840152611dc78282613b06565b61010084015260408201516001600160f81b03191615611e0a57611dee8260400151613b25565b63ffffffff166060840152611e04848383613c35565b60e08401525b5050919050565b606060008267ffffffffffffffff811115611e2e57611e2e6144ee565b604051908082528060200260200182016040528015611e57578160200160208202803683370190505b50905060005b83811015611eee57611ebf858583818110611e7a57611e7a614c76565b611e909260206040909202019081019150614681565b868684818110611ea257611ea2614c76565b9050604002016020016020810190611eba9190614681565b613d68565b828281518110611ed157611ed1614c76565b602090810291909101015280611ee681614cbd565b915050611e5d565b5090505b92915050565b6005546001600160a01b03163314611f225760405162461bcd60e51b8152600401610bc290614bf8565b6001600160a01b038116611f485760405162461bcd60e51b8152600401610bc290614fbd565b600980546001600160a01b0319166001600160a01b0383169081179091556040519081527fa30c0bdcbba01e7448180ae5a7a206f585543fc1be92e825bce878586dd0770f90602001610db3565b3360009081526008602052604090205460ff1680611fbe57506005546001600160a01b031633145b611fda5760405162461bcd60e51b8152600401610bc290614bf8565b611b3c82826001613991565b6002600054036120385760405162461bcd60e51b815260206004820152601f60248201527f5265656e7472616e637947756172643a207265656e7472616e742063616c6c006044820152606401610bc2565b60026000556001600160a01b0382161580159061205d57506001600160a01b03831615155b6120795760405162461bcd60e51b8152600401610bc290614fbd565b6000848152600e6020908152604091829020825160e08101845281548152600182015492810192909252600281015460f81b6001600160f81b031916928201929092526003820154606082015260048201546001600160a01b0390811660808301526005830154811660a083015260069092015490911660c082015281156121b2577f00000000000000000000000000000000000000000000000000000000000000006001600160a01b031681608001516001600160a01b0316148061217457507f00000000000000000000000000000000000000000000000000000000000000006001600160a01b03168160a001516001600160a01b0316145b6121b25760405162461bcd60e51b815260206004820152600f60248201526e2737ba2ba730ba34bb32aa37b5b2b760891b6044820152606401610bc2565b6000806121bf8388613efe565b909250905081156122395783801561220c57507f00000000000000000000000000000000000000000000000000000000000000006001600160a01b031683608001516001600160a01b0316145b156122205761221b8286612c62565b612239565b6080830151612239906001600160a01b03168684612cec565b80156122ae5783801561228157507f00000000000000000000000000000000000000000000000000000000000000006001600160a01b03168360a001516001600160a01b0316145b15612295576122908187612c62565b6122ae565b60a08301516122ae906001600160a01b03168783612cec565b846001600160a01b0316866001600160a01b03166122c93390565b604080518b81526020810186905290810186905287151560608201526001600160a01b0391909116907f3181c66133d5f6ff6b6ba9c1d3574915c8caed4b6fdbae28e9c1237bfcbdabc99060800160405180910390a4505060016000555050505050565b606060008267ffffffffffffffff81111561234a5761234a6144ee565b60405190808252806020026020018201604052801561238357816020015b612370614495565b8152602001906001900390816123685790505b50905060005b83811015611eee5760008585838181106123a5576123a5614c76565b9050604002018036038101906123bb9190614fe2565b90506000806123d283600001518460200151612f26565b915091506000806123e584600a54613079565b915091506000806123f883600b54613079565b600c54895160208b0151604051632b462b4360e21b81526001600160a01b039283166004820152602481018a9052908216604482015293955091935060009291169063ad18ad0c90606401602060405180830381865afa158015612460573d6000803e3d6000fd5b505050506040513d601f19601f820116820180604052508101906124849190615041565b90506040518060e0016040528089600001516001600160a01b0316815260200189602001516001600160a01b03168152602001868152602001828152602001848152602001838152602001876001600160f81b0319168152508a8a815181106124ef576124ef614c76565b602002602001018190525050505050505050508061250c90614cbd565b9050612389565b3360009081526008602052604090205460ff168061253b57506005546001600160a01b031633145b6125575760405162461bcd60e51b8152600401610bc290614bf8565b6101f481111561259b5760405162461bcd60e51b815260206004820152600f60248201526e496e76616c6964536c69707061676560881b6044820152606401610bc2565b600d8190556040518181527ff5a802650e0a86db227cc342f06327d2ca0ff5cf2b12e0084fc5d8a7db2c54fd90602001610db3565b600c54604051632b462b4360e21b81526001600160a01b038581166004830152602482018590528381166044830152600092169063ad18ad0c90606401602060405180830381865afa15801561262a573d6000803e3d6000fd5b505050506040513d601f19601f8201168201806040525081019061264e9190615041565b9050612710600d5482612661919061505a565b61266b9190615071565b6126759082615093565b949350505050565b3360009081526008602052604090205460ff16806126a557506005546001600160a01b031633145b6126c15760405162461bcd60e51b8152600401610bc290614bf8565b6127108111156127135760405162461bcd60e51b815260206004820152601460248201527f48696768506c6174666f726d466565526174696f0000000000000000000000006044820152606401610bc2565b600b8190556040518181527f468d69afb19b60d70ad54bfd594f20238cf3aecafe94fe0a61d46ce3f9c5a79590602001610db3565b600554600160a01b900460ff1615610e635760405162461bcd60e51b815260206004820152601060248201526f14185d5cd8589b194e881c185d5cd95960821b6044820152606401610bc2565b6001600160a01b03821660009081526006602052604090205460ff1680156127d557506001600160a01b03811660009081526006602052604090205460ff165b611b3c5760405162461bcd60e51b815260206004820152600e60248201526d2ab730b63637bbb2b22a37b5b2b760911b6044820152606401610bc2565b801561288d577f00000000000000000000000000000000000000000000000000000000000000006001600160a01b031663d0e30db0826040518263ffffffff1660e01b81526004016000604051808303818588803b15801561287357600080fd5b505af1158015612887573d6000803e3d6000fd5b50505050505b50565b60008060008086116128d15760405162461bcd60e51b815260206004820152600a60248201526916995c9bd05b5bdd5b9d60b21b6044820152606401610bc2565b6000851161290d5760405162461bcd60e51b81526020600482015260096024820152685a65726f537761707360b81b6044820152606401610bc2565b61291688613fdd565b60808801516001600160a01b03908116600090815260026020908152604080832060a08d01519094168352928152828220838c01516001600160f81b0319168352905290812054906129688a83613b06565b90506000866129805761297b8983615093565b61298a565b61298a8983614e5c565b90506000612998828a614062565b9050811580156129a85750600089115b156129b257600098505b60006129be8a86614e5c565b60008d8152600e60205260409020600381018490556001810182905586905590506129ea8c8e87613c35565b60008d8152600f6020526040902055612a038d8661406e565b60008c8152600e6020908152604091829020825160e08101845281548152600182015492810192909252600281015460f81b6001600160f81b031916928201929092526003820154606082015260048201546001600160a01b0390811660808301526005830154811660a083015260069092015490911660c0820152612a889061415d565b81612a94866001614e5c565b909e909d50909b509950505050505050505050565b805115611b3c5760006060825160e003612b49576040516001600160a01b03851690612ae29063d505accf60e01b9086906020016150a6565b60408051601f1981840301815290829052612afc916150d7565b6000604051808303816000865af19150503d8060008114612b39576040519150601f19603f3d011682016040523d82523d6000602084013e612b3e565b606091505b509092509050612bb4565b825161010003612b78576040516001600160a01b03851690612ae2906323f2ebc360e21b9086906020016150a6565b60405162461bcd60e51b8152602060048201526011602482015270496e76616c69645065726d69745479706560781b6044820152606401610bc2565b81612bf15760405162461bcd60e51b815260206004820152600d60248201526c125b9d985b1a5914195c9b5a5d609a1b6044820152606401610bc2565b50505050565b6040516001600160a01b0380851660248301528316604482015260648101829052612bf19085906323b872dd60e01b906084015b60408051601f198184030181529190526020810180516001600160e01b03166001600160e01b03199093169290921790915261423f565b8115611b3c57604051632e1a7d4d60e01b8152600481018390527f00000000000000000000000000000000000000000000000000000000000000006001600160a01b031690632e1a7d4d90602401600060405180830381600087803b158015612cca57600080fd5b505af1158015612cde573d6000803e3d6000fd5b50505050611b3c8183613405565b6040516001600160a01b038316602482015260448101829052612d1c90849063a9059cbb60e01b90606401612c2b565b505050565b60005b82811015612bf1576000848483818110612d4057612d40614c76565b9050602002016020810190612d559190614681565b6001600160a01b031603612d7b5760405162461bcd60e51b8152600401610bc290614fbd565b8160086000868685818110612d9257612d92614c76565b9050602002016020810190612da79190614681565b6001600160a01b031681526020810191909152604001600020805460ff191691151591909117905580612dd981614cbd565b915050612d24565b612de9614311565b6005805460ff60a01b191690557f5db9ee0a495bf2e6ff9c91a7834c1ba4fdd244a5e8aa4e537bd38aeae4b073aa335b6040516001600160a01b03909116815260200160405180910390a1565b60008163ffffffff16610e1003612e525750600160f81b919050565b8163ffffffff1661384003612e6c5750600160f91b919050565b8163ffffffff1661a8c003612e865750600160fa1b919050565b8163ffffffff166201518003612ea15750600160fb1b919050565b8163ffffffff166203f48003612ebc5750600160fc1b919050565b8163ffffffff1662093a8003612ed75750600160fd1b919050565b8163ffffffff166212750003612ef25750600160fe1b919050565b8163ffffffff1662278d0003612f0d5750600160ff1b919050565b6040516305fabb6160e41b815260040160405180910390fd5b6001600160a01b038083166000908152600160209081526040808320938516835292905290812054819060f81b600160f81b5b6001600160f81b031980821690831610801590612f7f57506001600160f81b0319811615155b15613063576001600160f81b03198282161615613055576001600160a01b038087166000908152600260208181526040808420948a1684529381528383206001600160f81b03198616845281528383208451606081018652815481526001820154928101929092529091015492810192909252612ffb83613b25565b9050428163ffffffff168263ffffffff16846040015161301b9190615071565b613026906001614e5c565b613030919061505a565b111561303d575050613063565b6020820151948317946130509087614e5c565b955050505b60011b607f60f91b16612f59565b8360000361307057600092505b50509250929050565b6000808061271061308a858761505a565b6130949190615071565b90506130a08186615093565b925090505b9250929050565b604051636eb1769f60e11b81523060048201526001600160a01b038381166024830152600091839186169063dd62ed3e90604401602060405180830381865afa1580156130fd573d6000803e3d6000fd5b505050506040513d601f19601f820116820180604052508101906131219190615041565b61312b9190614e5c565b6040516001600160a01b038516602482015260448101829052909150612bf190859063095ea7b360e01b90606401612c2b565b6001600160a01b038516600090815260076020526040812054613184908590859061436a565b9050600160f81b5b6001600160f81b0319808216908416108015906131b257506001600160f81b0319811615155b156133fc576001600160f81b031983821616156133ee576001600160a01b038088166000908152600260208181526040808420948b1684529381528383206001600160f81b031986168452815291839020835160608101855281548152600182015493810184905291015492810192909252156133b1576001600160a01b038089166000908152600460209081526040808320938b1683529281528282206001600160f81b03198616835281528282208451835290522054613275908490614e5c565b6001600160a01b03808a166000908152600460209081526040808320938c1683529281528282206001600160f81b031987168352905290812083519091906132be906001614e5c565b8152602001908152602001600020819055506040518060600160405280826000015160016132ec9190614e5c565b81526001600160a01b03808b166000908152600360209081526040808320938d1683529281528282206001600160f81b0319881683528152918120855192909301929161333a906002614e5c565b81526020019081526020016000205483602001516133589190615093565b8152426020918201526001600160a01b03808b16600090815260028084526040808320938d1683529284528282206001600160f81b031988168352845290829020845181559284015160018401559201519101556133ec565b6001600160a01b038089166000908152600160209081526040808320938b16835292905220805460f881811b851916901c60ff199091161790555b505b60011b607f60f91b1661318c565b50505050505050565b604080516000808252602082019092526001600160a01b03841690839060405161342f91906150d7565b60006040518083038185875af1925050503d806000811461346c576040519150601f19603f3d011682016040523d82523d6000602084013e613471565b606091505b5050905080612d1c5760405162461bcd60e51b815260206004820152601460248201527f4e61746976655472616e736665724661696c65640000000000000000000000006044820152606401610bc2565b60006134cd83613fdd565b60808301516001600160a01b03908116600090815260026020908152604080832060a08801519094168352928152828220838701516001600160f81b031916835290529081205490613520848684613c35565b6000948552600e6020908152604080872094909455600f9052918420939093559392505050565b6040805160e081018252600080825260208201819052918101829052606081018290526080810182905260a0810182905260c08101829052906001600160a01b038716158015906135a057506001600160a01b03861615155b6135bc5760405162461bcd60e51b8152600401610bc290614fbd565b856001600160a01b0316876001600160a01b03160361360c5760405162461bcd60e51b815260206004820152600c60248201526b24b73b30b634b22a37b5b2b760a11b6044820152606401610bc2565b600085116136495760405162461bcd60e51b815260206004820152600a60248201526916995c9bd05b5bdd5b9d60b21b6044820152606401610bc2565b600084116136855760405162461bcd60e51b81526020600482015260096024820152685a65726f537761707360b81b6044820152606401610bc2565b61368f8787612795565b600061369a84612e36565b600554909150600160a81b900460f81b81166001600160f81b0319166000036136fa5760405162461bcd60e51b8152602060048201526012602482015271125b9d195c9d985b139bdd105b1b1bddd95960721b6044820152606401610bc2565b60006137068787614062565b9050600081116137465760405162461bcd60e51b815260206004820152600b60248201526a496e76616c69645261746560a81b6044820152606401610bc2565b600060106000815461375790614cbd565b91829055506001600160a01b03808c166000908152600260209081526040808320938e1683529281528282206001600160f81b031988168352815282822054835160e0810190945280845293945090919081016137b48b85614e5c565b81526001600160f81b031987166020820152604081018690526001600160a01b03808f1660608301528d16608082015260a001336001600160a01b0316815250905084600160008e6001600160a01b03166001600160a01b0316815260200190815260200160002060008d6001600160a01b03166001600160a01b0316815260200190815260200160002060009054906101000a900460f81b166001600160f81b031916600060f81b0361389c576001600160a01b03808d166000908152600160209081526040808320938f16835292905220805460f881811b8817901c60ff199091161790555b6138a58161415d565b6000838152600e6020908152604091829020835181559083015160018201559082015160028201805460ff191660f89290921c9190911790556060820151600382015560808201516004820180546001600160a01b03199081166001600160a01b039384161790915560a0840151600584018054831691841691909117905560c084015160069093018054909116929091169190911790559b919a509098505050505050505050565b613956612748565b6005805460ff60a01b1916600160a01b1790557f62e78cea01bee320cd4e420270b5ea74000d11b0c9f74754ebdbfc544b05a258612e193390565b60005b82811015613a945760008484838181106139b0576139b0614c76565b90506020020160208101906139c59190614681565b6001600160a01b0381166000908152600660209081526040808320805460ff1916881515179055600790915281205491925003613a8357806001600160a01b031663313ce5676040518163ffffffff1660e01b8152600401602060405180830381865afa158015613a3a573d6000803e3d6000fd5b505050506040513d601f19601f82011682018060405250810190613a5e91906150e9565b613a6990600a6151f0565b6001600160a01b0382166000908152600760205260409020555b50613a8d81614cbd565b9050613994565b507e1dd6a7b0d00d27a56bc1c8d5323149a4796ae344fc670955d0df1f467cb8bb838383604051613ac7939291906151ff565b60405180910390a1505050565b6000818310613ae35781613ae5565b825b9392505050565b6000818311613afc576000613ae5565b613ae58284615093565b60008260600151613b1b846020015184613aec565b613ae5919061505a565b60006001600160f81b03198216600160f81b03613b455750610e10919050565b6001600160f81b03198216600160f91b03613b635750613840919050565b6001600160f81b03198216600160fa1b03613b81575061a8c0919050565b6001600160f81b03198216600160fb1b03613ba0575062015180919050565b6001600160f81b03198216600160fc1b03613bbf57506203f480919050565b6001600160f81b03198216600160fd1b03613bde575062093a80919050565b6001600160f81b03198216600160fe1b03613bfd575062127500919050565b6001600160f81b03198216600160ff1b03613c1c575062278d00919050565b60405163bf3cad0b60e01b815260040160405180910390fd5b600080613c46838560200151613ad4565b90508084600001511115613c5e576000915050613ae5565b8351819003613c7d5750506000838152600f6020526040902054613ae5565b6080840180516001600160a01b03908116600090815260046020818152604080842060a08b01805187168652908352818520828c0180516001600160f81b031990811688529185528387208d518852855283872054985188168752948452828620915190961685528252808420925190941683529081528282208583529052908120549091613d0b91615093565b6000878152600f602090815260408083205460808a01516001600160a01b0316845260079092529091205460608801519293509091613d4a908461505a565b613d549190615071565b613d5e9190614e5c565b9695505050505050565b6001600160a01b03808316600090815260016020908152604080832093851683529290529081205460f81b600160f81b825b6001600160f81b031980831690841610801590613dc057506001600160f81b0319821615155b15613ef157816001600160f81b0319168284166001600160f81b03191603613edb576001600160a01b038087166000908152600260208181526040808420948a1684529381528383206001600160f81b03198716845281528383208451606081018652815481526001820154928101929092529091015492810192909252613e4784613b25565b905060008163ffffffff168263ffffffff168460400151613e689190615071565b613e73906001614e5c565b613e7d919061505a565b602084015190915015613eb657428111613e9f57839650505050505050611ef2565b613ea94282615093565b9650505050505050611ef2565b42811115613ed7578315613eca5783613ed4565b613ed44282615093565b93505b5050505b6001826001600160f81b031916901b9150613d9a565b5060001995945050505050565b600080613f0a84613fdd565b60808401516001600160a01b03908116600090815260026020908152604080832060a08901519094168352928152828220838801516001600160f81b031916835290522054613f5a848683613c35565b9150613f668582613b06565b9250613f72858261406e565b506000928352600e602090815260408085208581556001810186905560028101805460ff19169055600381018690556004810180546001600160a01b031990811690915560058201805482169055600690910180549091169055600f90915283209290925592909150565b60408101516001600160f81b03191660000361402d5760405162461bcd60e51b815260206004820152600f60248201526e24b73b30b634b22837b9b4ba34b7b760891b6044820152606401610bc2565b60c08101516001600160a01b0316336001600160a01b03161461288d5760405162461bcd60e51b8152600401610bc290614bf8565b6000613ae58284615071565b8082602001511115611b3c57606082015160808301516001600160a01b03908116600090815260026020908152604080832060a08801519094168352928152828220838701516001600160f81b0319168352905290812060010180549091906140d8908490615093565b9091555050606082015160808301516001600160a01b03908116600090815260036020908152604080832060a08801519094168352928152828220838701516001600160f81b0319168352815291812091850151614137906001614e5c565b815260200190815260200160002060008282546141549190615093565b90915550505050565b606081015160808201516001600160a01b03908116600090815260026020908152604080832060a08701519094168352928152828220838601516001600160f81b0319168352905290812060010180549091906141bb908490614e5c565b9091555050606081015160808201516001600160a01b03908116600090815260036020908152604080832060a08701519094168352928152828220838601516001600160f81b031916835281529181209184015161421a906001614e5c565b815260200190815260200160002060008282546142379190614e5c565b909155505050565b6000614294826040518060400160405280602081526020017f5361666545524332303a206c6f772d6c6576656c2063616c6c206661696c6564815250856001600160a01b03166143819092919063ffffffff16565b805190915015612d1c57808060200190518101906142b29190615225565b612d1c5760405162461bcd60e51b815260206004820152602a60248201527f5361666545524332303a204552433230206f7065726174696f6e20646964206e6044820152691bdd081cdd58d8d9595960b21b6064820152608401610bc2565b600554600160a01b900460ff16610e635760405162461bcd60e51b815260206004820152601460248201527f5061757361626c653a206e6f74207061757365640000000000000000000000006044820152606401610bc2565b600083614377838561505a565b6126759190615071565b60606126758484600085856001600160a01b0385163b6143e35760405162461bcd60e51b815260206004820152601d60248201527f416464726573733a2063616c6c20746f206e6f6e2d636f6e74726163740000006044820152606401610bc2565b600080866001600160a01b031685876040516143ff91906150d7565b60006040518083038185875af1925050503d806000811461443c576040519150601f19603f3d011682016040523d82523d6000602084013e614441565b606091505b509150915061445182828661445c565b979650505050505050565b6060831561446b575081613ae5565b82511561447b5782518084602001fd5b8160405162461bcd60e51b8152600401610bc29190615242565b6040518060e0016040528060006001600160a01b0316815260200160006001600160a01b031681526020016000815260200160008152602001600081526020016000815260200160006001600160f81b03191681525090565b634e487b7160e01b600052604160045260246000fd5b6040516060810167ffffffffffffffff81118282101715614527576145276144ee565b60405290565b604051610100810167ffffffffffffffff81118282101715614527576145276144ee565b600082601f83011261456257600080fd5b813567ffffffffffffffff8082111561457d5761457d6144ee565b604051601f8301601f19908116603f011681019082821181831017156145a5576145a56144ee565b816040528381528660208588010111156145be57600080fd5b836020870160208301376000602085830101528094505050505092915050565b801515811461288d57600080fd5b60008060008060008060c0878903121561460557600080fd5b863595506020870135945060408701359350606087013567ffffffffffffffff81111561463157600080fd5b61463d89828a01614551565b935050608087013561464e816145de565b915060a087013561465e816145de565b809150509295509295509295565b6001600160a01b038116811461288d57600080fd5b60006020828403121561469357600080fd5b8135613ae58161466c565b6000602082840312156146b057600080fd5b5035919050565b60008083601f8401126146c957600080fd5b50813567ffffffffffffffff8111156146e157600080fd5b6020830191508360208260051b85010111156130a557600080fd5b6000806020838503121561470f57600080fd5b823567ffffffffffffffff81111561472657600080fd5b614732858286016146b7565b90969095509350505050565b80356001600160f81b03198116811461475657600080fd5b919050565b6000806000806080858703121561477157600080fd5b843561477c8161466c565b9350602085013561478c8161466c565b925061479a6040860161473e565b9396929550929360600135925050565b600080604083850312156147bd57600080fd5b82356147c88161466c565b915060208301356147d88161466c565b809150509250929050565b6000806000604084860312156147f857600080fd5b833567ffffffffffffffff81111561480f57600080fd5b61481b868287016146b7565b909450925050602084013561482f8161466c565b809150509250925092565b600081518084526020808501945080840160005b838110156148be57815180516001600160a01b03908116895284820151168489015260408082015190890152606080820151908901526080808201519089015260a0808201519089015260c0908101516001600160f81b0319169088015260e0909601959082019060010161484e565b509495945050505050565b602081526000613ae5602083018461483a565b6000806000606084860312156148f157600080fd5b83356148fc8161466c565b9250602084013561490c8161466c565b929592945050506040919091013590565b60008060006060848603121561493257600080fd5b8335925060208401356149448161466c565b9150604084013561482f816145de565b60008060006060848603121561496957600080fd5b83356149748161466c565b925060208401356149848161466c565b91506149926040850161473e565b90509250925092565b803563ffffffff8116811461475657600080fd5b60008060008060008060c087890312156149c857600080fd5b86356149d38161466c565b955060208701356149e38161466c565b9450604087013567ffffffffffffffff8111156149ff57600080fd5b614a0b89828a01614551565b9450506060870135925060808701359150614a2860a0880161499b565b90509295509295509295565b81516001600160a01b03908116825260208084015182169083015260408084015191821690830152610120820190506060830151614a7a606084018263ffffffff169052565b506080830151608083015260a083015160a083015260c083015160c083015260e083015160e083015261010080840151818401525092915050565b60008060208385031215614ac857600080fd5b823567ffffffffffffffff80821115614ae057600080fd5b818501915085601f830112614af457600080fd5b813581811115614b0357600080fd5b8660208260061b8501011115614b1857600080fd5b60209290920196919550909350505050565b6020808252825182820181905260009190848201906040850190845b81811015614b6257835183529284019291840191600101614b46565b50909695505050505050565b60008060008060808587031215614b8457600080fd5b843593506020850135614b968161466c565b92506040850135614ba68161466c565b91506060850135614bb6816145de565b939692955090935050565b600080600060608486031215614bd657600080fd5b8335614be18161466c565b925060208401359150604084013561482f8161466c565b6020808252601290820152712ab730baba3437b934bd32b221b0b63632b960711b604082015260600190565b8183526000602080850194508260005b858110156148be578135614c478161466c565b6001600160a01b031687529582019590820190600101614c34565b602081526000612675602083018486614c24565b634e487b7160e01b600052603260045260246000fd5b600060208284031215614c9e57600080fd5b613ae58261499b565b634e487b7160e01b600052601160045260246000fd5b600060018201614ccf57614ccf614ca7565b5060010190565b60208082528181018390526000908460408401835b86811015614d145763ffffffff614d018461499b565b1682529183019190830190600101614ceb565b509695505050505050565b60008235605e19833603018112614d3557600080fd5b9190910192915050565b80356147568161466c565b600060608236031215614d5c57600080fd5b614d64614504565b8235614d6f8161466c565b8152602083013567ffffffffffffffff80821115614d8c57600080fd5b81850191506101008236031215614da257600080fd5b614daa61452d565b614db383614d3f565b8152614dc160208401614d3f565b6020820152614dd260408401614d3f565b6040820152614de360608401614d3f565b60608201526080830135608082015260a083013560a082015260c083013560c082015260e083013582811115614e1857600080fd5b614e2436828601614551565b60e08301525060208401526040850135915080821115614e4357600080fd5b50614e5036828601614551565b60408301525092915050565b80820180821115611ef257611ef2614ca7565b60005b83811015614e8a578181015183820152602001614e72565b50506000910152565b60008151808452614eab816020860160208601614e6f565b601f01601f19169290920160200192915050565b60006001600160a01b03808616835260606020840152808551166060840152506020840151614ef960808401826001600160a01b03169052565b5060408401516001600160a01b03811660a08401525060608401516001600160a01b03811660c084015250608084015160e083015260a0840151610100818185015260c086015161012085015260e086015191508061014085015250614f63610160840182614e93565b90508281036040840152613d5e8185614e93565b60008060408385031215614f8a57600080fd5b505080516020909101519092909150565b604081526000614fae604083018561483a565b90508260208301529392505050565b6020808252600b908201526a5a65726f4164647265737360a81b604082015260600190565b600060408284031215614ff457600080fd5b6040516040810181811067ffffffffffffffff82111715615017576150176144ee565b60405282356150258161466c565b815260208301356150358161466c565b60208201529392505050565b60006020828403121561505357600080fd5b5051919050565b8082028115828204841417611ef257611ef2614ca7565b60008261508e57634e487b7160e01b600052601260045260246000fd5b500490565b81810381811115611ef257611ef2614ca7565b6001600160e01b03198316815281516000906150c9816004850160208701614e6f565b919091016004019392505050565b60008251614d35818460208701614e6f565b6000602082840312156150fb57600080fd5b815160ff81168114613ae557600080fd5b600181815b8085111561514757816000190482111561512d5761512d614ca7565b8085161561513a57918102915b93841c9390800290615111565b509250929050565b60008261515e57506001611ef2565b8161516b57506000611ef2565b8160018114615181576002811461518b576151a7565b6001915050611ef2565b60ff84111561519c5761519c614ca7565b50506001821b611ef2565b5060208310610133831016604e8410600b84101617156151ca575081810a611ef2565b6151d4838361510c565b80600019048211156151e8576151e8614ca7565b029392505050565b6000613ae560ff84168361514f565b604081526000615213604083018587614c24565b90508215156020830152949350505050565b60006020828403121561523757600080fd5b8151613ae5816145de565b602081526000613ae56020830184614e9356fea2646970667358221220a11a40f23ea6eb703bbccee5c4ad37b7e1e523502f1cf149f6692b25ca9cb5c664736f6c63430008110033",
    "linkReferences": {},
    "deployedLinkReferences": {}
}