{
    "_format": "hh-sol-artifact-1",
    "contractName": "DZapDCA",
    "sourceName": "contracts/core/DZapDCA.sol",
    "abi": [
        {
            "inputs": [
                {
                    "internalType": "address",
                    "name": "governor_",
                    "type": "address"
                },
                {
                    "internalType": "address",
                    "name": "wNative_",
                    "type": "address"
                },
                {
                    "internalType": "address",
                    "name": "oneInchRouter_",
                    "type": "address"
                },
                {
                    "internalType": "address",
                    "name": "oracle_",
                    "type": "address"
                },
                {
                    "internalType": "address",
                    "name": "feeVault_",
                    "type": "address"
                },
                {
                    "internalType": "uint256",
                    "name": "slippage_",
                    "type": "uint256"
                }
            ],
            "stateMutability": "nonpayable",
            "type": "constructor"
        },
        {
            "inputs": [],
            "name": "InvalidInterval",
            "type": "error"
        },
        {
            "inputs": [],
            "name": "InvalidMask",
            "type": "error"
        },
        {
            "anonymous": false,
            "inputs": [
                {
                    "indexed": false,
                    "internalType": "address[]",
                    "name": "accounts",
                    "type": "address[]"
                }
            ],
            "name": "AdminAdded",
            "type": "event"
        },
        {
            "anonymous": false,
            "inputs": [
                {
                    "indexed": false,
                    "internalType": "address[]",
                    "name": "accounts",
                    "type": "address[]"
                }
            ],
            "name": "AdminRemoved",
            "type": "event"
        },
        {
            "anonymous": false,
            "inputs": [
                {
                    "indexed": true,
                    "internalType": "address",
                    "name": "owner",
                    "type": "address"
                },
                {
                    "indexed": false,
                    "internalType": "uint256",
                    "name": "positionId",
                    "type": "uint256"
                },
                {
                    "indexed": false,
                    "internalType": "address",
                    "name": "fromToken",
                    "type": "address"
                },
                {
                    "indexed": false,
                    "internalType": "address",
                    "name": "toToken",
                    "type": "address"
                },
                {
                    "indexed": false,
                    "internalType": "uint256",
                    "name": "swapInterval",
                    "type": "uint256"
                },
                {
                    "indexed": false,
                    "internalType": "uint256",
                    "name": "rate",
                    "type": "uint256"
                },
                {
                    "indexed": false,
                    "internalType": "uint256",
                    "name": "startingSwap",
                    "type": "uint256"
                },
                {
                    "indexed": false,
                    "internalType": "uint256",
                    "name": "finalSwap",
                    "type": "uint256"
                },
                {
                    "indexed": false,
                    "internalType": "bool",
                    "name": "nativeFlag",
                    "type": "bool"
                }
            ],
            "name": "Created",
            "type": "event"
        },
        {
            "anonymous": false,
            "inputs": [
                {
                    "indexed": false,
                    "internalType": "address",
                    "name": "feeVault",
                    "type": "address"
                }
            ],
            "name": "FeeVaultUpdated",
            "type": "event"
        },
        {
            "anonymous": false,
            "inputs": [
                {
                    "indexed": true,
                    "internalType": "address",
                    "name": "formerGov",
                    "type": "address"
                },
                {
                    "indexed": true,
                    "internalType": "address",
                    "name": "newGov",
                    "type": "address"
                }
            ],
            "name": "GovernanceChanged",
            "type": "event"
        },
        {
            "anonymous": false,
            "inputs": [
                {
                    "indexed": true,
                    "internalType": "address",
                    "name": "user",
                    "type": "address"
                },
                {
                    "indexed": false,
                    "internalType": "uint256",
                    "name": "positionId",
                    "type": "uint256"
                },
                {
                    "indexed": false,
                    "internalType": "uint256",
                    "name": "rate",
                    "type": "uint256"
                },
                {
                    "indexed": false,
                    "internalType": "uint256",
                    "name": "startingSwap",
                    "type": "uint256"
                },
                {
                    "indexed": false,
                    "internalType": "uint256",
                    "name": "finalSwap",
                    "type": "uint256"
                },
                {
                    "indexed": false,
                    "internalType": "bool",
                    "name": "flag",
                    "type": "bool"
                },
                {
                    "indexed": false,
                    "internalType": "bool",
                    "name": "nativeFlag",
                    "type": "bool"
                }
            ],
            "name": "Modified",
            "type": "event"
        },
        {
            "anonymous": false,
            "inputs": [
                {
                    "indexed": false,
                    "internalType": "address",
                    "name": "oracle",
                    "type": "address"
                }
            ],
            "name": "OracleUpdated",
            "type": "event"
        },
        {
            "anonymous": false,
            "inputs": [
                {
                    "indexed": false,
                    "internalType": "address",
                    "name": "account",
                    "type": "address"
                }
            ],
            "name": "Paused",
            "type": "event"
        },
        {
            "anonymous": false,
            "inputs": [
                {
                    "indexed": false,
                    "internalType": "uint256",
                    "name": "platformFeeRatio",
                    "type": "uint256"
                }
            ],
            "name": "PlatformFeeRatioUpdated",
            "type": "event"
        },
        {
            "anonymous": false,
            "inputs": [
                {
                    "indexed": false,
                    "internalType": "uint256",
                    "name": "slippage",
                    "type": "uint256"
                }
            ],
            "name": "SlippageUpdated",
            "type": "event"
        },
        {
            "anonymous": false,
            "inputs": [
                {
                    "indexed": false,
                    "internalType": "uint256",
                    "name": "feeSet",
                    "type": "uint256"
                }
            ],
            "name": "SwapFeeUpdated",
            "type": "event"
        },
        {
            "anonymous": false,
            "inputs": [
                {
                    "indexed": false,
                    "internalType": "uint32[]",
                    "name": "swapIntervals",
                    "type": "uint32[]"
                },
                {
                    "indexed": false,
                    "internalType": "bool",
                    "name": "allowed",
                    "type": "bool"
                }
            ],
            "name": "SwapIntervalsUpdated",
            "type": "event"
        },
        {
            "anonymous": false,
            "inputs": [
                {
                    "indexed": true,
                    "internalType": "address",
                    "name": "sender",
                    "type": "address"
                },
                {
                    "indexed": true,
                    "internalType": "address",
                    "name": "rewardRecipient",
                    "type": "address"
                },
                {
                    "components": [
                        {
                            "internalType": "address",
                            "name": "fromToken",
                            "type": "address"
                        },
                        {
                            "internalType": "address",
                            "name": "toToken",
                            "type": "address"
                        },
                        {
                            "internalType": "uint256",
                            "name": "swappedAmount",
                            "type": "uint256"
                        },
                        {
                            "internalType": "uint256",
                            "name": "receivedAmount",
                            "type": "uint256"
                        },
                        {
                            "internalType": "uint256",
                            "name": "reward",
                            "type": "uint256"
                        },
                        {
                            "internalType": "uint256",
                            "name": "platformFee",
                            "type": "uint256"
                        },
                        {
                            "internalType": "bytes1",
                            "name": "intervalsInSwap",
                            "type": "bytes1"
                        }
                    ],
                    "indexed": false,
                    "internalType": "struct SwapInfo[]",
                    "name": "swapInformation",
                    "type": "tuple[]"
                },
                {
                    "indexed": false,
                    "internalType": "uint256",
                    "name": "swapFee",
                    "type": "uint256"
                }
            ],
            "name": "Swapped",
            "type": "event"
        },
        {
            "anonymous": false,
            "inputs": [
                {
                    "indexed": true,
                    "internalType": "address",
                    "name": "user",
                    "type": "address"
                },
                {
                    "indexed": true,
                    "internalType": "address",
                    "name": "recipientSwapped",
                    "type": "address"
                },
                {
                    "indexed": true,
                    "internalType": "address",
                    "name": "recipientUnswapped",
                    "type": "address"
                },
                {
                    "indexed": false,
                    "internalType": "uint256",
                    "name": "positionId",
                    "type": "uint256"
                },
                {
                    "indexed": false,
                    "internalType": "uint256",
                    "name": "returnedSwapped",
                    "type": "uint256"
                },
                {
                    "indexed": false,
                    "internalType": "uint256",
                    "name": "returnedUnswapped",
                    "type": "uint256"
                },
                {
                    "indexed": false,
                    "internalType": "bool",
                    "name": "nativeFlag",
                    "type": "bool"
                }
            ],
            "name": "Terminated",
            "type": "event"
        },
        {
            "anonymous": false,
            "inputs": [
                {
                    "indexed": false,
                    "internalType": "address[]",
                    "name": "tokens",
                    "type": "address[]"
                },
                {
                    "indexed": false,
                    "internalType": "bool",
                    "name": "allowed",
                    "type": "bool"
                }
            ],
            "name": "TokensAllowedUpdated",
            "type": "event"
        },
        {
            "anonymous": false,
            "inputs": [
                {
                    "indexed": true,
                    "internalType": "address",
                    "name": "to",
                    "type": "address"
                },
                {
                    "indexed": true,
                    "internalType": "address",
                    "name": "token",
                    "type": "address"
                },
                {
                    "indexed": false,
                    "internalType": "uint256",
                    "name": "amount",
                    "type": "uint256"
                }
            ],
            "name": "TokensRescued",
            "type": "event"
        },
        {
            "anonymous": false,
            "inputs": [
                {
                    "indexed": false,
                    "internalType": "address",
                    "name": "account",
                    "type": "address"
                }
            ],
            "name": "Unpaused",
            "type": "event"
        },
        {
            "anonymous": false,
            "inputs": [
                {
                    "indexed": true,
                    "internalType": "address",
                    "name": "withdrawer",
                    "type": "address"
                },
                {
                    "indexed": true,
                    "internalType": "address",
                    "name": "recipient",
                    "type": "address"
                },
                {
                    "indexed": false,
                    "internalType": "uint256",
                    "name": "positionId",
                    "type": "uint256"
                },
                {
                    "indexed": false,
                    "internalType": "uint256",
                    "name": "amount",
                    "type": "uint256"
                },
                {
                    "indexed": false,
                    "internalType": "bool",
                    "name": "nativeFlag",
                    "type": "bool"
                }
            ],
            "name": "Withdrew",
            "type": "event"
        },
        {
            "inputs": [],
            "name": "BPS_DENOMINATOR",
            "outputs": [
                {
                    "internalType": "uint256",
                    "name": "",
                    "type": "uint256"
                }
            ],
            "stateMutability": "view",
            "type": "function"
        },
        {
            "inputs": [],
            "name": "MAX_FEE",
            "outputs": [
                {
                    "internalType": "uint256",
                    "name": "",
                    "type": "uint256"
                }
            ],
            "stateMutability": "view",
            "type": "function"
        },
        {
            "inputs": [],
            "name": "MAX_PLATFORM_FEE_RATIO",
            "outputs": [
                {
                    "internalType": "uint256",
                    "name": "",
                    "type": "uint256"
                }
            ],
            "stateMutability": "view",
            "type": "function"
        },
        {
            "inputs": [],
            "name": "MAX_SLIPPAGE",
            "outputs": [
                {
                    "internalType": "uint256",
                    "name": "",
                    "type": "uint256"
                }
            ],
            "stateMutability": "view",
            "type": "function"
        },
        {
            "inputs": [],
            "name": "NATIVE_TOKEN",
            "outputs": [
                {
                    "internalType": "address",
                    "name": "",
                    "type": "address"
                }
            ],
            "stateMutability": "view",
            "type": "function"
        },
        {
            "inputs": [],
            "name": "ONE_INCH_ROUTER",
            "outputs": [
                {
                    "internalType": "address",
                    "name": "",
                    "type": "address"
                }
            ],
            "stateMutability": "view",
            "type": "function"
        },
        {
            "inputs": [
                {
                    "internalType": "address",
                    "name": "",
                    "type": "address"
                },
                {
                    "internalType": "address",
                    "name": "",
                    "type": "address"
                },
                {
                    "internalType": "bytes1",
                    "name": "",
                    "type": "bytes1"
                },
                {
                    "internalType": "uint256",
                    "name": "",
                    "type": "uint256"
                }
            ],
            "name": "accumRatio",
            "outputs": [
                {
                    "internalType": "uint256",
                    "name": "",
                    "type": "uint256"
                }
            ],
            "stateMutability": "view",
            "type": "function"
        },
        {
            "inputs": [
                {
                    "internalType": "address",
                    "name": "",
                    "type": "address"
                },
                {
                    "internalType": "address",
                    "name": "",
                    "type": "address"
                }
            ],
            "name": "activeSwapIntervals",
            "outputs": [
                {
                    "internalType": "bytes1",
                    "name": "",
                    "type": "bytes1"
                }
            ],
            "stateMutability": "view",
            "type": "function"
        },
        {
            "inputs": [
                {
                    "internalType": "address[]",
                    "name": "accounts_",
                    "type": "address[]"
                }
            ],
            "name": "addAdmins",
            "outputs": [],
            "stateMutability": "nonpayable",
            "type": "function"
        },
        {
            "inputs": [
                {
                    "internalType": "address[]",
                    "name": "tokens_",
                    "type": "address[]"
                }
            ],
            "name": "addAllowedTokens",
            "outputs": [],
            "stateMutability": "nonpayable",
            "type": "function"
        },
        {
            "inputs": [
                {
                    "internalType": "uint32[]",
                    "name": "swapIntervals_",
                    "type": "uint32[]"
                }
            ],
            "name": "addSwapIntervalsToAllowedList",
            "outputs": [],
            "stateMutability": "nonpayable",
            "type": "function"
        },
        {
            "inputs": [
                {
                    "internalType": "address",
                    "name": "",
                    "type": "address"
                }
            ],
            "name": "admins",
            "outputs": [
                {
                    "internalType": "bool",
                    "name": "",
                    "type": "bool"
                }
            ],
            "stateMutability": "view",
            "type": "function"
        },
        {
            "inputs": [],
            "name": "allowedSwapIntervals",
            "outputs": [
                {
                    "internalType": "bytes1",
                    "name": "",
                    "type": "bytes1"
                }
            ],
            "stateMutability": "view",
            "type": "function"
        },
        {
            "inputs": [
                {
                    "internalType": "address",
                    "name": "",
                    "type": "address"
                }
            ],
            "name": "allowedTokens",
            "outputs": [
                {
                    "internalType": "bool",
                    "name": "",
                    "type": "bool"
                }
            ],
            "stateMutability": "view",
            "type": "function"
        },
        {
            "inputs": [
                {
                    "internalType": "address",
                    "name": "newGov",
                    "type": "address"
                }
            ],
            "name": "changeGovernance",
            "outputs": [],
            "stateMutability": "nonpayable",
            "type": "function"
        },
        {
            "inputs": [
                {
                    "internalType": "address",
                    "name": "from_",
                    "type": "address"
                },
                {
                    "internalType": "address",
                    "name": "to_",
                    "type": "address"
                },
                {
                    "internalType": "bytes",
                    "name": "permit_",
                    "type": "bytes"
                },
                {
                    "internalType": "uint256",
                    "name": "amount_",
                    "type": "uint256"
                },
                {
                    "internalType": "uint256",
                    "name": "noOfSwaps_",
                    "type": "uint256"
                },
                {
                    "internalType": "uint32",
                    "name": "swapInterval_",
                    "type": "uint32"
                }
            ],
            "name": "createPosition",
            "outputs": [
                {
                    "internalType": "uint256",
                    "name": "",
                    "type": "uint256"
                }
            ],
            "stateMutability": "payable",
            "type": "function"
        },
        {
            "inputs": [],
            "name": "feeVault",
            "outputs": [
                {
                    "internalType": "address",
                    "name": "",
                    "type": "address"
                }
            ],
            "stateMutability": "view",
            "type": "function"
        },
        {
            "inputs": [
                {
                    "components": [
                        {
                            "internalType": "address",
                            "name": "from",
                            "type": "address"
                        },
                        {
                            "internalType": "address",
                            "name": "to",
                            "type": "address"
                        }
                    ],
                    "internalType": "struct Pair[]",
                    "name": "pairs_",
                    "type": "tuple[]"
                }
            ],
            "name": "getNextSwapInfo",
            "outputs": [
                {
                    "components": [
                        {
                            "internalType": "address",
                            "name": "fromToken",
                            "type": "address"
                        },
                        {
                            "internalType": "address",
                            "name": "toToken",
                            "type": "address"
                        },
                        {
                            "internalType": "uint256",
                            "name": "swappedAmount",
                            "type": "uint256"
                        },
                        {
                            "internalType": "uint256",
                            "name": "receivedAmount",
                            "type": "uint256"
                        },
                        {
                            "internalType": "uint256",
                            "name": "reward",
                            "type": "uint256"
                        },
                        {
                            "internalType": "uint256",
                            "name": "platformFee",
                            "type": "uint256"
                        },
                        {
                            "internalType": "bytes1",
                            "name": "intervalsInSwap",
                            "type": "bytes1"
                        }
                    ],
                    "internalType": "struct SwapInfo[]",
                    "name": "",
                    "type": "tuple[]"
                }
            ],
            "stateMutability": "view",
            "type": "function"
        },
        {
            "inputs": [
                {
                    "internalType": "uint256",
                    "name": "positionId_",
                    "type": "uint256"
                }
            ],
            "name": "getPositionDetails",
            "outputs": [
                {
                    "components": [
                        {
                            "internalType": "address",
                            "name": "owner",
                            "type": "address"
                        },
                        {
                            "internalType": "address",
                            "name": "from",
                            "type": "address"
                        },
                        {
                            "internalType": "address",
                            "name": "to",
                            "type": "address"
                        },
                        {
                            "internalType": "uint32",
                            "name": "swapInterval",
                            "type": "uint32"
                        },
                        {
                            "internalType": "uint256",
                            "name": "rate",
                            "type": "uint256"
                        },
                        {
                            "internalType": "uint256",
                            "name": "swapsExecuted",
                            "type": "uint256"
                        },
                        {
                            "internalType": "uint256",
                            "name": "swapsLeft",
                            "type": "uint256"
                        },
                        {
                            "internalType": "uint256",
                            "name": "swapped",
                            "type": "uint256"
                        },
                        {
                            "internalType": "uint256",
                            "name": "unswapped",
                            "type": "uint256"
                        }
                    ],
                    "internalType": "struct PositionInfo",
                    "name": "positionInfo",
                    "type": "tuple"
                }
            ],
            "stateMutability": "view",
            "type": "function"
        },
        {
            "inputs": [
                {
                    "internalType": "address",
                    "name": "tokenIn_",
                    "type": "address"
                },
                {
                    "internalType": "uint256",
                    "name": "amountIn_",
                    "type": "uint256"
                },
                {
                    "internalType": "address",
                    "name": "tokenOut_",
                    "type": "address"
                }
            ],
            "name": "getQuote",
            "outputs": [
                {
                    "internalType": "uint256",
                    "name": "amountOut",
                    "type": "uint256"
                }
            ],
            "stateMutability": "view",
            "type": "function"
        },
        {
            "inputs": [],
            "name": "governance",
            "outputs": [
                {
                    "internalType": "address",
                    "name": "",
                    "type": "address"
                }
            ],
            "stateMutability": "view",
            "type": "function"
        },
        {
            "inputs": [
                {
                    "internalType": "uint256",
                    "name": "positionId_",
                    "type": "uint256"
                },
                {
                    "internalType": "uint256",
                    "name": "amount_",
                    "type": "uint256"
                },
                {
                    "internalType": "uint256",
                    "name": "newAmountOfSwaps_",
                    "type": "uint256"
                },
                {
                    "internalType": "bytes",
                    "name": "permit_",
                    "type": "bytes"
                },
                {
                    "internalType": "bool",
                    "name": "flag_",
                    "type": "bool"
                },
                {
                    "internalType": "bool",
                    "name": "nativeFlag_",
                    "type": "bool"
                }
            ],
            "name": "modifyPosition",
            "outputs": [],
            "stateMutability": "payable",
            "type": "function"
        },
        {
            "inputs": [],
            "name": "oracle",
            "outputs": [
                {
                    "internalType": "contract IChainlinkOracle",
                    "name": "",
                    "type": "address"
                }
            ],
            "stateMutability": "view",
            "type": "function"
        },
        {
            "inputs": [],
            "name": "pause",
            "outputs": [],
            "stateMutability": "nonpayable",
            "type": "function"
        },
        {
            "inputs": [],
            "name": "paused",
            "outputs": [
                {
                    "internalType": "bool",
                    "name": "",
                    "type": "bool"
                }
            ],
            "stateMutability": "view",
            "type": "function"
        },
        {
            "inputs": [],
            "name": "platformFeeRatio",
            "outputs": [
                {
                    "internalType": "uint256",
                    "name": "",
                    "type": "uint256"
                }
            ],
            "stateMutability": "view",
            "type": "function"
        },
        {
            "inputs": [
                {
                    "internalType": "address[]",
                    "name": "accounts_",
                    "type": "address[]"
                }
            ],
            "name": "removeAdmins",
            "outputs": [],
            "stateMutability": "nonpayable",
            "type": "function"
        },
        {
            "inputs": [
                {
                    "internalType": "address[]",
                    "name": "tokens_",
                    "type": "address[]"
                }
            ],
            "name": "removeAllowedTokens",
            "outputs": [],
            "stateMutability": "nonpayable",
            "type": "function"
        },
        {
            "inputs": [
                {
                    "internalType": "uint32[]",
                    "name": "swapIntervals_",
                    "type": "uint32[]"
                }
            ],
            "name": "removeSwapIntervalsFromAllowedList",
            "outputs": [],
            "stateMutability": "nonpayable",
            "type": "function"
        },
        {
            "inputs": [
                {
                    "internalType": "address",
                    "name": "token_",
                    "type": "address"
                },
                {
                    "internalType": "address",
                    "name": "to_",
                    "type": "address"
                },
                {
                    "internalType": "uint256",
                    "name": "amount_",
                    "type": "uint256"
                }
            ],
            "name": "rescueFunds",
            "outputs": [],
            "stateMutability": "nonpayable",
            "type": "function"
        },
        {
            "inputs": [
                {
                    "components": [
                        {
                            "internalType": "address",
                            "name": "from",
                            "type": "address"
                        },
                        {
                            "internalType": "address",
                            "name": "to",
                            "type": "address"
                        }
                    ],
                    "internalType": "struct Pair[]",
                    "name": "pairs_",
                    "type": "tuple[]"
                }
            ],
            "name": "secondsUntilNextSwap",
            "outputs": [
                {
                    "internalType": "uint256[]",
                    "name": "",
                    "type": "uint256[]"
                }
            ],
            "stateMutability": "view",
            "type": "function"
        },
        {
            "inputs": [
                {
                    "internalType": "address",
                    "name": "newVault_",
                    "type": "address"
                }
            ],
            "name": "setFeeVault",
            "outputs": [],
            "stateMutability": "nonpayable",
            "type": "function"
        },
        {
            "inputs": [
                {
                    "internalType": "address",
                    "name": "oracle_",
                    "type": "address"
                }
            ],
            "name": "setOracle",
            "outputs": [],
            "stateMutability": "nonpayable",
            "type": "function"
        },
        {
            "inputs": [
                {
                    "internalType": "uint256",
                    "name": "platformFeeRatio_",
                    "type": "uint256"
                }
            ],
            "name": "setPlatformFeeRatio",
            "outputs": [],
            "stateMutability": "nonpayable",
            "type": "function"
        },
        {
            "inputs": [
                {
                    "internalType": "uint256",
                    "name": "newSlippage_",
                    "type": "uint256"
                }
            ],
            "name": "setSlippage",
            "outputs": [],
            "stateMutability": "nonpayable",
            "type": "function"
        },
        {
            "inputs": [
                {
                    "internalType": "uint256",
                    "name": "swapFee_",
                    "type": "uint256"
                }
            ],
            "name": "setSwapFee",
            "outputs": [],
            "stateMutability": "nonpayable",
            "type": "function"
        },
        {
            "inputs": [],
            "name": "slippage",
            "outputs": [
                {
                    "internalType": "uint256",
                    "name": "",
                    "type": "uint256"
                }
            ],
            "stateMutability": "view",
            "type": "function"
        },
        {
            "inputs": [
                {
                    "components": [
                        {
                            "internalType": "contract IAggregationExecutor",
                            "name": "executor",
                            "type": "address"
                        },
                        {
                            "components": [
                                {
                                    "internalType": "contract IERC20",
                                    "name": "srcToken",
                                    "type": "address"
                                },
                                {
                                    "internalType": "contract IERC20",
                                    "name": "dstToken",
                                    "type": "address"
                                },
                                {
                                    "internalType": "address payable",
                                    "name": "srcReceiver",
                                    "type": "address"
                                },
                                {
                                    "internalType": "address payable",
                                    "name": "dstReceiver",
                                    "type": "address"
                                },
                                {
                                    "internalType": "uint256",
                                    "name": "amount",
                                    "type": "uint256"
                                },
                                {
                                    "internalType": "uint256",
                                    "name": "minReturnAmount",
                                    "type": "uint256"
                                },
                                {
                                    "internalType": "uint256",
                                    "name": "flags",
                                    "type": "uint256"
                                },
                                {
                                    "internalType": "bytes",
                                    "name": "permit",
                                    "type": "bytes"
                                }
                            ],
                            "internalType": "struct SwapDescription",
                            "name": "desc",
                            "type": "tuple"
                        },
                        {
                            "internalType": "bytes",
                            "name": "routeData",
                            "type": "bytes"
                        }
                    ],
                    "internalType": "struct SwapDetails[]",
                    "name": "data_",
                    "type": "tuple[]"
                },
                {
                    "internalType": "address",
                    "name": "rewardRecipient_",
                    "type": "address"
                }
            ],
            "name": "swap",
            "outputs": [
                {
                    "components": [
                        {
                            "internalType": "address",
                            "name": "fromToken",
                            "type": "address"
                        },
                        {
                            "internalType": "address",
                            "name": "toToken",
                            "type": "address"
                        },
                        {
                            "internalType": "uint256",
                            "name": "swappedAmount",
                            "type": "uint256"
                        },
                        {
                            "internalType": "uint256",
                            "name": "receivedAmount",
                            "type": "uint256"
                        },
                        {
                            "internalType": "uint256",
                            "name": "reward",
                            "type": "uint256"
                        },
                        {
                            "internalType": "uint256",
                            "name": "platformFee",
                            "type": "uint256"
                        },
                        {
                            "internalType": "bytes1",
                            "name": "intervalsInSwap",
                            "type": "bytes1"
                        }
                    ],
                    "internalType": "struct SwapInfo[]",
                    "name": "",
                    "type": "tuple[]"
                }
            ],
            "stateMutability": "nonpayable",
            "type": "function"
        },
        {
            "inputs": [
                {
                    "internalType": "address",
                    "name": "",
                    "type": "address"
                },
                {
                    "internalType": "address",
                    "name": "",
                    "type": "address"
                },
                {
                    "internalType": "bytes1",
                    "name": "",
                    "type": "bytes1"
                },
                {
                    "internalType": "uint256",
                    "name": "",
                    "type": "uint256"
                }
            ],
            "name": "swapAmountDelta",
            "outputs": [
                {
                    "internalType": "uint256",
                    "name": "",
                    "type": "uint256"
                }
            ],
            "stateMutability": "view",
            "type": "function"
        },
        {
            "inputs": [
                {
                    "internalType": "address",
                    "name": "",
                    "type": "address"
                },
                {
                    "internalType": "address",
                    "name": "",
                    "type": "address"
                },
                {
                    "internalType": "bytes1",
                    "name": "",
                    "type": "bytes1"
                }
            ],
            "name": "swapData",
            "outputs": [
                {
                    "internalType": "uint256",
                    "name": "performedSwaps",
                    "type": "uint256"
                },
                {
                    "internalType": "uint256",
                    "name": "nextAmountToSwap",
                    "type": "uint256"
                },
                {
                    "internalType": "uint256",
                    "name": "lastSwappedAt",
                    "type": "uint256"
                }
            ],
            "stateMutability": "view",
            "type": "function"
        },
        {
            "inputs": [],
            "name": "swapFee",
            "outputs": [
                {
                    "internalType": "uint256",
                    "name": "",
                    "type": "uint256"
                }
            ],
            "stateMutability": "view",
            "type": "function"
        },
        {
            "inputs": [
                {
                    "internalType": "uint256",
                    "name": "positionId_",
                    "type": "uint256"
                },
                {
                    "internalType": "address",
                    "name": "recipientSwapped_",
                    "type": "address"
                },
                {
                    "internalType": "address",
                    "name": "recipientUnswapped_",
                    "type": "address"
                },
                {
                    "internalType": "bool",
                    "name": "nativeFlag_",
                    "type": "bool"
                }
            ],
            "name": "terminate",
            "outputs": [],
            "stateMutability": "nonpayable",
            "type": "function"
        },
        {
            "inputs": [
                {
                    "internalType": "address",
                    "name": "",
                    "type": "address"
                }
            ],
            "name": "tokenMagnitude",
            "outputs": [
                {
                    "internalType": "uint256",
                    "name": "",
                    "type": "uint256"
                }
            ],
            "stateMutability": "view",
            "type": "function"
        },
        {
            "inputs": [],
            "name": "totalCreatedPositions",
            "outputs": [
                {
                    "internalType": "uint256",
                    "name": "",
                    "type": "uint256"
                }
            ],
            "stateMutability": "view",
            "type": "function"
        },
        {
            "inputs": [],
            "name": "unpause",
            "outputs": [],
            "stateMutability": "nonpayable",
            "type": "function"
        },
        {
            "inputs": [
                {
                    "internalType": "uint256",
                    "name": "",
                    "type": "uint256"
                }
            ],
            "name": "userPositions",
            "outputs": [
                {
                    "internalType": "uint256",
                    "name": "swapWhereLastUpdated",
                    "type": "uint256"
                },
                {
                    "internalType": "uint256",
                    "name": "finalSwap",
                    "type": "uint256"
                },
                {
                    "internalType": "bytes1",
                    "name": "swapIntervalMask",
                    "type": "bytes1"
                },
                {
                    "internalType": "uint256",
                    "name": "rate",
                    "type": "uint256"
                },
                {
                    "internalType": "address",
                    "name": "from",
                    "type": "address"
                },
                {
                    "internalType": "address",
                    "name": "to",
                    "type": "address"
                },
                {
                    "internalType": "address",
                    "name": "owner",
                    "type": "address"
                }
            ],
            "stateMutability": "view",
            "type": "function"
        },
        {
            "inputs": [],
            "name": "wNative",
            "outputs": [
                {
                    "internalType": "contract IWNative",
                    "name": "",
                    "type": "address"
                }
            ],
            "stateMutability": "view",
            "type": "function"
        },
        {
            "inputs": [
                {
                    "internalType": "uint256",
                    "name": "positionId_",
                    "type": "uint256"
                },
                {
                    "internalType": "address",
                    "name": "recipient_",
                    "type": "address"
                },
                {
                    "internalType": "bool",
                    "name": "nativeFlag_",
                    "type": "bool"
                }
            ],
            "name": "withdrawSwapped",
            "outputs": [],
            "stateMutability": "nonpayable",
            "type": "function"
        },
        {
            "stateMutability": "payable",
            "type": "receive"
        }
    ],
    "bytecode": "0x60c06040523480156200001157600080fd5b5060405162005550380380620055508339810160408190526200003491620001ef565b6001600055838686858585846001600160a01b0381166200008a5760405162461bcd60e51b815260206004820152600b60248201526a5a65726f4164647265737360a81b60448201526064015b60405180910390fd5b600580546001600160a01b0319166001600160a01b0383169081179091556040516000907f3aaaebeb4821d6a7e5c77ece53cff0afcc56c82add2c978dbbb7f73e84cbcfd2908290a3506005805460ff60a01b191690556101f4811115620001275760405162461bcd60e51b815260206004820152600f60248201526e496e76616c6964536c69707061676560881b604482015260640162000081565b6001600160a01b038216158015906200014857506001600160a01b03841615155b620001845760405162461bcd60e51b815260206004820152600b60248201526a5a65726f4164647265737360a81b604482015260640162000081565b600980546001600160a01b03199081166001600160a01b0394851617909155938216608052600c805490941692821692909217909255600d559190911660a052506200026795505050505050565b80516001600160a01b0381168114620001ea57600080fd5b919050565b60008060008060008060c087890312156200020957600080fd5b6200021487620001d2565b95506200022460208801620001d2565b94506200023460408801620001d2565b93506200024460608801620001d2565b92506200025460808801620001d2565b915060a087015190509295509295509295565b60805160a051615276620002da600039600081816109c5015281816111d7015261124601526000818161045a01528181610b510152818161160301528181611990015281816120dd0152818161211c015281816121b401528181612229015281816127fa0152612c5e01526152766000f3fe6080604052600436106103175760003560e01c8063750442501161019a578063a591f97f116100e1578063e581a3be1161008a578063f64dd29f11610064578063f64dd29f14610a57578063f70e663d14610a77578063f975951814610a9757600080fd5b8063e581a3be146109e7578063e744092e14610a07578063f0fa55a914610a3757600080fd5b8063cd0fe27c116100bb578063cd0fe27c14610993578063dd3fd925146109b3578063e1a452181461037857600080fd5b8063a591f97f1461093d578063bc063e1a1461095d578063c5c2dc8b1461097357600080fd5b80638456cb59116101435780639c54df641161011d5780639c54df64146108c35780639ecceb5e146108e3578063a2c346ec1461091057600080fd5b80638456cb591461086e5780638cf39d5f1461088357806399572d6f146108a357600080fd5b80637dc0d1d0116101745780637dc0d1d0146107d6578063808ba8e0146107f6578063821b5a2b1461085b57600080fd5b806375044250146107765780637adbf973146107965780637d8e8603146107b657600080fd5b8063429b62e51161025e578063582cf84b116102075780635c975abb116101e15780635c975abb1461070a5780636b425336146107295780636ccae0541461075657600080fd5b8063582cf84b1461066a57806359eecff1146106a55780635aa6e675146106ec57600080fd5b80634a149243116102385780634a149243146105f757806354cf2aeb1461063e57806357ae1cec1461065457600080fd5b8063429b62e51461055d578063478222c21461059d578063480e5da1146105bd57600080fd5b806334e19907116102c05780633e032a3b1161029a5780633e032a3b146105125780633f4ba83a146105285780633feb14931461053d57600080fd5b806334e19907146104bc57806336639580146104dc578063377e11e0146104f257600080fd5b80631e7f1370116102f15780631e7f13701461038e5780632d68efc91461044857806331f7d9641461049457600080fd5b8063136c274f1461032357806316cd7af8146103385780631b8b8c341461037857600080fd5b3661031e57005b600080fd5b6103366103313660046145cc565b610aad565b005b34801561034457600080fd5b50610365610353366004614661565b60076020526000908152604090205481565b6040519081526020015b60405180910390f35b34801561038457600080fd5b5061036561271081565b34801561039a57600080fd5b506103f86103a936600461467e565b600e6020526000908152604090208054600182015460028301546003840154600485015460058601546006909601549495939460f89390931b9391926001600160a01b03918216928216911687565b6040805197885260208801969096526001600160f81b03199094169486019490945260608501919091526001600160a01b03908116608085015291821660a08401521660c082015260e00161036f565b34801561045457600080fd5b5061047c7f000000000000000000000000000000000000000000000000000000000000000081565b6040516001600160a01b03909116815260200161036f565b3480156104a057600080fd5b5061047c73eeeeeeeeeeeeeeeeeeeeeeeeeeeeeeeeeeeeeeee81565b3480156104c857600080fd5b506103366104d736600461467e565b610d02565b3480156104e857600080fd5b5061036560105481565b3480156104fe57600080fd5b5061033661050d3660046146dc565b610dbe565b34801561051e57600080fd5b50610365600d5481565b34801561053457600080fd5b50610336610e31565b34801561054957600080fd5b506103366105583660046146dc565b610e65565b34801561056957600080fd5b5061058d610578366004614661565b60086020526000908152604090205460ff1681565b604051901515815260200161036f565b3480156105a957600080fd5b5060095461047c906001600160a01b031681565b3480156105c957600080fd5b506005546105de90600160a81b900460f81b81565b6040516001600160f81b0319909116815260200161036f565b34801561060357600080fd5b5061036561061236600461473b565b600460209081526000948552604080862082529385528385208152918452828420909152825290205481565b34801561064a57600080fd5b50610365600a5481565b34801561066057600080fd5b50610365600b5481565b34801561067657600080fd5b506105de61068536600461478a565b600160209081526000928352604080842090915290825290205460f81b81565b3480156106b157600080fd5b506103656106c036600461473b565b600360209081526000948552604080862082529385528385208152918452828420909152825290205481565b3480156106f857600080fd5b506005546001600160a01b031661047c565b34801561071657600080fd5b50600554600160a01b900460ff1661058d565b34801561073557600080fd5b506107496107443660046147c3565b610f50565b60405161036f91906148a9565b34801561076257600080fd5b506103366107713660046148bc565b61146f565b34801561078257600080fd5b506103366107913660046148fd565b611559565b3480156107a257600080fd5b506103366107b1366004614661565b61174d565b3480156107c257600080fd5b506103366107d13660046146dc565b6117eb565b3480156107e257600080fd5b50600c5461047c906001600160a01b031681565b34801561080257600080fd5b50610840610811366004614934565b600260208181526000948552604080862082529385528385209052908352912080546001820154919092015483565b6040805193845260208401929092529082015260600161036f565b61036561086936600461498f565b6118bd565b34801561087a57600080fd5b50610336611a9a565b34801561088f57600080fd5b5061033661089e3660046146dc565b611acc565b3480156108af57600080fd5b506103366108be366004614661565b611b20565b3480156108cf57600080fd5b506103366108de3660046146dc565b611bcc565b3480156108ef57600080fd5b506109036108fe36600461467e565b611c33565b60405161036f9190614a14565b34801561091c57600080fd5b5061093061092b366004614a95565b611df1565b60405161036f9190614b0a565b34801561094957600080fd5b50610336610958366004614661565b611ed8565b34801561096957600080fd5b506103656103e881565b34801561097f57600080fd5b5061033661098e3660046146dc565b611f76565b34801561099f57600080fd5b506103366109ae366004614b4e565b611fc6565b3480156109bf57600080fd5b5061047c7f000000000000000000000000000000000000000000000000000000000000000081565b3480156109f357600080fd5b50610749610a02366004614a95565b61230d565b348015610a1357600080fd5b5061058d610a22366004614661565b60066020526000908152604090205460ff1681565b348015610a4357600080fd5b50610336610a5236600461467e565b6124f3565b348015610a6357600080fd5b50610365610a72366004614ba1565b6125b0565b348015610a8357600080fd5b50610336610a9236600461467e565b61265d565b348015610aa357600080fd5b506103656101f481565b610ab5612728565b6000868152600e6020908152604091829020825160e08101845281548152600182015492810192909252600281015460f81b6001600160f81b031916928201929092526003820154606082015260048201546001600160a01b0390811660808301526005830154811660a083015260069092015490911660c08201528215610b4957610b4981608001518260a00151612775565b8115610c19577f00000000000000000000000000000000000000000000000000000000000000006001600160a01b031681608001516001600160a01b031614610bcb5760405162461bcd60e51b815260206004820152600f60248201526e2737ba2ba730ba34bb32aa37b5b2b760891b60448201526064015b60405180910390fd5b8215610c1957853414610c105760405162461bcd60e51b815260206004820152600d60248201526c125b9d985b1a59105b5bdd5b9d609a1b6044820152606401610bc2565b610c19866127f2565b6000806000610c2b848b8b8b8a612870565b925092509250858015610c3c575084155b15610c6e57610c4f846080015188612a89565b610c693360808601516001600160a01b031690308c612bd7565b610c9c565b85610c9c578415610c8357610c698933612c42565b610c9c3360808601516001600160a01b0316908b612ccc565b604080518b81526020810185905280820184905260608101839052871515608082015286151560a0820152905133917f98313a96e56f46975082c2d16f0f5411f485c801f3dc23bd2c6518197320b773919081900360c00190a250505050505050505050565b3360009081526008602052604090205460ff1680610d2a57506005546001600160a01b031633145b610d465760405162461bcd60e51b8152600401610bc290614bd8565b6103e8811115610d825760405162461bcd60e51b81526020600482015260076024820152664869676846656560c81b6044820152606401610bc2565b600a8190556040518181527f382455f3b749abde7721258dcfa10a22f30d4a28c69151a002dcbd8d1462e4f2906020015b60405180910390a150565b6005546001600160a01b03163314610de85760405162461bcd60e51b8152600401610bc290614bd8565b610df482826000612d01565b7fbc302ee0d426b6f39f889e747050982023133dfc8fc46d1848d8e182c06af7be8282604051610e25929190614c42565b60405180910390a15050565b6005546001600160a01b03163314610e5b5760405162461bcd60e51b8152600401610bc290614bd8565b610e63612dc1565b565b3360009081526008602052604090205460ff1680610e8d57506005546001600160a01b031633145b610ea95760405162461bcd60e51b8152600401610bc290614bd8565b60005b81811015610f1b57610ee3838383818110610ec957610ec9614c56565b9050602002016020810190610ede9190614c6c565b612e16565b6005805460ff60a81b198116600160a81b9182900460f890811b9490941790931c02919091179055610f1481614c9d565b9050610eac565b507f65a4e7f60fb532141e4ec9c2b5ce7df825f11171cd5db5ebd989e2d76c9ebbc482826001604051610e2593929190614cb6565b6060600260005403610fa45760405162461bcd60e51b815260206004820152601f60248201527f5265656e7472616e637947756172643a207265656e7472616e742063616c6c006044820152606401610bc2565b6002600055610fb1612728565b60008367ffffffffffffffff811115610fcc57610fcc6144ce565b60405190808252806020026020018201604052801561100557816020015b610ff2614475565b815260200190600190039081610fea5790505b50905060005b8481101561141257600086868381811061102757611027614c56565b90506020028101906110399190614d0a565b61104290614d35565b6020810151606001519091506001600160a01b0316156110995760405162461bcd60e51b815260206004820152601260248201527124b73b30b634b22239ba2932b1b2b4bb32b960711b6044820152606401610bc2565b602081015160c00151600116156110f25760405162461bcd60e51b815260206004820152601560248201527f5061727469616c46696c6c4e6f74416c6c6f77656400000000000000000000006044820152606401610bc2565b602080820151805191015160008061110a8484612f06565b9150915060008061111d84600a54613059565b9150915060008211801561113a57506001600160f81b0319831615155b6111785760405162461bcd60e51b815260206004820152600f60248201526e04e6f417661696c61626c655377617608c1b6044820152606401610bc2565b81876020015160800151146111c35760405162461bcd60e51b8152602060048201526011602482015270125b9d985b1a5914ddd85c105b5bdd5b9d607a1b6044820152606401610bc2565b60006111d08784886125b0565b90506112217f0000000000000000000000000000000000000000000000000000000000000000896020015160800151600161120b9190614e47565b60208b0151516001600160a01b0316919061308c565b875160208901516040808b01519051623e012960e91b81526000936001600160a01b037f00000000000000000000000000000000000000000000000000000000000000001693637c0252009361127993600401614eaa565b60408051808303816000875af1158015611297573d6000803e3d6000fd5b505050506040513d601f19601f820116820180604052508101906112bb9190614f62565b5090508181101580156112d65750886020015160a001518110155b6113185760405162461bcd60e51b8152602060048201526013602482015272125b9d985b1a5914995d1d5c9b905b5bdd5b9d606a1b6044820152606401610bc2565b611325888888848961313e565b60008061133485600b54613059565b915091506040518060e001604052808b6001600160a01b031681526020018a6001600160a01b03168152602001878152602001848152602001838152602001828152602001886001600160f81b0319168152508d8d8151811061139957611399614c56565b602090810291909101015280156113ca5760095460208c0151516113ca916001600160a01b03918216911683612ccc565b81156113f6576113f68f838d60200151600001516001600160a01b0316612ccc9092919063ffffffff16565b50505050505050505050508061140b90614c9d565b905061100b565b506001600160a01b038316336001600160a01b03167f4b86826433ed056d87855d4a563118ae2f2f6954e600485015dae16fc42ac30e83600a5460405161145a929190614f86565b60405180910390a36001600055949350505050565b6005546001600160a01b031633146114995760405162461bcd60e51b8152600401610bc290614bd8565b6001600160a01b0382166114bf5760405162461bcd60e51b8152600401610bc290614fa8565b73eeeeeeeeeeeeeeeeeeeeeeeeeeeeeeeeeeeeeeed196001600160a01b038416016114f3576114ee82826133e5565b611507565b6115076001600160a01b0384168383612ccc565b826001600160a01b0316826001600160a01b03167f77023e19c7343ad491fd706c36335ca0e738340a91f29b1fd81e2673d44896c48360405161154c91815260200190565b60405180910390a3505050565b6001600160a01b03821661157f5760405162461bcd60e51b8152600401610bc290614fa8565b6000838152600e6020908152604091829020825160e08101845281548152600182015492810192909252600281015460f81b6001600160f81b031916928201929092526003820154606082015260048201546001600160a01b0390811660808301526005830154811660a083015260069092015490911660c08201528115611678577f00000000000000000000000000000000000000000000000000000000000000006001600160a01b03168160a001516001600160a01b0316146116785760405162461bcd60e51b815260206004820152600f60248201526e2737ba2ba730ba34bb32aa37b5b2b760891b6044820152606401610bc2565b600061168482866134a2565b9050600081116116ca5760405162461bcd60e51b815260206004820152601160248201527016995c9bd4ddd85c1c1959105b5bdd5b9d607a1b6044820152606401610bc2565b82156116df576116da8185612c42565b6116f8565b60a08201516116f8906001600160a01b03168583612ccc565b60408051868152602081018390528415158183015290516001600160a01b0386169133917f37f4a4b2d3aa5e3594548a31a984b2b3198f165c8b0fc3f6b1f97b18307193bf9181900360600190a35050505050565b6005546001600160a01b031633146117775760405162461bcd60e51b8152600401610bc290614bd8565b6001600160a01b03811661179d5760405162461bcd60e51b8152600401610bc290614fa8565b600c80546001600160a01b0319166001600160a01b0383169081179091556040519081527f3df77beb5db05fcdd70a30fc8adf3f83f9501b68579455adbd100b818094039490602001610db3565b3360009081526008602052604090205460ff168061181357506005546001600160a01b031633145b61182f5760405162461bcd60e51b8152600401610bc290614bd8565b60005b818110156118885761184f838383818110610ec957610ec9614c56565b6005805460ff60a81b1981169219600160a81b9182900460f890811b91909116901c0291909117905561188181614c9d565b9050611832565b507f65a4e7f60fb532141e4ec9c2b5ce7df825f11171cd5db5ebd989e2d76c9ebbc482826000604051610e2593929190614cb6565b60006002600054036119115760405162461bcd60e51b815260206004820152601f60248201527f5265656e7472616e637947756172643a207265656e7472616e742063616c6c006044820152606401610bc2565b600260005561191e612728565b600073eeeeeeeeeeeeeeeeeeeeeeeeeeeeeeeeeeeeeeed196001600160a01b038916016119b4578434146119845760405162461bcd60e51b815260206004820152600d60248201526c125b9d985b1a59105b5bdd5b9d609a1b6044820152606401610bc2565b61198d856127f2565b507f0000000000000000000000000000000000000000000000000000000000000000965060015b6000806119c48a8a898989613527565b91509150826119ec576119d78a89612a89565b6119ec6001600160a01b038b1633308a612bd7565b336001600160a01b03167f7c30d06327647b218a101304df7b6fb29e5795551ea802935c5a09b1cd3b4e41828c8c89876060015188600001516001611a319190614e47565b60208a810151604080519889526001600160a01b0397881692890192909252949095168686015263ffffffff929092166060860152608085015260a084015260c083015286151560e083015251908190036101000190a260016000559998505050505050505050565b6005546001600160a01b03163314611ac45760405162461bcd60e51b8152600401610bc290614bd8565b610e6361392e565b3360009081526008602052604090205460ff1680611af457506005546001600160a01b031633145b611b105760405162461bcd60e51b8152600401610bc290614bd8565b611b1c82826000613971565b5050565b6005546001600160a01b03163314611b4a5760405162461bcd60e51b8152600401610bc290614bd8565b6001600160a01b038116611b705760405162461bcd60e51b8152600401610bc290614fa8565b6005546040516001600160a01b038084169216907f3aaaebeb4821d6a7e5c77ece53cff0afcc56c82add2c978dbbb7f73e84cbcfd290600090a3600580546001600160a01b0319166001600160a01b0392909216919091179055565b6005546001600160a01b03163314611bf65760405162461bcd60e51b8152600401610bc290614bd8565b611c0282826001612d01565b7f6e2ec61f3f6e11676f4885a93cf08ec3f6c54e783610709609ec4aca83efea408282604051610e25929190614c42565b611ca360405180610120016040528060006001600160a01b0316815260200160006001600160a01b0316815260200160006001600160a01b03168152602001600063ffffffff16815260200160008152602001600081526020016000815260200160008152602001600081525090565b6000828152600e60209081526040808320815160e08101835281548152600182015481850190815260028084015460f81b6001600160f81b031990811684870190815260038601546060860190815260048701546001600160a01b03908116608080890182815260058b0154841660a08b019081526006909b0154841660c08b01908152928e52968c528a8d208a5184168e528c528a8d2094519095168c52928a52998890205491518a168b5292518916978a019790975293519096169387019390935293519085015251611d8490611d7d908390613ab4565b8351613acc565b60a08401526020820151611d989082613acc565b60c0840152611da78282613ae6565b61010084015260408201516001600160f81b03191615611dea57611dce8260400151613b05565b63ffffffff166060840152611de4848383613c15565b60e08401525b5050919050565b606060008267ffffffffffffffff811115611e0e57611e0e6144ce565b604051908082528060200260200182016040528015611e37578160200160208202803683370190505b50905060005b83811015611ece57611e9f858583818110611e5a57611e5a614c56565b611e709260206040909202019081019150614661565b868684818110611e8257611e82614c56565b9050604002016020016020810190611e9a9190614661565b613d48565b828281518110611eb157611eb1614c56565b602090810291909101015280611ec681614c9d565b915050611e3d565b5090505b92915050565b6005546001600160a01b03163314611f025760405162461bcd60e51b8152600401610bc290614bd8565b6001600160a01b038116611f285760405162461bcd60e51b8152600401610bc290614fa8565b600980546001600160a01b0319166001600160a01b0383169081179091556040519081527fa30c0bdcbba01e7448180ae5a7a206f585543fc1be92e825bce878586dd0770f90602001610db3565b3360009081526008602052604090205460ff1680611f9e57506005546001600160a01b031633145b611fba5760405162461bcd60e51b8152600401610bc290614bd8565b611b1c82826001613971565b6002600054036120185760405162461bcd60e51b815260206004820152601f60248201527f5265656e7472616e637947756172643a207265656e7472616e742063616c6c006044820152606401610bc2565b60026000556001600160a01b0382161580159061203d57506001600160a01b03831615155b6120595760405162461bcd60e51b8152600401610bc290614fa8565b6000848152600e6020908152604091829020825160e08101845281548152600182015492810192909252600281015460f81b6001600160f81b031916928201929092526003820154606082015260048201546001600160a01b0390811660808301526005830154811660a083015260069092015490911660c08201528115612192577f00000000000000000000000000000000000000000000000000000000000000006001600160a01b031681608001516001600160a01b0316148061215457507f00000000000000000000000000000000000000000000000000000000000000006001600160a01b03168160a001516001600160a01b0316145b6121925760405162461bcd60e51b815260206004820152600f60248201526e2737ba2ba730ba34bb32aa37b5b2b760891b6044820152606401610bc2565b60008061219f8388613ede565b90925090508115612219578380156121ec57507f00000000000000000000000000000000000000000000000000000000000000006001600160a01b031683608001516001600160a01b0316145b15612200576121fb8286612c42565b612219565b6080830151612219906001600160a01b03168684612ccc565b801561228e5783801561226157507f00000000000000000000000000000000000000000000000000000000000000006001600160a01b03168360a001516001600160a01b0316145b15612275576122708187612c42565b61228e565b60a083015161228e906001600160a01b03168783612ccc565b846001600160a01b0316866001600160a01b03166122a93390565b604080518b81526020810186905290810186905287151560608201526001600160a01b0391909116907f3181c66133d5f6ff6b6ba9c1d3574915c8caed4b6fdbae28e9c1237bfcbdabc99060800160405180910390a4505060016000555050505050565b606060008267ffffffffffffffff81111561232a5761232a6144ce565b60405190808252806020026020018201604052801561236357816020015b612350614475565b8152602001906001900390816123485790505b50905060005b83811015611ece57600085858381811061238557612385614c56565b90506040020180360381019061239b9190614fcd565b90506000806123b283600001518460200151612f06565b915091506000806123c584600a54613059565b915091506000806123d883600b54613059565b600c54895160208b0151604051632b462b4360e21b81526001600160a01b039283166004820152602481018a9052908216604482015293955091935060009291169063ad18ad0c90606401602060405180830381865afa158015612440573d6000803e3d6000fd5b505050506040513d601f19601f82011682018060405250810190612464919061502c565b90506040518060e0016040528089600001516001600160a01b0316815260200189602001516001600160a01b03168152602001868152602001828152602001848152602001838152602001876001600160f81b0319168152508a8a815181106124cf576124cf614c56565b60200260200101819052505050505050505050806124ec90614c9d565b9050612369565b3360009081526008602052604090205460ff168061251b57506005546001600160a01b031633145b6125375760405162461bcd60e51b8152600401610bc290614bd8565b6101f481111561257b5760405162461bcd60e51b815260206004820152600f60248201526e496e76616c6964536c69707061676560881b6044820152606401610bc2565b600d8190556040518181527ff5a802650e0a86db227cc342f06327d2ca0ff5cf2b12e0084fc5d8a7db2c54fd90602001610db3565b600c54604051632b462b4360e21b81526001600160a01b038581166004830152602482018590528381166044830152600092169063ad18ad0c90606401602060405180830381865afa15801561260a573d6000803e3d6000fd5b505050506040513d601f19601f8201168201806040525081019061262e919061502c565b9050612710600d54826126419190615045565b61264b919061505c565b612655908261507e565b949350505050565b3360009081526008602052604090205460ff168061268557506005546001600160a01b031633145b6126a15760405162461bcd60e51b8152600401610bc290614bd8565b6127108111156126f35760405162461bcd60e51b815260206004820152601460248201527f48696768506c6174666f726d466565526174696f0000000000000000000000006044820152606401610bc2565b600b8190556040518181527f468d69afb19b60d70ad54bfd594f20238cf3aecafe94fe0a61d46ce3f9c5a79590602001610db3565b600554600160a01b900460ff1615610e635760405162461bcd60e51b815260206004820152601060248201526f14185d5cd8589b194e881c185d5cd95960821b6044820152606401610bc2565b6001600160a01b03821660009081526006602052604090205460ff1680156127b557506001600160a01b03811660009081526006602052604090205460ff165b611b1c5760405162461bcd60e51b815260206004820152600e60248201526d2ab730b63637bbb2b22a37b5b2b760911b6044820152606401610bc2565b801561286d577f00000000000000000000000000000000000000000000000000000000000000006001600160a01b031663d0e30db0826040518263ffffffff1660e01b81526004016000604051808303818588803b15801561285357600080fd5b505af1158015612867573d6000803e3d6000fd5b50505050505b50565b60008060008086116128b15760405162461bcd60e51b815260206004820152600a60248201526916995c9bd05b5bdd5b9d60b21b6044820152606401610bc2565b600085116128ed5760405162461bcd60e51b81526020600482015260096024820152685a65726f537761707360b81b6044820152606401610bc2565b6128f688613fbd565b60808801516001600160a01b03908116600090815260026020908152604080832060a08d01519094168352928152828220838c01516001600160f81b0319168352905290812054906129488a83613ae6565b90506000866129605761295b898361507e565b61296a565b61296a8983614e47565b90506000612978828a614042565b9050811580156129885750600089115b1561299257600098505b600061299e8a86614e47565b60008d8152600e60205260409020600381018490556001810182905586905590506129ca8c8e87613c15565b60008d8152600f60205260409020556129e38d8661404e565b60008c8152600e6020908152604091829020825160e08101845281548152600182015492810192909252600281015460f81b6001600160f81b031916928201929092526003820154606082015260048201546001600160a01b0390811660808301526005830154811660a083015260069092015490911660c0820152612a689061413d565b81612a74866001614e47565b909e909d50909b509950505050505050505050565b805115611b1c5760006060825160e003612b29576040516001600160a01b03851690612ac29063d505accf60e01b908690602001615091565b60408051601f1981840301815290829052612adc916150c2565b6000604051808303816000865af19150503d8060008114612b19576040519150601f19603f3d011682016040523d82523d6000602084013e612b1e565b606091505b509092509050612b94565b825161010003612b58576040516001600160a01b03851690612ac2906323f2ebc360e21b908690602001615091565b60405162461bcd60e51b8152602060048201526011602482015270496e76616c69645065726d69745479706560781b6044820152606401610bc2565b81612bd15760405162461bcd60e51b815260206004820152600d60248201526c125b9d985b1a5914195c9b5a5d609a1b6044820152606401610bc2565b50505050565b6040516001600160a01b0380851660248301528316604482015260648101829052612bd19085906323b872dd60e01b906084015b60408051601f198184030181529190526020810180516001600160e01b03166001600160e01b03199093169290921790915261421f565b8115611b1c57604051632e1a7d4d60e01b8152600481018390527f00000000000000000000000000000000000000000000000000000000000000006001600160a01b031690632e1a7d4d90602401600060405180830381600087803b158015612caa57600080fd5b505af1158015612cbe573d6000803e3d6000fd5b50505050611b1c81836133e5565b6040516001600160a01b038316602482015260448101829052612cfc90849063a9059cbb60e01b90606401612c0b565b505050565b60005b82811015612bd1576000848483818110612d2057612d20614c56565b9050602002016020810190612d359190614661565b6001600160a01b031603612d5b5760405162461bcd60e51b8152600401610bc290614fa8565b8160086000868685818110612d7257612d72614c56565b9050602002016020810190612d879190614661565b6001600160a01b031681526020810191909152604001600020805460ff191691151591909117905580612db981614c9d565b915050612d04565b612dc96142f1565b6005805460ff60a01b191690557f5db9ee0a495bf2e6ff9c91a7834c1ba4fdd244a5e8aa4e537bd38aeae4b073aa335b6040516001600160a01b03909116815260200160405180910390a1565b60008163ffffffff16610e1003612e325750600160f81b919050565b8163ffffffff1661384003612e4c5750600160f91b919050565b8163ffffffff1661a8c003612e665750600160fa1b919050565b8163ffffffff166201518003612e815750600160fb1b919050565b8163ffffffff166203f48003612e9c5750600160fc1b919050565b8163ffffffff1662093a8003612eb75750600160fd1b919050565b8163ffffffff166212750003612ed25750600160fe1b919050565b8163ffffffff1662278d0003612eed5750600160ff1b919050565b6040516305fabb6160e41b815260040160405180910390fd5b6001600160a01b038083166000908152600160209081526040808320938516835292905290812054819060f81b600160f81b5b6001600160f81b031980821690831610801590612f5f57506001600160f81b0319811615155b15613043576001600160f81b03198282161615613035576001600160a01b038087166000908152600260208181526040808420948a1684529381528383206001600160f81b03198616845281528383208451606081018652815481526001820154928101929092529091015492810192909252612fdb83613b05565b9050428163ffffffff168263ffffffff168460400151612ffb919061505c565b613006906001614e47565b6130109190615045565b111561301d575050613043565b6020820151948317946130309087614e47565b955050505b60011b607f60f91b16612f39565b8360000361305057600092505b50509250929050565b6000808061271061306a8587615045565b613074919061505c565b9050613080818661507e565b925090505b9250929050565b604051636eb1769f60e11b81523060048201526001600160a01b038381166024830152600091839186169063dd62ed3e90604401602060405180830381865afa1580156130dd573d6000803e3d6000fd5b505050506040513d601f19601f82011682018060405250810190613101919061502c565b61310b9190614e47565b6040516001600160a01b038516602482015260448101829052909150612bd190859063095ea7b360e01b90606401612c0b565b6001600160a01b038516600090815260076020526040812054613164908590859061434a565b9050600160f81b5b6001600160f81b03198082169084161080159061319257506001600160f81b0319811615155b156133dc576001600160f81b031983821616156133ce576001600160a01b038088166000908152600260208181526040808420948b1684529381528383206001600160f81b03198616845281529183902083516060810185528154815260018201549381018490529101549281019290925215613391576001600160a01b038089166000908152600460209081526040808320938b1683529281528282206001600160f81b03198616835281528282208451835290522054613255908490614e47565b6001600160a01b03808a166000908152600460209081526040808320938c1683529281528282206001600160f81b0319871683529052908120835190919061329e906001614e47565b8152602001908152602001600020819055506040518060600160405280826000015160016132cc9190614e47565b81526001600160a01b03808b166000908152600360209081526040808320938d1683529281528282206001600160f81b0319881683528152918120855192909301929161331a906002614e47565b8152602001908152602001600020548360200151613338919061507e565b8152426020918201526001600160a01b03808b16600090815260028084526040808320938d1683529284528282206001600160f81b031988168352845290829020845181559284015160018401559201519101556133cc565b6001600160a01b038089166000908152600160209081526040808320938b16835292905220805460f881811b851916901c60ff199091161790555b505b60011b607f60f91b1661316c565b50505050505050565b604080516000808252602082019092526001600160a01b03841690839060405161340f91906150c2565b60006040518083038185875af1925050503d806000811461344c576040519150601f19603f3d011682016040523d82523d6000602084013e613451565b606091505b5050905080612cfc5760405162461bcd60e51b815260206004820152601460248201527f4e61746976655472616e736665724661696c65640000000000000000000000006044820152606401610bc2565b60006134ad83613fbd565b60808301516001600160a01b03908116600090815260026020908152604080832060a08801519094168352928152828220838701516001600160f81b031916835290529081205490613500848684613c15565b6000948552600e6020908152604080872094909455600f9052918420939093559392505050565b6040805160e081018252600080825260208201819052918101829052606081018290526080810182905260a0810182905260c08101829052906001600160a01b0387161580159061358057506001600160a01b03861615155b61359c5760405162461bcd60e51b8152600401610bc290614fa8565b856001600160a01b0316876001600160a01b0316036135ec5760405162461bcd60e51b815260206004820152600c60248201526b24b73b30b634b22a37b5b2b760a11b6044820152606401610bc2565b600085116136295760405162461bcd60e51b815260206004820152600a60248201526916995c9bd05b5bdd5b9d60b21b6044820152606401610bc2565b600084116136655760405162461bcd60e51b81526020600482015260096024820152685a65726f537761707360b81b6044820152606401610bc2565b61366f8787612775565b600061367a84612e16565b600554909150600160a81b900460f81b81166001600160f81b0319166000036136da5760405162461bcd60e51b8152602060048201526012602482015271125b9d195c9d985b139bdd105b1b1bddd95960721b6044820152606401610bc2565b60006136e68787614042565b9050600081116137265760405162461bcd60e51b815260206004820152600b60248201526a496e76616c69645261746560a81b6044820152606401610bc2565b600060106000815461373790614c9d565b91829055506001600160a01b03808c166000908152600260209081526040808320938e1683529281528282206001600160f81b031988168352815282822054835160e0810190945280845293945090919081016137948b85614e47565b81526001600160f81b031987166020820152604081018690526001600160a01b03808f1660608301528d16608082015260a001336001600160a01b0316815250905084600160008e6001600160a01b03166001600160a01b0316815260200190815260200160002060008d6001600160a01b03166001600160a01b0316815260200190815260200160002060009054906101000a900460f81b166001600160f81b031916600060f81b0361387c576001600160a01b03808d166000908152600160209081526040808320938f16835292905220805460f881811b8817901c60ff199091161790555b6138858161413d565b6000838152600e6020908152604091829020835181559083015160018201559082015160028201805460ff191660f89290921c9190911790556060820151600382015560808201516004820180546001600160a01b03199081166001600160a01b039384161790915560a0840151600584018054831691841691909117905560c084015160069093018054909116929091169190911790559b919a509098505050505050505050565b613936612728565b6005805460ff60a01b1916600160a01b1790557f62e78cea01bee320cd4e420270b5ea74000d11b0c9f74754ebdbfc544b05a258612df93390565b60005b82811015613a7457600084848381811061399057613990614c56565b90506020020160208101906139a59190614661565b6001600160a01b0381166000908152600660209081526040808320805460ff1916881515179055600790915281205491925003613a6357806001600160a01b031663313ce5676040518163ffffffff1660e01b8152600401602060405180830381865afa158015613a1a573d6000803e3d6000fd5b505050506040513d601f19601f82011682018060405250810190613a3e91906150d4565b613a4990600a6151db565b6001600160a01b0382166000908152600760205260409020555b50613a6d81614c9d565b9050613974565b507e1dd6a7b0d00d27a56bc1c8d5323149a4796ae344fc670955d0df1f467cb8bb838383604051613aa7939291906151ea565b60405180910390a1505050565b6000818310613ac35781613ac5565b825b9392505050565b6000818311613adc576000613ac5565b613ac5828461507e565b60008260600151613afb846020015184613acc565b613ac59190615045565b60006001600160f81b03198216600160f81b03613b255750610e10919050565b6001600160f81b03198216600160f91b03613b435750613840919050565b6001600160f81b03198216600160fa1b03613b61575061a8c0919050565b6001600160f81b03198216600160fb1b03613b80575062015180919050565b6001600160f81b03198216600160fc1b03613b9f57506203f480919050565b6001600160f81b03198216600160fd1b03613bbe575062093a80919050565b6001600160f81b03198216600160fe1b03613bdd575062127500919050565b6001600160f81b03198216600160ff1b03613bfc575062278d00919050565b60405163bf3cad0b60e01b815260040160405180910390fd5b600080613c26838560200151613ab4565b90508084600001511115613c3e576000915050613ac5565b8351819003613c5d5750506000838152600f6020526040902054613ac5565b6080840180516001600160a01b03908116600090815260046020818152604080842060a08b01805187168652908352818520828c0180516001600160f81b031990811688529185528387208d518852855283872054985188168752948452828620915190961685528252808420925190941683529081528282208583529052908120549091613ceb9161507e565b6000878152600f602090815260408083205460808a01516001600160a01b0316845260079092529091205460608801519293509091613d2a9084615045565b613d34919061505c565b613d3e9190614e47565b9695505050505050565b6001600160a01b03808316600090815260016020908152604080832093851683529290529081205460f81b600160f81b825b6001600160f81b031980831690841610801590613da057506001600160f81b0319821615155b15613ed157816001600160f81b0319168284166001600160f81b03191603613ebb576001600160a01b038087166000908152600260208181526040808420948a1684529381528383206001600160f81b03198716845281528383208451606081018652815481526001820154928101929092529091015492810192909252613e2784613b05565b905060008163ffffffff168263ffffffff168460400151613e48919061505c565b613e53906001614e47565b613e5d9190615045565b602084015190915015613e9657428111613e7f57839650505050505050611ed2565b613e89428261507e565b9650505050505050611ed2565b42811115613eb7578315613eaa5783613eb4565b613eb4428261507e565b93505b5050505b6001826001600160f81b031916901b9150613d7a565b5060001995945050505050565b600080613eea84613fbd565b60808401516001600160a01b03908116600090815260026020908152604080832060a08901519094168352928152828220838801516001600160f81b031916835290522054613f3a848683613c15565b9150613f468582613ae6565b9250613f52858261404e565b506000928352600e602090815260408085208581556001810186905560028101805460ff19169055600381018690556004810180546001600160a01b031990811690915560058201805482169055600690910180549091169055600f90915283209290925592909150565b60408101516001600160f81b03191660000361400d5760405162461bcd60e51b815260206004820152600f60248201526e24b73b30b634b22837b9b4ba34b7b760891b6044820152606401610bc2565b60c08101516001600160a01b0316336001600160a01b03161461286d5760405162461bcd60e51b8152600401610bc290614bd8565b6000613ac5828461505c565b8082602001511115611b1c57606082015160808301516001600160a01b03908116600090815260026020908152604080832060a08801519094168352928152828220838701516001600160f81b0319168352905290812060010180549091906140b890849061507e565b9091555050606082015160808301516001600160a01b03908116600090815260036020908152604080832060a08801519094168352928152828220838701516001600160f81b0319168352815291812091850151614117906001614e47565b81526020019081526020016000206000828254614134919061507e565b90915550505050565b606081015160808201516001600160a01b03908116600090815260026020908152604080832060a08701519094168352928152828220838601516001600160f81b03191683529052908120600101805490919061419b908490614e47565b9091555050606081015160808201516001600160a01b03908116600090815260036020908152604080832060a08701519094168352928152828220838601516001600160f81b03191683528152918120918401516141fa906001614e47565b815260200190815260200160002060008282546142179190614e47565b909155505050565b6000614274826040518060400160405280602081526020017f5361666545524332303a206c6f772d6c6576656c2063616c6c206661696c6564815250856001600160a01b03166143619092919063ffffffff16565b805190915015612cfc57808060200190518101906142929190615210565b612cfc5760405162461bcd60e51b815260206004820152602a60248201527f5361666545524332303a204552433230206f7065726174696f6e20646964206e6044820152691bdd081cdd58d8d9595960b21b6064820152608401610bc2565b600554600160a01b900460ff16610e635760405162461bcd60e51b815260206004820152601460248201527f5061757361626c653a206e6f74207061757365640000000000000000000000006044820152606401610bc2565b6000836143578385615045565b612655919061505c565b60606126558484600085856001600160a01b0385163b6143c35760405162461bcd60e51b815260206004820152601d60248201527f416464726573733a2063616c6c20746f206e6f6e2d636f6e74726163740000006044820152606401610bc2565b600080866001600160a01b031685876040516143df91906150c2565b60006040518083038185875af1925050503d806000811461441c576040519150601f19603f3d011682016040523d82523d6000602084013e614421565b606091505b509150915061443182828661443c565b979650505050505050565b6060831561444b575081613ac5565b82511561445b5782518084602001fd5b8160405162461bcd60e51b8152600401610bc2919061522d565b6040518060e0016040528060006001600160a01b0316815260200160006001600160a01b031681526020016000815260200160008152602001600081526020016000815260200160006001600160f81b03191681525090565b634e487b7160e01b600052604160045260246000fd5b6040516060810167ffffffffffffffff81118282101715614507576145076144ce565b60405290565b604051610100810167ffffffffffffffff81118282101715614507576145076144ce565b600082601f83011261454257600080fd5b813567ffffffffffffffff8082111561455d5761455d6144ce565b604051601f8301601f19908116603f01168101908282118183101715614585576145856144ce565b8160405283815286602085880101111561459e57600080fd5b836020870160208301376000602085830101528094505050505092915050565b801515811461286d57600080fd5b60008060008060008060c087890312156145e557600080fd5b863595506020870135945060408701359350606087013567ffffffffffffffff81111561461157600080fd5b61461d89828a01614531565b935050608087013561462e816145be565b915060a087013561463e816145be565b809150509295509295509295565b6001600160a01b038116811461286d57600080fd5b60006020828403121561467357600080fd5b8135613ac58161464c565b60006020828403121561469057600080fd5b5035919050565b60008083601f8401126146a957600080fd5b50813567ffffffffffffffff8111156146c157600080fd5b6020830191508360208260051b850101111561308557600080fd5b600080602083850312156146ef57600080fd5b823567ffffffffffffffff81111561470657600080fd5b61471285828601614697565b90969095509350505050565b80356001600160f81b03198116811461473657600080fd5b919050565b6000806000806080858703121561475157600080fd5b843561475c8161464c565b9350602085013561476c8161464c565b925061477a6040860161471e565b9396929550929360600135925050565b6000806040838503121561479d57600080fd5b82356147a88161464c565b915060208301356147b88161464c565b809150509250929050565b6000806000604084860312156147d857600080fd5b833567ffffffffffffffff8111156147ef57600080fd5b6147fb86828701614697565b909450925050602084013561480f8161464c565b809150509250925092565b600081518084526020808501945080840160005b8381101561489e57815180516001600160a01b03908116895284820151168489015260408082015190890152606080820151908901526080808201519089015260a0808201519089015260c0908101516001600160f81b0319169088015260e0909601959082019060010161482e565b509495945050505050565b602081526000613ac5602083018461481a565b6000806000606084860312156148d157600080fd5b83356148dc8161464c565b925060208401356148ec8161464c565b929592945050506040919091013590565b60008060006060848603121561491257600080fd5b8335925060208401356149248161464c565b9150604084013561480f816145be565b60008060006060848603121561494957600080fd5b83356149548161464c565b925060208401356149648161464c565b91506149726040850161471e565b90509250925092565b803563ffffffff8116811461473657600080fd5b60008060008060008060c087890312156149a857600080fd5b86356149b38161464c565b955060208701356149c38161464c565b9450604087013567ffffffffffffffff8111156149df57600080fd5b6149eb89828a01614531565b9450506060870135925060808701359150614a0860a0880161497b565b90509295509295509295565b81516001600160a01b03908116825260208084015182169083015260408084015191821690830152610120820190506060830151614a5a606084018263ffffffff169052565b506080830151608083015260a083015160a083015260c083015160c083015260e083015160e083015261010080840151818401525092915050565b60008060208385031215614aa857600080fd5b823567ffffffffffffffff80821115614ac057600080fd5b818501915085601f830112614ad457600080fd5b813581811115614ae357600080fd5b8660208260061b8501011115614af857600080fd5b60209290920196919550909350505050565b6020808252825182820181905260009190848201906040850190845b81811015614b4257835183529284019291840191600101614b26565b50909695505050505050565b60008060008060808587031215614b6457600080fd5b843593506020850135614b768161464c565b92506040850135614b868161464c565b91506060850135614b96816145be565b939692955090935050565b600080600060608486031215614bb657600080fd5b8335614bc18161464c565b925060208401359150604084013561480f8161464c565b6020808252601290820152712ab730baba3437b934bd32b221b0b63632b960711b604082015260600190565b8183526000602080850194508260005b8581101561489e578135614c278161464c565b6001600160a01b031687529582019590820190600101614c14565b602081526000612655602083018486614c04565b634e487b7160e01b600052603260045260246000fd5b600060208284031215614c7e57600080fd5b613ac58261497b565b634e487b7160e01b600052601160045260246000fd5b600060018201614caf57614caf614c87565b5060010190565b6040808252810183905260008460608301825b86811015614cf45763ffffffff614cdf8461497b565b16825260209283019290910190600101614cc9565b5080925050508215156020830152949350505050565b60008235605e19833603018112614d2057600080fd5b9190910192915050565b80356147368161464c565b600060608236031215614d4757600080fd5b614d4f6144e4565b8235614d5a8161464c565b8152602083013567ffffffffffffffff80821115614d7757600080fd5b81850191506101008236031215614d8d57600080fd5b614d9561450d565b614d9e83614d2a565b8152614dac60208401614d2a565b6020820152614dbd60408401614d2a565b6040820152614dce60608401614d2a565b60608201526080830135608082015260a083013560a082015260c083013560c082015260e083013582811115614e0357600080fd5b614e0f36828601614531565b60e08301525060208401526040850135915080821115614e2e57600080fd5b50614e3b36828601614531565b60408301525092915050565b80820180821115611ed257611ed2614c87565b60005b83811015614e75578181015183820152602001614e5d565b50506000910152565b60008151808452614e96816020860160208601614e5a565b601f01601f19169290920160200192915050565b60006001600160a01b03808616835260606020840152808551166060840152506020840151614ee460808401826001600160a01b03169052565b5060408401516001600160a01b03811660a08401525060608401516001600160a01b03811660c084015250608084015160e083015260a0840151610100818185015260c086015161012085015260e086015191508061014085015250614f4e610160840182614e7e565b90508281036040840152613d3e8185614e7e565b60008060408385031215614f7557600080fd5b505080516020909101519092909150565b604081526000614f99604083018561481a565b90508260208301529392505050565b6020808252600b908201526a5a65726f4164647265737360a81b604082015260600190565b600060408284031215614fdf57600080fd5b6040516040810181811067ffffffffffffffff82111715615002576150026144ce565b60405282356150108161464c565b815260208301356150208161464c565b60208201529392505050565b60006020828403121561503e57600080fd5b5051919050565b8082028115828204841417611ed257611ed2614c87565b60008261507957634e487b7160e01b600052601260045260246000fd5b500490565b81810381811115611ed257611ed2614c87565b6001600160e01b03198316815281516000906150b4816004850160208701614e5a565b919091016004019392505050565b60008251614d20818460208701614e5a565b6000602082840312156150e657600080fd5b815160ff81168114613ac557600080fd5b600181815b8085111561513257816000190482111561511857615118614c87565b8085161561512557918102915b93841c93908002906150fc565b509250929050565b60008261514957506001611ed2565b8161515657506000611ed2565b816001811461516c576002811461517657615192565b6001915050611ed2565b60ff84111561518757615187614c87565b50506001821b611ed2565b5060208310610133831016604e8410600b84101617156151b5575081810a611ed2565b6151bf83836150f7565b80600019048211156151d3576151d3614c87565b029392505050565b6000613ac560ff84168361513a565b6040815260006151fe604083018587614c04565b90508215156020830152949350505050565b60006020828403121561522257600080fd5b8151613ac5816145be565b602081526000613ac56020830184614e7e56fea2646970667358221220742ab37690156312436c23ea3a7b158122f4586937c5e38c4849f54debe4565b64736f6c63430008110033",
    "linkReferences": {},
    "deployedLinkReferences": {}
}