{
    "_format": "hh-sol-artifact-1",
    "contractName": "DZapDCA",
    "sourceName": "contracts/core/DZapDCA.sol",
    "abi": [
        {
            "inputs": [
                {
                    "internalType": "address",
                    "name": "governor_",
                    "type": "address"
                },
                {
                    "internalType": "address",
                    "name": "wNative_",
                    "type": "address"
                },
                {
                    "internalType": "address",
                    "name": "oneInchRouter_",
                    "type": "address"
                },
                {
                    "internalType": "address",
                    "name": "oracle_",
                    "type": "address"
                },
                {
                    "internalType": "address",
                    "name": "feeVault_",
                    "type": "address"
                },
                {
                    "internalType": "uint256",
                    "name": "slippage_",
                    "type": "uint256"
                }
            ],
            "stateMutability": "nonpayable",
            "type": "constructor"
        },
        {
            "inputs": [],
            "name": "InvalidInterval",
            "type": "error"
        },
        {
            "inputs": [],
            "name": "InvalidMask",
            "type": "error"
        },
        {
            "anonymous": false,
            "inputs": [
                {
                    "indexed": false,
                    "internalType": "address[]",
                    "name": "accounts",
                    "type": "address[]"
                }
            ],
            "name": "AdminAdded",
            "type": "event"
        },
        {
            "anonymous": false,
            "inputs": [
                {
                    "indexed": false,
                    "internalType": "address[]",
                    "name": "accounts",
                    "type": "address[]"
                }
            ],
            "name": "AdminRemoved",
            "type": "event"
        },
        {
            "anonymous": false,
            "inputs": [
                {
                    "indexed": true,
                    "internalType": "address",
                    "name": "owner",
                    "type": "address"
                },
                {
                    "indexed": false,
                    "internalType": "uint256",
                    "name": "positionId",
                    "type": "uint256"
                },
                {
                    "indexed": false,
                    "internalType": "address",
                    "name": "fromToken",
                    "type": "address"
                },
                {
                    "indexed": false,
                    "internalType": "address",
                    "name": "toToken",
                    "type": "address"
                },
                {
                    "indexed": false,
                    "internalType": "uint256",
                    "name": "swapInterval",
                    "type": "uint256"
                },
                {
                    "indexed": false,
                    "internalType": "uint256",
                    "name": "rate",
                    "type": "uint256"
                },
                {
                    "indexed": false,
                    "internalType": "uint256",
                    "name": "startingSwap",
                    "type": "uint256"
                },
                {
                    "indexed": false,
                    "internalType": "uint256",
                    "name": "finalSwap",
                    "type": "uint256"
                },
                {
                    "indexed": false,
                    "internalType": "bool",
                    "name": "nativeFlag",
                    "type": "bool"
                }
            ],
            "name": "Created",
            "type": "event"
        },
        {
            "anonymous": false,
            "inputs": [
                {
                    "indexed": false,
                    "internalType": "address",
                    "name": "feeVault",
                    "type": "address"
                }
            ],
            "name": "FeeVaultUpdated",
            "type": "event"
        },
        {
            "anonymous": false,
            "inputs": [
                {
                    "indexed": true,
                    "internalType": "address",
                    "name": "formerGov",
                    "type": "address"
                },
                {
                    "indexed": true,
                    "internalType": "address",
                    "name": "newGov",
                    "type": "address"
                }
            ],
            "name": "GovernanceChanged",
            "type": "event"
        },
        {
            "anonymous": false,
            "inputs": [
                {
                    "indexed": true,
                    "internalType": "address",
                    "name": "user",
                    "type": "address"
                },
                {
                    "indexed": false,
                    "internalType": "uint256",
                    "name": "positionId",
                    "type": "uint256"
                },
                {
                    "indexed": false,
                    "internalType": "uint256",
                    "name": "rate",
                    "type": "uint256"
                },
                {
                    "indexed": false,
                    "internalType": "uint256",
                    "name": "startingSwap",
                    "type": "uint256"
                },
                {
                    "indexed": false,
                    "internalType": "uint256",
                    "name": "finalSwap",
                    "type": "uint256"
                },
                {
                    "indexed": false,
                    "internalType": "bool",
                    "name": "flag",
                    "type": "bool"
                },
                {
                    "indexed": false,
                    "internalType": "bool",
                    "name": "nativeFlag",
                    "type": "bool"
                }
            ],
            "name": "Modified",
            "type": "event"
        },
        {
            "anonymous": false,
            "inputs": [
                {
                    "indexed": false,
                    "internalType": "address",
                    "name": "oracle",
                    "type": "address"
                }
            ],
            "name": "OracleUpdated",
            "type": "event"
        },
        {
            "anonymous": false,
            "inputs": [
                {
                    "indexed": false,
                    "internalType": "address",
                    "name": "account",
                    "type": "address"
                }
            ],
            "name": "Paused",
            "type": "event"
        },
        {
            "anonymous": false,
            "inputs": [
                {
                    "indexed": false,
                    "internalType": "uint256",
                    "name": "platformFeeRatio",
                    "type": "uint256"
                }
            ],
            "name": "PlatformFeeRatioUpdated",
            "type": "event"
        },
        {
            "anonymous": false,
            "inputs": [
                {
                    "indexed": false,
                    "internalType": "uint256",
                    "name": "slippage",
                    "type": "uint256"
                }
            ],
            "name": "SlippageUpdated",
            "type": "event"
        },
        {
            "anonymous": false,
            "inputs": [
                {
                    "indexed": false,
                    "internalType": "uint256",
                    "name": "feeSet",
                    "type": "uint256"
                }
            ],
            "name": "SwapFeeUpdated",
            "type": "event"
        },
        {
            "anonymous": false,
            "inputs": [
                {
                    "indexed": false,
                    "internalType": "uint32[]",
                    "name": "swapIntervals",
                    "type": "uint32[]"
                },
                {
                    "indexed": false,
                    "internalType": "bool",
                    "name": "allowed",
                    "type": "bool"
                }
            ],
            "name": "SwapIntervalsUpdated",
            "type": "event"
        },
        {
            "anonymous": false,
            "inputs": [
                {
                    "indexed": true,
                    "internalType": "address",
                    "name": "sender",
                    "type": "address"
                },
                {
                    "indexed": true,
                    "internalType": "address",
                    "name": "rewardRecipient",
                    "type": "address"
                },
                {
                    "components": [
                        {
                            "internalType": "address",
                            "name": "fromToken",
                            "type": "address"
                        },
                        {
                            "internalType": "address",
                            "name": "toToken",
                            "type": "address"
                        },
                        {
                            "internalType": "uint256",
                            "name": "swappedAmount",
                            "type": "uint256"
                        },
                        {
                            "internalType": "uint256",
                            "name": "receivedAmount",
                            "type": "uint256"
                        },
                        {
                            "internalType": "uint256",
                            "name": "reward",
                            "type": "uint256"
                        },
                        {
                            "internalType": "uint256",
                            "name": "platformFee",
                            "type": "uint256"
                        },
                        {
                            "internalType": "bytes1",
                            "name": "intervalsInSwap",
                            "type": "bytes1"
                        }
                    ],
                    "indexed": false,
                    "internalType": "struct SwapInfo[]",
                    "name": "swapInformation",
                    "type": "tuple[]"
                },
                {
                    "indexed": false,
                    "internalType": "uint256",
                    "name": "swapFee",
                    "type": "uint256"
                }
            ],
            "name": "Swapped",
            "type": "event"
        },
        {
            "anonymous": false,
            "inputs": [
                {
                    "indexed": true,
                    "internalType": "address",
                    "name": "user",
                    "type": "address"
                },
                {
                    "indexed": true,
                    "internalType": "address",
                    "name": "recipientSwapped",
                    "type": "address"
                },
                {
                    "indexed": true,
                    "internalType": "address",
                    "name": "recipientUnswapped",
                    "type": "address"
                },
                {
                    "indexed": false,
                    "internalType": "uint256",
                    "name": "positionId",
                    "type": "uint256"
                },
                {
                    "indexed": false,
                    "internalType": "uint256",
                    "name": "returnedSwapped",
                    "type": "uint256"
                },
                {
                    "indexed": false,
                    "internalType": "uint256",
                    "name": "returnedUnswapped",
                    "type": "uint256"
                },
                {
                    "indexed": false,
                    "internalType": "bool",
                    "name": "nativeFlag",
                    "type": "bool"
                }
            ],
            "name": "Terminated",
            "type": "event"
        },
        {
            "anonymous": false,
            "inputs": [
                {
                    "indexed": false,
                    "internalType": "address[]",
                    "name": "tokens",
                    "type": "address[]"
                },
                {
                    "indexed": false,
                    "internalType": "bool",
                    "name": "allowed",
                    "type": "bool"
                }
            ],
            "name": "TokensAllowedUpdated",
            "type": "event"
        },
        {
            "anonymous": false,
            "inputs": [
                {
                    "indexed": true,
                    "internalType": "address",
                    "name": "to",
                    "type": "address"
                },
                {
                    "indexed": true,
                    "internalType": "address",
                    "name": "token",
                    "type": "address"
                },
                {
                    "indexed": false,
                    "internalType": "uint256",
                    "name": "amount",
                    "type": "uint256"
                }
            ],
            "name": "TokensRescued",
            "type": "event"
        },
        {
            "anonymous": false,
            "inputs": [
                {
                    "indexed": false,
                    "internalType": "address",
                    "name": "account",
                    "type": "address"
                }
            ],
            "name": "Unpaused",
            "type": "event"
        },
        {
            "anonymous": false,
            "inputs": [
                {
                    "indexed": true,
                    "internalType": "address",
                    "name": "withdrawer",
                    "type": "address"
                },
                {
                    "indexed": true,
                    "internalType": "address",
                    "name": "recipient",
                    "type": "address"
                },
                {
                    "indexed": false,
                    "internalType": "uint256",
                    "name": "positionId",
                    "type": "uint256"
                },
                {
                    "indexed": false,
                    "internalType": "uint256",
                    "name": "amount",
                    "type": "uint256"
                },
                {
                    "indexed": false,
                    "internalType": "bool",
                    "name": "nativeFlag",
                    "type": "bool"
                }
            ],
            "name": "Withdrew",
            "type": "event"
        },
        {
            "inputs": [],
            "name": "BPS_DENOMINATOR",
            "outputs": [
                {
                    "internalType": "uint256",
                    "name": "",
                    "type": "uint256"
                }
            ],
            "stateMutability": "view",
            "type": "function"
        },
        {
            "inputs": [],
            "name": "MAX_FEE",
            "outputs": [
                {
                    "internalType": "uint256",
                    "name": "",
                    "type": "uint256"
                }
            ],
            "stateMutability": "view",
            "type": "function"
        },
        {
            "inputs": [],
            "name": "MAX_PLATFORM_FEE_RATIO",
            "outputs": [
                {
                    "internalType": "uint256",
                    "name": "",
                    "type": "uint256"
                }
            ],
            "stateMutability": "view",
            "type": "function"
        },
        {
            "inputs": [],
            "name": "MAX_SLIPPAGE",
            "outputs": [
                {
                    "internalType": "uint256",
                    "name": "",
                    "type": "uint256"
                }
            ],
            "stateMutability": "view",
            "type": "function"
        },
        {
            "inputs": [],
            "name": "NATIVE_TOKEN",
            "outputs": [
                {
                    "internalType": "address",
                    "name": "",
                    "type": "address"
                }
            ],
            "stateMutability": "view",
            "type": "function"
        },
        {
            "inputs": [],
            "name": "ONE_INCH_ROUTER",
            "outputs": [
                {
                    "internalType": "address",
                    "name": "",
                    "type": "address"
                }
            ],
            "stateMutability": "view",
            "type": "function"
        },
        {
            "inputs": [
                {
                    "internalType": "address",
                    "name": "",
                    "type": "address"
                },
                {
                    "internalType": "address",
                    "name": "",
                    "type": "address"
                },
                {
                    "internalType": "bytes1",
                    "name": "",
                    "type": "bytes1"
                },
                {
                    "internalType": "uint256",
                    "name": "",
                    "type": "uint256"
                }
            ],
            "name": "accumRatio",
            "outputs": [
                {
                    "internalType": "uint256",
                    "name": "",
                    "type": "uint256"
                }
            ],
            "stateMutability": "view",
            "type": "function"
        },
        {
            "inputs": [
                {
                    "internalType": "address",
                    "name": "",
                    "type": "address"
                },
                {
                    "internalType": "address",
                    "name": "",
                    "type": "address"
                }
            ],
            "name": "activeSwapIntervals",
            "outputs": [
                {
                    "internalType": "bytes1",
                    "name": "",
                    "type": "bytes1"
                }
            ],
            "stateMutability": "view",
            "type": "function"
        },
        {
            "inputs": [
                {
                    "internalType": "address[]",
                    "name": "accounts_",
                    "type": "address[]"
                }
            ],
            "name": "addAdmins",
            "outputs": [],
            "stateMutability": "nonpayable",
            "type": "function"
        },
        {
            "inputs": [
                {
                    "internalType": "address[]",
                    "name": "tokens_",
                    "type": "address[]"
                }
            ],
            "name": "addAllowedTokens",
            "outputs": [],
            "stateMutability": "nonpayable",
            "type": "function"
        },
        {
            "inputs": [
                {
                    "internalType": "uint32[]",
                    "name": "swapIntervals_",
                    "type": "uint32[]"
                }
            ],
            "name": "addSwapIntervalsToAllowedList",
            "outputs": [],
            "stateMutability": "nonpayable",
            "type": "function"
        },
        {
            "inputs": [
                {
                    "internalType": "address",
                    "name": "",
                    "type": "address"
                }
            ],
            "name": "admins",
            "outputs": [
                {
                    "internalType": "bool",
                    "name": "",
                    "type": "bool"
                }
            ],
            "stateMutability": "view",
            "type": "function"
        },
        {
            "inputs": [],
            "name": "allowedSwapIntervals",
            "outputs": [
                {
                    "internalType": "bytes1",
                    "name": "",
                    "type": "bytes1"
                }
            ],
            "stateMutability": "view",
            "type": "function"
        },
        {
            "inputs": [
                {
                    "internalType": "address",
                    "name": "",
                    "type": "address"
                }
            ],
            "name": "allowedTokens",
            "outputs": [
                {
                    "internalType": "bool",
                    "name": "",
                    "type": "bool"
                }
            ],
            "stateMutability": "view",
            "type": "function"
        },
        {
            "inputs": [
                {
                    "internalType": "address",
                    "name": "newGov",
                    "type": "address"
                }
            ],
            "name": "changeGovernance",
            "outputs": [],
            "stateMutability": "nonpayable",
            "type": "function"
        },
        {
            "inputs": [
                {
                    "internalType": "address",
                    "name": "from_",
                    "type": "address"
                },
                {
                    "internalType": "address",
                    "name": "to_",
                    "type": "address"
                },
                {
                    "internalType": "bytes",
                    "name": "permit_",
                    "type": "bytes"
                },
                {
                    "internalType": "uint256",
                    "name": "amount_",
                    "type": "uint256"
                },
                {
                    "internalType": "uint256",
                    "name": "noOfSwaps_",
                    "type": "uint256"
                },
                {
                    "internalType": "uint32",
                    "name": "swapInterval_",
                    "type": "uint32"
                },
                {
                    "internalType": "bool",
                    "name": "nativeFlag_",
                    "type": "bool"
                }
            ],
            "name": "createPosition",
            "outputs": [
                {
                    "internalType": "uint256",
                    "name": "",
                    "type": "uint256"
                }
            ],
            "stateMutability": "payable",
            "type": "function"
        },
        {
            "inputs": [],
            "name": "feeVault",
            "outputs": [
                {
                    "internalType": "address",
                    "name": "",
                    "type": "address"
                }
            ],
            "stateMutability": "view",
            "type": "function"
        },
        {
            "inputs": [
                {
                    "components": [
                        {
                            "internalType": "address",
                            "name": "from",
                            "type": "address"
                        },
                        {
                            "internalType": "address",
                            "name": "to",
                            "type": "address"
                        }
                    ],
                    "internalType": "struct Pair[]",
                    "name": "pairs_",
                    "type": "tuple[]"
                }
            ],
            "name": "getNextSwapInfo",
            "outputs": [
                {
                    "components": [
                        {
                            "internalType": "address",
                            "name": "fromToken",
                            "type": "address"
                        },
                        {
                            "internalType": "address",
                            "name": "toToken",
                            "type": "address"
                        },
                        {
                            "internalType": "uint256",
                            "name": "swappedAmount",
                            "type": "uint256"
                        },
                        {
                            "internalType": "uint256",
                            "name": "receivedAmount",
                            "type": "uint256"
                        },
                        {
                            "internalType": "uint256",
                            "name": "reward",
                            "type": "uint256"
                        },
                        {
                            "internalType": "uint256",
                            "name": "platformFee",
                            "type": "uint256"
                        },
                        {
                            "internalType": "bytes1",
                            "name": "intervalsInSwap",
                            "type": "bytes1"
                        }
                    ],
                    "internalType": "struct SwapInfo[]",
                    "name": "",
                    "type": "tuple[]"
                }
            ],
            "stateMutability": "view",
            "type": "function"
        },
        {
            "inputs": [
                {
                    "internalType": "uint256",
                    "name": "positionId_",
                    "type": "uint256"
                }
            ],
            "name": "getPositionDetails",
            "outputs": [
                {
                    "components": [
                        {
                            "internalType": "address",
                            "name": "owner",
                            "type": "address"
                        },
                        {
                            "internalType": "address",
                            "name": "from",
                            "type": "address"
                        },
                        {
                            "internalType": "address",
                            "name": "to",
                            "type": "address"
                        },
                        {
                            "internalType": "uint32",
                            "name": "swapInterval",
                            "type": "uint32"
                        },
                        {
                            "internalType": "uint256",
                            "name": "rate",
                            "type": "uint256"
                        },
                        {
                            "internalType": "uint256",
                            "name": "swapsExecuted",
                            "type": "uint256"
                        },
                        {
                            "internalType": "uint256",
                            "name": "swapsLeft",
                            "type": "uint256"
                        },
                        {
                            "internalType": "uint256",
                            "name": "swapped",
                            "type": "uint256"
                        },
                        {
                            "internalType": "uint256",
                            "name": "unswapped",
                            "type": "uint256"
                        }
                    ],
                    "internalType": "struct PositionInfo",
                    "name": "positionInfo",
                    "type": "tuple"
                }
            ],
            "stateMutability": "view",
            "type": "function"
        },
        {
            "inputs": [
                {
                    "internalType": "address",
                    "name": "tokenIn_",
                    "type": "address"
                },
                {
                    "internalType": "uint256",
                    "name": "amountIn_",
                    "type": "uint256"
                },
                {
                    "internalType": "address",
                    "name": "tokenOut_",
                    "type": "address"
                }
            ],
            "name": "getQuote",
            "outputs": [
                {
                    "internalType": "uint256",
                    "name": "amountOut",
                    "type": "uint256"
                }
            ],
            "stateMutability": "view",
            "type": "function"
        },
        {
            "inputs": [],
            "name": "governance",
            "outputs": [
                {
                    "internalType": "address",
                    "name": "",
                    "type": "address"
                }
            ],
            "stateMutability": "view",
            "type": "function"
        },
        {
            "inputs": [
                {
                    "internalType": "uint256",
                    "name": "positionId_",
                    "type": "uint256"
                },
                {
                    "internalType": "uint256",
                    "name": "amount_",
                    "type": "uint256"
                },
                {
                    "internalType": "uint256",
                    "name": "newAmountOfSwaps_",
                    "type": "uint256"
                },
                {
                    "internalType": "bytes",
                    "name": "permit_",
                    "type": "bytes"
                },
                {
                    "internalType": "bool",
                    "name": "flag_",
                    "type": "bool"
                },
                {
                    "internalType": "bool",
                    "name": "nativeFlag_",
                    "type": "bool"
                }
            ],
            "name": "modifyPosition",
            "outputs": [],
            "stateMutability": "payable",
            "type": "function"
        },
        {
            "inputs": [],
            "name": "oracle",
            "outputs": [
                {
                    "internalType": "contract IChainlinkOracle",
                    "name": "",
                    "type": "address"
                }
            ],
            "stateMutability": "view",
            "type": "function"
        },
        {
            "inputs": [],
            "name": "pause",
            "outputs": [],
            "stateMutability": "nonpayable",
            "type": "function"
        },
        {
            "inputs": [],
            "name": "paused",
            "outputs": [
                {
                    "internalType": "bool",
                    "name": "",
                    "type": "bool"
                }
            ],
            "stateMutability": "view",
            "type": "function"
        },
        {
            "inputs": [],
            "name": "platformFeeRatio",
            "outputs": [
                {
                    "internalType": "uint256",
                    "name": "",
                    "type": "uint256"
                }
            ],
            "stateMutability": "view",
            "type": "function"
        },
        {
            "inputs": [
                {
                    "internalType": "address[]",
                    "name": "accounts_",
                    "type": "address[]"
                }
            ],
            "name": "removeAdmins",
            "outputs": [],
            "stateMutability": "nonpayable",
            "type": "function"
        },
        {
            "inputs": [
                {
                    "internalType": "address[]",
                    "name": "tokens_",
                    "type": "address[]"
                }
            ],
            "name": "removeAllowedTokens",
            "outputs": [],
            "stateMutability": "nonpayable",
            "type": "function"
        },
        {
            "inputs": [
                {
                    "internalType": "uint32[]",
                    "name": "swapIntervals_",
                    "type": "uint32[]"
                }
            ],
            "name": "removeSwapIntervalsFromAllowedList",
            "outputs": [],
            "stateMutability": "nonpayable",
            "type": "function"
        },
        {
            "inputs": [
                {
                    "internalType": "address",
                    "name": "token_",
                    "type": "address"
                },
                {
                    "internalType": "address",
                    "name": "to_",
                    "type": "address"
                },
                {
                    "internalType": "uint256",
                    "name": "amount_",
                    "type": "uint256"
                }
            ],
            "name": "rescueFunds",
            "outputs": [],
            "stateMutability": "nonpayable",
            "type": "function"
        },
        {
            "inputs": [
                {
                    "components": [
                        {
                            "internalType": "address",
                            "name": "from",
                            "type": "address"
                        },
                        {
                            "internalType": "address",
                            "name": "to",
                            "type": "address"
                        }
                    ],
                    "internalType": "struct Pair[]",
                    "name": "pairs_",
                    "type": "tuple[]"
                }
            ],
            "name": "secondsUntilNextSwap",
            "outputs": [
                {
                    "internalType": "uint256[]",
                    "name": "",
                    "type": "uint256[]"
                }
            ],
            "stateMutability": "view",
            "type": "function"
        },
        {
            "inputs": [
                {
                    "internalType": "address",
                    "name": "newVault_",
                    "type": "address"
                }
            ],
            "name": "setFeeVault",
            "outputs": [],
            "stateMutability": "nonpayable",
            "type": "function"
        },
        {
            "inputs": [
                {
                    "internalType": "address",
                    "name": "oracle_",
                    "type": "address"
                }
            ],
            "name": "setOracle",
            "outputs": [],
            "stateMutability": "nonpayable",
            "type": "function"
        },
        {
            "inputs": [
                {
                    "internalType": "uint256",
                    "name": "platformFeeRatio_",
                    "type": "uint256"
                }
            ],
            "name": "setPlatformFeeRatio",
            "outputs": [],
            "stateMutability": "nonpayable",
            "type": "function"
        },
        {
            "inputs": [
                {
                    "internalType": "uint256",
                    "name": "newSlippage_",
                    "type": "uint256"
                }
            ],
            "name": "setSlippage",
            "outputs": [],
            "stateMutability": "nonpayable",
            "type": "function"
        },
        {
            "inputs": [
                {
                    "internalType": "uint256",
                    "name": "swapFee_",
                    "type": "uint256"
                }
            ],
            "name": "setSwapFee",
            "outputs": [],
            "stateMutability": "nonpayable",
            "type": "function"
        },
        {
            "inputs": [],
            "name": "slippage",
            "outputs": [
                {
                    "internalType": "uint256",
                    "name": "",
                    "type": "uint256"
                }
            ],
            "stateMutability": "view",
            "type": "function"
        },
        {
            "inputs": [
                {
                    "components": [
                        {
                            "internalType": "contract IAggregationExecutor",
                            "name": "executor",
                            "type": "address"
                        },
                        {
                            "components": [
                                {
                                    "internalType": "contract IERC20",
                                    "name": "srcToken",
                                    "type": "address"
                                },
                                {
                                    "internalType": "contract IERC20",
                                    "name": "dstToken",
                                    "type": "address"
                                },
                                {
                                    "internalType": "address payable",
                                    "name": "srcReceiver",
                                    "type": "address"
                                },
                                {
                                    "internalType": "address payable",
                                    "name": "dstReceiver",
                                    "type": "address"
                                },
                                {
                                    "internalType": "uint256",
                                    "name": "amount",
                                    "type": "uint256"
                                },
                                {
                                    "internalType": "uint256",
                                    "name": "minReturnAmount",
                                    "type": "uint256"
                                },
                                {
                                    "internalType": "uint256",
                                    "name": "flags",
                                    "type": "uint256"
                                },
                                {
                                    "internalType": "bytes",
                                    "name": "permit",
                                    "type": "bytes"
                                }
                            ],
                            "internalType": "struct SwapDescription",
                            "name": "desc",
                            "type": "tuple"
                        },
                        {
                            "internalType": "bytes",
                            "name": "routeData",
                            "type": "bytes"
                        }
                    ],
                    "internalType": "struct SwapDetails[]",
                    "name": "data_",
                    "type": "tuple[]"
                },
                {
                    "internalType": "address",
                    "name": "rewardRecipient_",
                    "type": "address"
                }
            ],
            "name": "swap",
            "outputs": [
                {
                    "components": [
                        {
                            "internalType": "address",
                            "name": "fromToken",
                            "type": "address"
                        },
                        {
                            "internalType": "address",
                            "name": "toToken",
                            "type": "address"
                        },
                        {
                            "internalType": "uint256",
                            "name": "swappedAmount",
                            "type": "uint256"
                        },
                        {
                            "internalType": "uint256",
                            "name": "receivedAmount",
                            "type": "uint256"
                        },
                        {
                            "internalType": "uint256",
                            "name": "reward",
                            "type": "uint256"
                        },
                        {
                            "internalType": "uint256",
                            "name": "platformFee",
                            "type": "uint256"
                        },
                        {
                            "internalType": "bytes1",
                            "name": "intervalsInSwap",
                            "type": "bytes1"
                        }
                    ],
                    "internalType": "struct SwapInfo[]",
                    "name": "",
                    "type": "tuple[]"
                }
            ],
            "stateMutability": "nonpayable",
            "type": "function"
        },
        {
            "inputs": [
                {
                    "internalType": "address",
                    "name": "",
                    "type": "address"
                },
                {
                    "internalType": "address",
                    "name": "",
                    "type": "address"
                },
                {
                    "internalType": "bytes1",
                    "name": "",
                    "type": "bytes1"
                },
                {
                    "internalType": "uint256",
                    "name": "",
                    "type": "uint256"
                }
            ],
            "name": "swapAmountDelta",
            "outputs": [
                {
                    "internalType": "uint256",
                    "name": "",
                    "type": "uint256"
                }
            ],
            "stateMutability": "view",
            "type": "function"
        },
        {
            "inputs": [
                {
                    "internalType": "address",
                    "name": "",
                    "type": "address"
                },
                {
                    "internalType": "address",
                    "name": "",
                    "type": "address"
                },
                {
                    "internalType": "bytes1",
                    "name": "",
                    "type": "bytes1"
                }
            ],
            "name": "swapData",
            "outputs": [
                {
                    "internalType": "uint256",
                    "name": "performedSwaps",
                    "type": "uint256"
                },
                {
                    "internalType": "uint256",
                    "name": "nextAmountToSwap",
                    "type": "uint256"
                },
                {
                    "internalType": "uint256",
                    "name": "lastSwappedAt",
                    "type": "uint256"
                }
            ],
            "stateMutability": "view",
            "type": "function"
        },
        {
            "inputs": [],
            "name": "swapFee",
            "outputs": [
                {
                    "internalType": "uint256",
                    "name": "",
                    "type": "uint256"
                }
            ],
            "stateMutability": "view",
            "type": "function"
        },
        {
            "inputs": [
                {
                    "internalType": "uint256",
                    "name": "positionId_",
                    "type": "uint256"
                },
                {
                    "internalType": "address",
                    "name": "recipientSwapped_",
                    "type": "address"
                },
                {
                    "internalType": "address",
                    "name": "recipientUnswapped_",
                    "type": "address"
                },
                {
                    "internalType": "bool",
                    "name": "nativeFlag_",
                    "type": "bool"
                }
            ],
            "name": "terminate",
            "outputs": [],
            "stateMutability": "nonpayable",
            "type": "function"
        },
        {
            "inputs": [
                {
                    "internalType": "address",
                    "name": "",
                    "type": "address"
                }
            ],
            "name": "tokenMagnitude",
            "outputs": [
                {
                    "internalType": "uint256",
                    "name": "",
                    "type": "uint256"
                }
            ],
            "stateMutability": "view",
            "type": "function"
        },
        {
            "inputs": [],
            "name": "totalCreatedPositions",
            "outputs": [
                {
                    "internalType": "uint256",
                    "name": "",
                    "type": "uint256"
                }
            ],
            "stateMutability": "view",
            "type": "function"
        },
        {
            "inputs": [],
            "name": "unpause",
            "outputs": [],
            "stateMutability": "nonpayable",
            "type": "function"
        },
        {
            "inputs": [
                {
                    "internalType": "uint256",
                    "name": "",
                    "type": "uint256"
                }
            ],
            "name": "userPositions",
            "outputs": [
                {
                    "internalType": "uint256",
                    "name": "swapWhereLastUpdated",
                    "type": "uint256"
                },
                {
                    "internalType": "uint256",
                    "name": "finalSwap",
                    "type": "uint256"
                },
                {
                    "internalType": "bytes1",
                    "name": "swapIntervalMask",
                    "type": "bytes1"
                },
                {
                    "internalType": "uint256",
                    "name": "rate",
                    "type": "uint256"
                },
                {
                    "internalType": "address",
                    "name": "from",
                    "type": "address"
                },
                {
                    "internalType": "address",
                    "name": "to",
                    "type": "address"
                },
                {
                    "internalType": "address",
                    "name": "owner",
                    "type": "address"
                }
            ],
            "stateMutability": "view",
            "type": "function"
        },
        {
            "inputs": [],
            "name": "wNative",
            "outputs": [
                {
                    "internalType": "contract IWNative",
                    "name": "",
                    "type": "address"
                }
            ],
            "stateMutability": "view",
            "type": "function"
        },
        {
            "inputs": [
                {
                    "internalType": "uint256",
                    "name": "positionId_",
                    "type": "uint256"
                },
                {
                    "internalType": "address",
                    "name": "recipient_",
                    "type": "address"
                },
                {
                    "internalType": "bool",
                    "name": "nativeFlag_",
                    "type": "bool"
                }
            ],
            "name": "withdrawSwapped",
            "outputs": [],
            "stateMutability": "nonpayable",
            "type": "function"
        },
        {
            "stateMutability": "payable",
            "type": "receive"
        }
    ],
    "bytecode": "0x60c06040523480156200001157600080fd5b5060405162005614380380620056148339810160408190526200003491620001ef565b6001600055838686858585846001600160a01b0381166200008a5760405162461bcd60e51b815260206004820152600b60248201526a5a65726f4164647265737360a81b60448201526064015b60405180910390fd5b600580546001600160a01b0319166001600160a01b0383169081179091556040516000907f3aaaebeb4821d6a7e5c77ece53cff0afcc56c82add2c978dbbb7f73e84cbcfd2908290a3506005805460ff60a01b191690556101f4811115620001275760405162461bcd60e51b815260206004820152600f60248201526e496e76616c6964536c69707061676560881b604482015260640162000081565b6001600160a01b038216158015906200014857506001600160a01b03841615155b620001845760405162461bcd60e51b815260206004820152600b60248201526a5a65726f4164647265737360a81b604482015260640162000081565b600980546001600160a01b03199081166001600160a01b0394851617909155938216608052600c805490941692821692909217909255600d559190911660a052506200026795505050505050565b80516001600160a01b0381168114620001ea57600080fd5b919050565b60008060008060008060c087890312156200020957600080fd5b6200021487620001d2565b95506200022460208801620001d2565b94506200023460408801620001d2565b93506200024460608801620001d2565b92506200025460808801620001d2565b915060a087015190509295509295509295565b60805160a051615333620002e1600039600081816109c50152818161147701526114e601526000818161046d01528181610b1d01528181610b5b01528181610da6015281816118a3015281816121a0015281816121df01528181612277015281816122ec01528181612840015261310c01526153336000f3fe6080604052600436106103175760003560e01c80636ccae0541161019a578063a591f97f116100e1578063e581a3be1161008a578063f64dd29f11610064578063f64dd29f14610a57578063f70e663d14610a77578063f975951814610a9757600080fd5b8063e581a3be146109e7578063e744092e14610a07578063f0fa55a914610a3757600080fd5b8063cd0fe27c116100bb578063cd0fe27c14610993578063dd3fd925146109b3578063e1a452181461038b57600080fd5b8063a591f97f1461093d578063bc063e1a1461095d578063c5c2dc8b1461097357600080fd5b80638456cb59116101435780639c54df641161011d5780639c54df64146108c35780639ecceb5e146108e3578063a2c346ec1461091057600080fd5b80638456cb591461086e5780638cf39d5f1461088357806399572d6f146108a357600080fd5b80637d8e8603116101745780637d8e8603146107c95780637dc0d1d0146107e9578063808ba8e01461080957600080fd5b80636ccae0541461076957806375044250146107895780637adbf973146107a957600080fd5b80633feb14931161025e57806357ae1cec116102075780635aa6e675116101e15780635aa6e675146106ff5780635c975abb1461071d5780636b4253361461073c57600080fd5b806357ae1cec14610667578063582cf84b1461067d57806359eecff1146106b857600080fd5b8063480e5da111610238578063480e5da1146105d05780634a1492431461060a57806354cf2aeb1461065157600080fd5b80633feb149314610550578063429b62e514610570578063478222c2146105b057600080fd5b806331f7d964116102c0578063377e11e01161029a578063377e11e0146105055780633e032a3b146105255780633f4ba83a1461053b57600080fd5b806331f7d964146104a757806334e19907146104cf57806336639580146104ef57600080fd5b80631b8b8c34116102f15780631b8b8c341461038b5780631e7f1370146103a15780632d68efc91461045b57600080fd5b80630bc3739314610323578063136c274f1461034957806316cd7af81461035e57600080fd5b3661031e57005b600080fd5b6103366103313660046146a1565b610aad565b6040519081526020015b60405180910390f35b61035c61035736600461473c565b610d02565b005b34801561036a57600080fd5b506103366103793660046147bc565b60076020526000908152604090205481565b34801561039757600080fd5b5061033661271081565b3480156103ad57600080fd5b5061040b6103bc3660046147d9565b600e6020526000908152604090208054600182015460028301546003840154600485015460058601546006909601549495939460f89390931b9391926001600160a01b03918216928216911687565b6040805197885260208801969096526001600160f81b03199094169486019490945260608501919091526001600160a01b03908116608085015291821660a08401521660c082015260e001610340565b34801561046757600080fd5b5061048f7f000000000000000000000000000000000000000000000000000000000000000081565b6040516001600160a01b039091168152602001610340565b3480156104b357600080fd5b5061048f73eeeeeeeeeeeeeeeeeeeeeeeeeeeeeeeeeeeeeeee81565b3480156104db57600080fd5b5061035c6104ea3660046147d9565b610f65565b3480156104fb57600080fd5b5061033660105481565b34801561051157600080fd5b5061035c610520366004614837565b611021565b34801561053157600080fd5b50610336600d5481565b34801561054757600080fd5b5061035c611094565b34801561055c57600080fd5b5061035c61056b366004614837565b6110c8565b34801561057c57600080fd5b506105a061058b3660046147bc565b60086020526000908152604090205460ff1681565b6040519015158152602001610340565b3480156105bc57600080fd5b5060095461048f906001600160a01b031681565b3480156105dc57600080fd5b506005546105f190600160a81b900460f81b81565b6040516001600160f81b03199091168152602001610340565b34801561061657600080fd5b50610336610625366004614891565b600460209081526000948552604080862082529385528385208152918452828420909152825290205481565b34801561065d57600080fd5b50610336600a5481565b34801561067357600080fd5b50610336600b5481565b34801561068957600080fd5b506105f16106983660046148e0565b600160209081526000928352604080842090915290825290205460f81b81565b3480156106c457600080fd5b506103366106d3366004614891565b600360209081526000948552604080862082529385528385208152918452828420909152825290205481565b34801561070b57600080fd5b506005546001600160a01b031661048f565b34801561072957600080fd5b50600554600160a01b900460ff166105a0565b34801561074857600080fd5b5061075c610757366004614919565b6111b3565b60405161034091906149ff565b34801561077557600080fd5b5061035c610784366004614a12565b61170f565b34801561079557600080fd5b5061035c6107a4366004614a53565b6117f9565b3480156107b557600080fd5b5061035c6107c43660046147bc565b6119ed565b3480156107d557600080fd5b5061035c6107e4366004614837565b611a8b565b3480156107f557600080fd5b50600c5461048f906001600160a01b031681565b34801561081557600080fd5b50610853610824366004614a8a565b600260208181526000948552604080862082529385528385209052908352912080546001820154919092015483565b60408051938452602084019290925290820152606001610340565b34801561087a57600080fd5b5061035c611b5d565b34801561088f57600080fd5b5061035c61089e366004614837565b611b8f565b3480156108af57600080fd5b5061035c6108be3660046147bc565b611be3565b3480156108cf57600080fd5b5061035c6108de366004614837565b611c8f565b3480156108ef57600080fd5b506109036108fe3660046147d9565b611cf6565b6040516103409190614ad1565b34801561091c57600080fd5b5061093061092b366004614b52565b611eb4565b6040516103409190614bc7565b34801561094957600080fd5b5061035c6109583660046147bc565b611f9b565b34801561096957600080fd5b506103366103e881565b34801561097f57600080fd5b5061035c61098e366004614837565b612039565b34801561099f57600080fd5b5061035c6109ae366004614c0b565b612089565b3480156109bf57600080fd5b5061048f7f000000000000000000000000000000000000000000000000000000000000000081565b3480156109f357600080fd5b5061075c610a02366004614b52565b6123d0565b348015610a1357600080fd5b506105a0610a223660046147bc565b60066020526000908152604090205460ff1681565b348015610a4357600080fd5b5061035c610a523660046147d9565b6125b6565b348015610a6357600080fd5b50610336610a72366004614c5e565b612673565b348015610a8357600080fd5b5061035c610a923660046147d9565b612720565b348015610aa357600080fd5b506103366101f481565b6000600260005403610b065760405162461bcd60e51b815260206004820152601f60248201527f5265656e7472616e637947756172643a207265656e7472616e742063616c6c0060448201526064015b60405180910390fd5b6002600055610b136127eb565b60008215610c1b577f00000000000000000000000000000000000000000000000000000000000000006001600160a01b0316896001600160a01b03161490508080610b8f57507f00000000000000000000000000000000000000000000000000000000000000006001600160a01b0316886001600160a01b0316145b610bcd5760405162461bcd60e51b815260206004820152600f60248201526e2737ba2ba730ba34bb32aa37b5b2b760891b6044820152606401610afd565b8015610c1b57853414610c125760405162461bcd60e51b815260206004820152600d60248201526c125b9d985b1a59105b5bdd5b9d609a1b6044820152606401610afd565b610c1b86612838565b600080610c2b8b8b8a8a8a6128b6565b9150915082610c5357610c3e8b8a612cbd565b610c536001600160a01b038c1633308b612e0b565b336001600160a01b03167f7c30d06327647b218a101304df7b6fb29e5795551ea802935c5a09b1cd3b4e41828d8d8a876060015188600001516001610c989190614cab565b60208a810151604080519889526001600160a01b0397881692890192909252949095168686015263ffffffff929092166060860152608085015260a084015260c083015288151560e083015251908190036101000190a260016000559a9950505050505050505050565b610d0a6127eb565b6000868152600e6020908152604091829020825160e08101845281548152600182015492810192909252600281015460f81b6001600160f81b031916928201929092526003820154606082015260048201546001600160a01b0390811660808301526005830154811660a083015260069092015490911660c08201528215610d9e57610d9e81608001518260a00151612e76565b8115610e75577f00000000000000000000000000000000000000000000000000000000000000006001600160a01b031681608001516001600160a01b031614610e1b5760405162461bcd60e51b815260206004820152600f60248201526e2737ba2ba730ba34bb32aa37b5b2b760891b6044820152606401610afd565b600086118015610e285750825b15610e7557853414610e6c5760405162461bcd60e51b815260206004820152600d60248201526c125b9d985b1a59105b5bdd5b9d609a1b6044820152606401610afd565b610e7586612838565b6000806000610e87848b8b8b8a612ef3565b919450925090508815610eff57858015610e9f575084155b15610ed157610eb2846080015188612cbd565b610ecc3360808601516001600160a01b031690308c612e0b565b610eff565b85610eff578415610ee657610ecc89336130f0565b610eff3360808601516001600160a01b0316908b61317a565b604080518b81526020810185905280820184905260608101839052871515608082015286151560a0820152905133917f98313a96e56f46975082c2d16f0f5411f485c801f3dc23bd2c6518197320b773919081900360c00190a250505050505050505050565b3360009081526008602052604090205460ff1680610f8d57506005546001600160a01b031633145b610fa95760405162461bcd60e51b8152600401610afd90614cbe565b6103e8811115610fe55760405162461bcd60e51b81526020600482015260076024820152664869676846656560c81b6044820152606401610afd565b600a8190556040518181527f382455f3b749abde7721258dcfa10a22f30d4a28c69151a002dcbd8d1462e4f2906020015b60405180910390a150565b6005546001600160a01b0316331461104b5760405162461bcd60e51b8152600401610afd90614cbe565b611057828260006131af565b7fbc302ee0d426b6f39f889e747050982023133dfc8fc46d1848d8e182c06af7be8282604051611088929190614d28565b60405180910390a15050565b6005546001600160a01b031633146110be5760405162461bcd60e51b8152600401610afd90614cbe565b6110c661326f565b565b3360009081526008602052604090205460ff16806110f057506005546001600160a01b031633145b61110c5760405162461bcd60e51b8152600401610afd90614cbe565b60005b8181101561117e5761114683838381811061112c5761112c614d3c565b90506020020160208101906111419190614d52565b6132c4565b6005805460ff60a81b198116600160a81b9182900460f890811b9490941790931c0291909117905561117781614d6d565b905061110f565b507f65a4e7f60fb532141e4ec9c2b5ce7df825f11171cd5db5ebd989e2d76c9ebbc48282600160405161108893929190614d86565b60606002600054036112075760405162461bcd60e51b815260206004820152601f60248201527f5265656e7472616e637947756172643a207265656e7472616e742063616c6c006044820152606401610afd565b60026000556112146127eb565b826112515760405162461bcd60e51b815260206004820152600d60248201526c092dcecc2d8d2c898cadccee8d609b1b6044820152606401610afd565b60008367ffffffffffffffff81111561126c5761126c61458a565b6040519080825280602002602001820160405280156112a557816020015b61129261451c565b81526020019060019003908161128a5790505b50905060005b848110156116b25760008686838181106112c7576112c7614d3c565b90506020028101906112d99190614dda565b6112e290614e05565b6020810151606001519091506001600160a01b0316156113395760405162461bcd60e51b815260206004820152601260248201527124b73b30b634b22239ba2932b1b2b4bb32b960711b6044820152606401610afd565b602081015160c00151600116156113925760405162461bcd60e51b815260206004820152601560248201527f5061727469616c46696c6c4e6f74416c6c6f77656400000000000000000000006044820152606401610afd565b60208082015180519101516000806113aa84846133b4565b915091506000806113bd84600a54613507565b915091506000821180156113da57506001600160f81b0319831615155b6114185760405162461bcd60e51b815260206004820152600f60248201526e04e6f417661696c61626c655377617608c1b6044820152606401610afd565b81876020015160800151146114635760405162461bcd60e51b8152602060048201526011602482015270125b9d985b1a5914ddd85c105b5bdd5b9d607a1b6044820152606401610afd565b6000611470878488612673565b90506114c17f000000000000000000000000000000000000000000000000000000000000000089602001516080015160016114ab9190614cab565b60208b0151516001600160a01b0316919061353a565b875160208901516040808b01519051623e012960e91b81526000936001600160a01b037f00000000000000000000000000000000000000000000000000000000000000001693637c0252009361151993600401614f67565b60408051808303816000875af1158015611537573d6000803e3d6000fd5b505050506040513d601f19601f8201168201806040525081019061155b919061501f565b5090508181101580156115765750886020015160a001518110155b6115b85760405162461bcd60e51b8152602060048201526013602482015272125b9d985b1a5914995d1d5c9b905b5bdd5b9d606a1b6044820152606401610afd565b6115c588888884896135ec565b6000806115d485600b54613507565b915091506040518060e001604052808b6001600160a01b031681526020018a6001600160a01b03168152602001878152602001848152602001838152602001828152602001886001600160f81b0319168152508d8d8151811061163957611639614d3c565b6020908102919091010152801561166a5760095460208c01515161166a916001600160a01b0391821691168361317a565b8115611696576116968f838d60200151600001516001600160a01b031661317a9092919063ffffffff16565b5050505050505050505050806116ab90614d6d565b90506112ab565b506001600160a01b038316336001600160a01b03167f4b86826433ed056d87855d4a563118ae2f2f6954e600485015dae16fc42ac30e83600a546040516116fa929190615043565b60405180910390a36001600055949350505050565b6005546001600160a01b031633146117395760405162461bcd60e51b8152600401610afd90614cbe565b6001600160a01b03821661175f5760405162461bcd60e51b8152600401610afd90615065565b73eeeeeeeeeeeeeeeeeeeeeeeeeeeeeeeeeeeeeeed196001600160a01b038416016117935761178e8282613893565b6117a7565b6117a76001600160a01b038416838361317a565b826001600160a01b0316826001600160a01b03167f77023e19c7343ad491fd706c36335ca0e738340a91f29b1fd81e2673d44896c4836040516117ec91815260200190565b60405180910390a3505050565b6001600160a01b03821661181f5760405162461bcd60e51b8152600401610afd90615065565b6000838152600e6020908152604091829020825160e08101845281548152600182015492810192909252600281015460f81b6001600160f81b031916928201929092526003820154606082015260048201546001600160a01b0390811660808301526005830154811660a083015260069092015490911660c08201528115611918577f00000000000000000000000000000000000000000000000000000000000000006001600160a01b03168160a001516001600160a01b0316146119185760405162461bcd60e51b815260206004820152600f60248201526e2737ba2ba730ba34bb32aa37b5b2b760891b6044820152606401610afd565b60006119248286613950565b90506000811161196a5760405162461bcd60e51b815260206004820152601160248201527016995c9bd4ddd85c1c1959105b5bdd5b9d607a1b6044820152606401610afd565b821561197f5761197a81856130f0565b611998565b60a0820151611998906001600160a01b0316858361317a565b60408051868152602081018390528415158183015290516001600160a01b0386169133917f37f4a4b2d3aa5e3594548a31a984b2b3198f165c8b0fc3f6b1f97b18307193bf9181900360600190a35050505050565b6005546001600160a01b03163314611a175760405162461bcd60e51b8152600401610afd90614cbe565b6001600160a01b038116611a3d5760405162461bcd60e51b8152600401610afd90615065565b600c80546001600160a01b0319166001600160a01b0383169081179091556040519081527f3df77beb5db05fcdd70a30fc8adf3f83f9501b68579455adbd100b818094039490602001611016565b3360009081526008602052604090205460ff1680611ab357506005546001600160a01b031633145b611acf5760405162461bcd60e51b8152600401610afd90614cbe565b60005b81811015611b2857611aef83838381811061112c5761112c614d3c565b6005805460ff60a81b1981169219600160a81b9182900460f890811b91909116901c02919091179055611b2181614d6d565b9050611ad2565b507f65a4e7f60fb532141e4ec9c2b5ce7df825f11171cd5db5ebd989e2d76c9ebbc48282600060405161108893929190614d86565b6005546001600160a01b03163314611b875760405162461bcd60e51b8152600401610afd90614cbe565b6110c66139d5565b3360009081526008602052604090205460ff1680611bb757506005546001600160a01b031633145b611bd35760405162461bcd60e51b8152600401610afd90614cbe565b611bdf82826000613a18565b5050565b6005546001600160a01b03163314611c0d5760405162461bcd60e51b8152600401610afd90614cbe565b6001600160a01b038116611c335760405162461bcd60e51b8152600401610afd90615065565b6005546040516001600160a01b038084169216907f3aaaebeb4821d6a7e5c77ece53cff0afcc56c82add2c978dbbb7f73e84cbcfd290600090a3600580546001600160a01b0319166001600160a01b0392909216919091179055565b6005546001600160a01b03163314611cb95760405162461bcd60e51b8152600401610afd90614cbe565b611cc5828260016131af565b7f6e2ec61f3f6e11676f4885a93cf08ec3f6c54e783610709609ec4aca83efea408282604051611088929190614d28565b611d6660405180610120016040528060006001600160a01b0316815260200160006001600160a01b0316815260200160006001600160a01b03168152602001600063ffffffff16815260200160008152602001600081526020016000815260200160008152602001600081525090565b6000828152600e60209081526040808320815160e08101835281548152600182015481850190815260028084015460f81b6001600160f81b031990811684870190815260038601546060860190815260048701546001600160a01b03908116608080890182815260058b0154841660a08b019081526006909b0154841660c08b01908152928e52968c528a8d208a5184168e528c528a8d2094519095168c52928a52998890205491518a168b5292518916978a019790975293519096169387019390935293519085015251611e4790611e40908390613b5b565b8351613b73565b60a08401526020820151611e5b9082613b73565b60c0840152611e6a8282613b8d565b61010084015260408201516001600160f81b03191615611ead57611e918260400151613bac565b63ffffffff166060840152611ea7848383613cbc565b60e08401525b5050919050565b606060008267ffffffffffffffff811115611ed157611ed161458a565b604051908082528060200260200182016040528015611efa578160200160208202803683370190505b50905060005b83811015611f9157611f62858583818110611f1d57611f1d614d3c565b611f3392602060409092020190810191506147bc565b868684818110611f4557611f45614d3c565b9050604002016020016020810190611f5d91906147bc565b613def565b828281518110611f7457611f74614d3c565b602090810291909101015280611f8981614d6d565b915050611f00565b5090505b92915050565b6005546001600160a01b03163314611fc55760405162461bcd60e51b8152600401610afd90614cbe565b6001600160a01b038116611feb5760405162461bcd60e51b8152600401610afd90615065565b600980546001600160a01b0319166001600160a01b0383169081179091556040519081527fa30c0bdcbba01e7448180ae5a7a206f585543fc1be92e825bce878586dd0770f90602001611016565b3360009081526008602052604090205460ff168061206157506005546001600160a01b031633145b61207d5760405162461bcd60e51b8152600401610afd90614cbe565b611bdf82826001613a18565b6002600054036120db5760405162461bcd60e51b815260206004820152601f60248201527f5265656e7472616e637947756172643a207265656e7472616e742063616c6c006044820152606401610afd565b60026000556001600160a01b0382161580159061210057506001600160a01b03831615155b61211c5760405162461bcd60e51b8152600401610afd90615065565b6000848152600e6020908152604091829020825160e08101845281548152600182015492810192909252600281015460f81b6001600160f81b031916928201929092526003820154606082015260048201546001600160a01b0390811660808301526005830154811660a083015260069092015490911660c08201528115612255577f00000000000000000000000000000000000000000000000000000000000000006001600160a01b031681608001516001600160a01b0316148061221757507f00000000000000000000000000000000000000000000000000000000000000006001600160a01b03168160a001516001600160a01b0316145b6122555760405162461bcd60e51b815260206004820152600f60248201526e2737ba2ba730ba34bb32aa37b5b2b760891b6044820152606401610afd565b6000806122628388613f85565b909250905081156122dc578380156122af57507f00000000000000000000000000000000000000000000000000000000000000006001600160a01b031683608001516001600160a01b0316145b156122c3576122be82866130f0565b6122dc565b60808301516122dc906001600160a01b0316868461317a565b80156123515783801561232457507f00000000000000000000000000000000000000000000000000000000000000006001600160a01b03168360a001516001600160a01b0316145b156123385761233381876130f0565b612351565b60a0830151612351906001600160a01b0316878361317a565b846001600160a01b0316866001600160a01b031661236c3390565b604080518b81526020810186905290810186905287151560608201526001600160a01b0391909116907f3181c66133d5f6ff6b6ba9c1d3574915c8caed4b6fdbae28e9c1237bfcbdabc99060800160405180910390a4505060016000555050505050565b606060008267ffffffffffffffff8111156123ed576123ed61458a565b60405190808252806020026020018201604052801561242657816020015b61241361451c565b81526020019060019003908161240b5790505b50905060005b83811015611f9157600085858381811061244857612448614d3c565b90506040020180360381019061245e919061508a565b9050600080612475836000015184602001516133b4565b9150915060008061248884600a54613507565b9150915060008061249b83600b54613507565b600c54895160208b0151604051632b462b4360e21b81526001600160a01b039283166004820152602481018a9052908216604482015293955091935060009291169063ad18ad0c90606401602060405180830381865afa158015612503573d6000803e3d6000fd5b505050506040513d601f19601f8201168201806040525081019061252791906150e9565b90506040518060e0016040528089600001516001600160a01b0316815260200189602001516001600160a01b03168152602001868152602001828152602001848152602001838152602001876001600160f81b0319168152508a8a8151811061259257612592614d3c565b60200260200101819052505050505050505050806125af90614d6d565b905061242c565b3360009081526008602052604090205460ff16806125de57506005546001600160a01b031633145b6125fa5760405162461bcd60e51b8152600401610afd90614cbe565b6101f481111561263e5760405162461bcd60e51b815260206004820152600f60248201526e496e76616c6964536c69707061676560881b6044820152606401610afd565b600d8190556040518181527ff5a802650e0a86db227cc342f06327d2ca0ff5cf2b12e0084fc5d8a7db2c54fd90602001611016565b600c54604051632b462b4360e21b81526001600160a01b038581166004830152602482018590528381166044830152600092169063ad18ad0c90606401602060405180830381865afa1580156126cd573d6000803e3d6000fd5b505050506040513d601f19601f820116820180604052508101906126f191906150e9565b9050612710600d54826127049190615102565b61270e9190615119565b612718908261513b565b949350505050565b3360009081526008602052604090205460ff168061274857506005546001600160a01b031633145b6127645760405162461bcd60e51b8152600401610afd90614cbe565b6127108111156127b65760405162461bcd60e51b815260206004820152601460248201527f48696768506c6174666f726d466565526174696f0000000000000000000000006044820152606401610afd565b600b8190556040518181527f468d69afb19b60d70ad54bfd594f20238cf3aecafe94fe0a61d46ce3f9c5a79590602001611016565b600554600160a01b900460ff16156110c65760405162461bcd60e51b815260206004820152601060248201526f14185d5cd8589b194e881c185d5cd95960821b6044820152606401610afd565b80156128b3577f00000000000000000000000000000000000000000000000000000000000000006001600160a01b031663d0e30db0826040518263ffffffff1660e01b81526004016000604051808303818588803b15801561289957600080fd5b505af11580156128ad573d6000803e3d6000fd5b50505050505b50565b6040805160e081018252600080825260208201819052918101829052606081018290526080810182905260a0810182905260c08101829052906001600160a01b0387161580159061290f57506001600160a01b03861615155b61292b5760405162461bcd60e51b8152600401610afd90615065565b856001600160a01b0316876001600160a01b03160361297b5760405162461bcd60e51b815260206004820152600c60248201526b24b73b30b634b22a37b5b2b760a11b6044820152606401610afd565b600085116129b85760405162461bcd60e51b815260206004820152600a60248201526916995c9bd05b5bdd5b9d60b21b6044820152606401610afd565b600084116129f45760405162461bcd60e51b81526020600482015260096024820152685a65726f537761707360b81b6044820152606401610afd565b6129fe8787612e76565b6000612a09846132c4565b600554909150600160a81b900460f81b81166001600160f81b031916600003612a695760405162461bcd60e51b8152602060048201526012602482015271125b9d195c9d985b139bdd105b1b1bddd95960721b6044820152606401610afd565b6000612a758787614064565b905060008111612ab55760405162461bcd60e51b815260206004820152600b60248201526a496e76616c69645261746560a81b6044820152606401610afd565b6000601060008154612ac690614d6d565b91829055506001600160a01b03808c166000908152600260209081526040808320938e1683529281528282206001600160f81b031988168352815282822054835160e081019094528084529394509091908101612b238b85614cab565b81526001600160f81b031987166020820152604081018690526001600160a01b03808f1660608301528d16608082015260a001336001600160a01b0316815250905084600160008e6001600160a01b03166001600160a01b0316815260200190815260200160002060008d6001600160a01b03166001600160a01b0316815260200190815260200160002060009054906101000a900460f81b166001600160f81b031916600060f81b03612c0b576001600160a01b03808d166000908152600160209081526040808320938f16835292905220805460f881811b8817901c60ff199091161790555b612c1481614070565b6000838152600e6020908152604091829020835181559083015160018201559082015160028201805460ff191660f89290921c9190911790556060820151600382015560808201516004820180546001600160a01b03199081166001600160a01b039384161790915560a0840151600584018054831691841691909117905560c084015160069093018054909116929091169190911790559b919a509098505050505050505050565b805115611bdf5760006060825160e003612d5d576040516001600160a01b03851690612cf69063d505accf60e01b90869060200161514e565b60408051601f1981840301815290829052612d109161517f565b6000604051808303816000865af19150503d8060008114612d4d576040519150601f19603f3d011682016040523d82523d6000602084013e612d52565b606091505b509092509050612dc8565b825161010003612d8c576040516001600160a01b03851690612cf6906323f2ebc360e21b90869060200161514e565b60405162461bcd60e51b8152602060048201526011602482015270496e76616c69645065726d69745479706560781b6044820152606401610afd565b81612e055760405162461bcd60e51b815260206004820152600d60248201526c125b9d985b1a5914195c9b5a5d609a1b6044820152606401610afd565b50505050565b6040516001600160a01b0380851660248301528316604482015260648101829052612e059085906323b872dd60e01b906084015b60408051601f198184030181529190526020810180516001600160e01b03166001600160e01b031990931692909217909152614152565b6001600160a01b03821660009081526006602052604090205460ff168015612eb657506001600160a01b03811660009081526006602052604090205460ff165b611bdf5760405162461bcd60e51b815260206004820152600e60248201526d2ab730b63637bbb2b22a37b5b2b760911b6044820152606401610afd565b6000806000612f0188614224565b60808801516001600160a01b03908116600090815260026020908152604080832060a08d01519094168352928152828220838c01516001600160f81b031916835290529081205490612f538a83613b8d565b9050600086612f6b57612f66898361513b565b612f75565b612f758983614cab565b90508015801590612f84575087155b15612fc55760008811612fc55760405162461bcd60e51b81526020600482015260096024820152685a65726f537761707360b81b6044820152606401610afd565b80158015612fd35750600088115b15612fdd57600097505b60008815612ff457612fef828a614064565b612ff7565b60005b905060006130058a86614cab565b60008d8152600e60205260409020600381018490556001810182905586905590506130318c8e87613cbc565b60008d8152600f602052604090205561304a8d866142a9565b60008c8152600e6020908152604091829020825160e08101845281548152600182015492810192909252600281015460f81b6001600160f81b031916928201929092526003820154606082015260048201546001600160a01b0390811660808301526005830154811660a083015260069092015490911660c08201526130cf90614070565b816130db866001614cab565b909e909d50909b509950505050505050505050565b8115611bdf57604051632e1a7d4d60e01b8152600481018390527f00000000000000000000000000000000000000000000000000000000000000006001600160a01b031690632e1a7d4d90602401600060405180830381600087803b15801561315857600080fd5b505af115801561316c573d6000803e3d6000fd5b50505050611bdf8183613893565b6040516001600160a01b0383166024820152604481018290526131aa90849063a9059cbb60e01b90606401612e3f565b505050565b60005b82811015612e055760008484838181106131ce576131ce614d3c565b90506020020160208101906131e391906147bc565b6001600160a01b0316036132095760405162461bcd60e51b8152600401610afd90615065565b816008600086868581811061322057613220614d3c565b905060200201602081019061323591906147bc565b6001600160a01b031681526020810191909152604001600020805460ff19169115159190911790558061326781614d6d565b9150506131b2565b613277614398565b6005805460ff60a01b191690557f5db9ee0a495bf2e6ff9c91a7834c1ba4fdd244a5e8aa4e537bd38aeae4b073aa335b6040516001600160a01b03909116815260200160405180910390a1565b60008163ffffffff16610e10036132e05750600160f81b919050565b8163ffffffff16613840036132fa5750600160f91b919050565b8163ffffffff1661a8c0036133145750600160fa1b919050565b8163ffffffff16620151800361332f5750600160fb1b919050565b8163ffffffff166203f4800361334a5750600160fc1b919050565b8163ffffffff1662093a80036133655750600160fd1b919050565b8163ffffffff1662127500036133805750600160fe1b919050565b8163ffffffff1662278d000361339b5750600160ff1b919050565b6040516305fabb6160e41b815260040160405180910390fd5b6001600160a01b038083166000908152600160209081526040808320938516835292905290812054819060f81b600160f81b5b6001600160f81b03198082169083161080159061340d57506001600160f81b0319811615155b156134f1576001600160f81b031982821616156134e3576001600160a01b038087166000908152600260208181526040808420948a1684529381528383206001600160f81b0319861684528152838320845160608101865281548152600182015492810192909252909101549281019290925261348983613bac565b9050428163ffffffff168263ffffffff1684604001516134a99190615119565b6134b4906001614cab565b6134be9190615102565b11156134cb5750506134f1565b6020820151948317946134de9087614cab565b955050505b60011b607f60f91b166133e7565b836000036134fe57600092505b50509250929050565b600080806127106135188587615102565b6135229190615119565b905061352e818661513b565b925090505b9250929050565b604051636eb1769f60e11b81523060048201526001600160a01b038381166024830152600091839186169063dd62ed3e90604401602060405180830381865afa15801561358b573d6000803e3d6000fd5b505050506040513d601f19601f820116820180604052508101906135af91906150e9565b6135b99190614cab565b6040516001600160a01b038516602482015260448101829052909150612e0590859063095ea7b360e01b90606401612e3f565b6001600160a01b03851660009081526007602052604081205461361290859085906143f1565b9050600160f81b5b6001600160f81b03198082169084161080159061364057506001600160f81b0319811615155b1561388a576001600160f81b0319838216161561387c576001600160a01b038088166000908152600260208181526040808420948b1684529381528383206001600160f81b0319861684528152918390208351606081018552815481526001820154938101849052910154928101929092521561383f576001600160a01b038089166000908152600460209081526040808320938b1683529281528282206001600160f81b03198616835281528282208451835290522054613703908490614cab565b6001600160a01b03808a166000908152600460209081526040808320938c1683529281528282206001600160f81b0319871683529052908120835190919061374c906001614cab565b81526020019081526020016000208190555060405180606001604052808260000151600161377a9190614cab565b81526001600160a01b03808b166000908152600360209081526040808320938d1683529281528282206001600160f81b031988168352815291812085519290930192916137c8906002614cab565b81526020019081526020016000205483602001516137e6919061513b565b8152426020918201526001600160a01b03808b16600090815260028084526040808320938d1683529284528282206001600160f81b0319881683528452908290208451815592840151600184015592015191015561387a565b6001600160a01b038089166000908152600160209081526040808320938b16835292905220805460f881811b851916901c60ff199091161790555b505b60011b607f60f91b1661361a565b50505050505050565b604080516000808252602082019092526001600160a01b0384169083906040516138bd919061517f565b60006040518083038185875af1925050503d80600081146138fa576040519150601f19603f3d011682016040523d82523d6000602084013e6138ff565b606091505b50509050806131aa5760405162461bcd60e51b815260206004820152601460248201527f4e61746976655472616e736665724661696c65640000000000000000000000006044820152606401610afd565b600061395b83614224565b60808301516001600160a01b03908116600090815260026020908152604080832060a08801519094168352928152828220838701516001600160f81b0319168352905290812054906139ae848684613cbc565b6000948552600e6020908152604080872094909455600f9052918420939093559392505050565b6139dd6127eb565b6005805460ff60a01b1916600160a01b1790557f62e78cea01bee320cd4e420270b5ea74000d11b0c9f74754ebdbfc544b05a2586132a73390565b60005b82811015613b1b576000848483818110613a3757613a37614d3c565b9050602002016020810190613a4c91906147bc565b6001600160a01b0381166000908152600660209081526040808320805460ff1916881515179055600790915281205491925003613b0a57806001600160a01b031663313ce5676040518163ffffffff1660e01b8152600401602060405180830381865afa158015613ac1573d6000803e3d6000fd5b505050506040513d601f19601f82011682018060405250810190613ae59190615191565b613af090600a615298565b6001600160a01b0382166000908152600760205260409020555b50613b1481614d6d565b9050613a1b565b507e1dd6a7b0d00d27a56bc1c8d5323149a4796ae344fc670955d0df1f467cb8bb838383604051613b4e939291906152a7565b60405180910390a1505050565b6000818310613b6a5781613b6c565b825b9392505050565b6000818311613b83576000613b6c565b613b6c828461513b565b60008260600151613ba2846020015184613b73565b613b6c9190615102565b60006001600160f81b03198216600160f81b03613bcc5750610e10919050565b6001600160f81b03198216600160f91b03613bea5750613840919050565b6001600160f81b03198216600160fa1b03613c08575061a8c0919050565b6001600160f81b03198216600160fb1b03613c27575062015180919050565b6001600160f81b03198216600160fc1b03613c4657506203f480919050565b6001600160f81b03198216600160fd1b03613c65575062093a80919050565b6001600160f81b03198216600160fe1b03613c84575062127500919050565b6001600160f81b03198216600160ff1b03613ca3575062278d00919050565b60405163bf3cad0b60e01b815260040160405180910390fd5b600080613ccd838560200151613b5b565b90508084600001511115613ce5576000915050613b6c565b8351819003613d045750506000838152600f6020526040902054613b6c565b6080840180516001600160a01b03908116600090815260046020818152604080842060a08b01805187168652908352818520828c0180516001600160f81b031990811688529185528387208d518852855283872054985188168752948452828620915190961685528252808420925190941683529081528282208583529052908120549091613d929161513b565b6000878152600f602090815260408083205460808a01516001600160a01b0316845260079092529091205460608801519293509091613dd19084615102565b613ddb9190615119565b613de59190614cab565b9695505050505050565b6001600160a01b03808316600090815260016020908152604080832093851683529290529081205460f81b600160f81b825b6001600160f81b031980831690841610801590613e4757506001600160f81b0319821615155b15613f7857816001600160f81b0319168284166001600160f81b03191603613f62576001600160a01b038087166000908152600260208181526040808420948a1684529381528383206001600160f81b03198716845281528383208451606081018652815481526001820154928101929092529091015492810192909252613ece84613bac565b905060008163ffffffff168263ffffffff168460400151613eef9190615119565b613efa906001614cab565b613f049190615102565b602084015190915015613f3d57428111613f2657839650505050505050611f95565b613f30428261513b565b9650505050505050611f95565b42811115613f5e578315613f515783613f5b565b613f5b428261513b565b93505b5050505b6001826001600160f81b031916901b9150613e21565b5060001995945050505050565b600080613f9184614224565b60808401516001600160a01b03908116600090815260026020908152604080832060a08901519094168352928152828220838801516001600160f81b031916835290522054613fe1848683613cbc565b9150613fed8582613b8d565b9250613ff985826142a9565b506000928352600e602090815260408085208581556001810186905560028101805460ff19169055600381018690556004810180546001600160a01b031990811690915560058201805482169055600690910180549091169055600f90915283209290925592909150565b6000613b6c8284615119565b606081015160808201516001600160a01b03908116600090815260026020908152604080832060a08701519094168352928152828220838601516001600160f81b0319168352905290812060010180549091906140ce908490614cab565b9091555050606081015160808201516001600160a01b03908116600090815260036020908152604080832060a08701519094168352928152828220838601516001600160f81b031916835281529181209184015161412d906001614cab565b8152602001908152602001600020600082825461414a9190614cab565b909155505050565b60006141a7826040518060400160405280602081526020017f5361666545524332303a206c6f772d6c6576656c2063616c6c206661696c6564815250856001600160a01b03166144089092919063ffffffff16565b8051909150156131aa57808060200190518101906141c591906152cd565b6131aa5760405162461bcd60e51b815260206004820152602a60248201527f5361666545524332303a204552433230206f7065726174696f6e20646964206e6044820152691bdd081cdd58d8d9595960b21b6064820152608401610afd565b60408101516001600160f81b0319166000036142745760405162461bcd60e51b815260206004820152600f60248201526e24b73b30b634b22837b9b4ba34b7b760891b6044820152606401610afd565b60c08101516001600160a01b0316336001600160a01b0316146128b35760405162461bcd60e51b8152600401610afd90614cbe565b8082602001511115611bdf57606082015160808301516001600160a01b03908116600090815260026020908152604080832060a08801519094168352928152828220838701516001600160f81b03191683529052908120600101805490919061431390849061513b565b9091555050606082015160808301516001600160a01b03908116600090815260036020908152604080832060a08801519094168352928152828220838701516001600160f81b0319168352815291812091850151614372906001614cab565b8152602001908152602001600020600082825461438f919061513b565b90915550505050565b600554600160a01b900460ff166110c65760405162461bcd60e51b815260206004820152601460248201527f5061757361626c653a206e6f74207061757365640000000000000000000000006044820152606401610afd565b6000836143fe8385615102565b6127189190615119565b60606127188484600085856001600160a01b0385163b61446a5760405162461bcd60e51b815260206004820152601d60248201527f416464726573733a2063616c6c20746f206e6f6e2d636f6e74726163740000006044820152606401610afd565b600080866001600160a01b03168587604051614486919061517f565b60006040518083038185875af1925050503d80600081146144c3576040519150601f19603f3d011682016040523d82523d6000602084013e6144c8565b606091505b50915091506144d88282866144e3565b979650505050505050565b606083156144f2575081613b6c565b8251156145025782518084602001fd5b8160405162461bcd60e51b8152600401610afd91906152ea565b6040518060e0016040528060006001600160a01b0316815260200160006001600160a01b031681526020016000815260200160008152602001600081526020016000815260200160006001600160f81b03191681525090565b6001600160a01b03811681146128b357600080fd5b634e487b7160e01b600052604160045260246000fd5b6040516060810167ffffffffffffffff811182821017156145c3576145c361458a565b60405290565b604051610100810167ffffffffffffffff811182821017156145c3576145c361458a565b600082601f8301126145fe57600080fd5b813567ffffffffffffffff808211156146195761461961458a565b604051601f8301601f19908116603f011681019082821181831017156146415761464161458a565b8160405283815286602085880101111561465a57600080fd5b836020870160208301376000602085830101528094505050505092915050565b803563ffffffff8116811461468e57600080fd5b919050565b80151581146128b357600080fd5b600080600080600080600060e0888a0312156146bc57600080fd5b87356146c781614575565b965060208801356146d781614575565b9550604088013567ffffffffffffffff8111156146f357600080fd5b6146ff8a828b016145ed565b955050606088013593506080880135925061471c60a0890161467a565b915060c088013561472c81614693565b8091505092959891949750929550565b60008060008060008060c0878903121561475557600080fd5b863595506020870135945060408701359350606087013567ffffffffffffffff81111561478157600080fd5b61478d89828a016145ed565b935050608087013561479e81614693565b915060a08701356147ae81614693565b809150509295509295509295565b6000602082840312156147ce57600080fd5b8135613b6c81614575565b6000602082840312156147eb57600080fd5b5035919050565b60008083601f84011261480457600080fd5b50813567ffffffffffffffff81111561481c57600080fd5b6020830191508360208260051b850101111561353357600080fd5b6000806020838503121561484a57600080fd5b823567ffffffffffffffff81111561486157600080fd5b61486d858286016147f2565b90969095509350505050565b80356001600160f81b03198116811461468e57600080fd5b600080600080608085870312156148a757600080fd5b84356148b281614575565b935060208501356148c281614575565b92506148d060408601614879565b9396929550929360600135925050565b600080604083850312156148f357600080fd5b82356148fe81614575565b9150602083013561490e81614575565b809150509250929050565b60008060006040848603121561492e57600080fd5b833567ffffffffffffffff81111561494557600080fd5b614951868287016147f2565b909450925050602084013561496581614575565b809150509250925092565b600081518084526020808501945080840160005b838110156149f457815180516001600160a01b03908116895284820151168489015260408082015190890152606080820151908901526080808201519089015260a0808201519089015260c0908101516001600160f81b0319169088015260e09096019590820190600101614984565b509495945050505050565b602081526000613b6c6020830184614970565b600080600060608486031215614a2757600080fd5b8335614a3281614575565b92506020840135614a4281614575565b929592945050506040919091013590565b600080600060608486031215614a6857600080fd5b833592506020840135614a7a81614575565b9150604084013561496581614693565b600080600060608486031215614a9f57600080fd5b8335614aaa81614575565b92506020840135614aba81614575565b9150614ac860408501614879565b90509250925092565b81516001600160a01b03908116825260208084015182169083015260408084015191821690830152610120820190506060830151614b17606084018263ffffffff169052565b506080830151608083015260a083015160a083015260c083015160c083015260e083015160e083015261010080840151818401525092915050565b60008060208385031215614b6557600080fd5b823567ffffffffffffffff80821115614b7d57600080fd5b818501915085601f830112614b9157600080fd5b813581811115614ba057600080fd5b8660208260061b8501011115614bb557600080fd5b60209290920196919550909350505050565b6020808252825182820181905260009190848201906040850190845b81811015614bff57835183529284019291840191600101614be3565b50909695505050505050565b60008060008060808587031215614c2157600080fd5b843593506020850135614c3381614575565b92506040850135614c4381614575565b91506060850135614c5381614693565b939692955090935050565b600080600060608486031215614c7357600080fd5b8335614c7e81614575565b925060208401359150604084013561496581614575565b634e487b7160e01b600052601160045260246000fd5b80820180821115611f9557611f95614c95565b6020808252601290820152712ab730baba3437b934bd32b221b0b63632b960711b604082015260600190565b8183526000602080850194508260005b858110156149f4578135614d0d81614575565b6001600160a01b031687529582019590820190600101614cfa565b602081526000612718602083018486614cea565b634e487b7160e01b600052603260045260246000fd5b600060208284031215614d6457600080fd5b613b6c8261467a565b600060018201614d7f57614d7f614c95565b5060010190565b6040808252810183905260008460608301825b86811015614dc45763ffffffff614daf8461467a565b16825260209283019290910190600101614d99565b5080925050508215156020830152949350505050565b60008235605e19833603018112614df057600080fd5b9190910192915050565b803561468e81614575565b600060608236031215614e1757600080fd5b614e1f6145a0565b8235614e2a81614575565b8152602083013567ffffffffffffffff80821115614e4757600080fd5b81850191506101008236031215614e5d57600080fd5b614e656145c9565b614e6e83614dfa565b8152614e7c60208401614dfa565b6020820152614e8d60408401614dfa565b6040820152614e9e60608401614dfa565b60608201526080830135608082015260a083013560a082015260c083013560c082015260e083013582811115614ed357600080fd5b614edf368286016145ed565b60e08301525060208401526040850135915080821115614efe57600080fd5b50614f0b368286016145ed565b60408301525092915050565b60005b83811015614f32578181015183820152602001614f1a565b50506000910152565b60008151808452614f53816020860160208601614f17565b601f01601f19169290920160200192915050565b60006001600160a01b03808616835260606020840152808551166060840152506020840151614fa160808401826001600160a01b03169052565b5060408401516001600160a01b03811660a08401525060608401516001600160a01b03811660c084015250608084015160e083015260a0840151610100818185015260c086015161012085015260e08601519150806101408501525061500b610160840182614f3b565b90508281036040840152613de58185614f3b565b6000806040838503121561503257600080fd5b505080516020909101519092909150565b6040815260006150566040830185614970565b90508260208301529392505050565b6020808252600b908201526a5a65726f4164647265737360a81b604082015260600190565b60006040828403121561509c57600080fd5b6040516040810181811067ffffffffffffffff821117156150bf576150bf61458a565b60405282356150cd81614575565b815260208301356150dd81614575565b60208201529392505050565b6000602082840312156150fb57600080fd5b5051919050565b8082028115828204841417611f9557611f95614c95565b60008261513657634e487b7160e01b600052601260045260246000fd5b500490565b81810381811115611f9557611f95614c95565b6001600160e01b0319831681528151600090615171816004850160208701614f17565b919091016004019392505050565b60008251614df0818460208701614f17565b6000602082840312156151a357600080fd5b815160ff81168114613b6c57600080fd5b600181815b808511156151ef5781600019048211156151d5576151d5614c95565b808516156151e257918102915b93841c93908002906151b9565b509250929050565b60008261520657506001611f95565b8161521357506000611f95565b816001811461522957600281146152335761524f565b6001915050611f95565b60ff84111561524457615244614c95565b50506001821b611f95565b5060208310610133831016604e8410600b8410161715615272575081810a611f95565b61527c83836151b4565b806000190482111561529057615290614c95565b029392505050565b6000613b6c60ff8416836151f7565b6040815260006152bb604083018587614cea565b90508215156020830152949350505050565b6000602082840312156152df57600080fd5b8151613b6c81614693565b602081526000613b6c6020830184614f3b56fea2646970667358221220823454c624c8543889c39a5c9eb23b0fef86a0269118f2dd2ac20b4774c68f0364736f6c63430008110033",
    "linkReferences": {},
    "deployedLinkReferences": {}
}